{
  "_format": "hh-sol-artifact-1",
  "contractName": "ShardTip",
  "sourceName": "contracts/ShardTip.sol",
  "abi": [
    {
      "inputs": [],
      "stateMutability": "nonpayable",
      "type": "constructor"
    },
    {
      "inputs": [
        {
          "internalType": "address",
          "name": "owner",
          "type": "address"
        }
      ],
      "name": "OwnableInvalidOwner",
      "type": "error"
    },
    {
      "inputs": [
        {
          "internalType": "address",
          "name": "account",
          "type": "address"
        }
      ],
      "name": "OwnableUnauthorizedAccount",
      "type": "error"
    },
    {
      "inputs": [],
      "name": "ReentrancyGuardReentrantCall",
      "type": "error"
    },
    {
      "anonymous": false,
      "inputs": [
        {
          "indexed": true,
          "internalType": "address",
          "name": "previousOwner",
          "type": "address"
        },
        {
          "indexed": true,
          "internalType": "address",
          "name": "newOwner",
          "type": "address"
        }
      ],
      "name": "OwnershipTransferred",
      "type": "event"
    },
    {
      "anonymous": false,
      "inputs": [
        {
          "indexed": false,
          "internalType": "uint256",
          "name": "newFee",
          "type": "uint256"
        }
      ],
      "name": "PlatformFeeUpdated",
      "type": "event"
    },
    {
      "anonymous": false,
      "inputs": [
        {
          "indexed": true,
          "internalType": "address",
          "name": "tipper",
          "type": "address"
        },
        {
          "indexed": true,
          "internalType": "address",
          "name": "creator",
          "type": "address"
        },
        {
          "indexed": false,
          "internalType": "uint256",
          "name": "amount",
          "type": "uint256"
        },
        {
          "indexed": false,
          "internalType": "uint256",
          "name": "timestamp",
          "type": "uint256"
        }
      ],
      "name": "TipSent",
      "type": "event"
    },
    {
      "anonymous": false,
      "inputs": [
        {
          "indexed": true,
          "internalType": "address",
          "name": "creator",
          "type": "address"
        },
        {
          "indexed": false,
          "internalType": "uint256",
          "name": "amount",
          "type": "uint256"
        },
        {
          "indexed": false,
          "internalType": "uint256",
          "name": "timestamp",
          "type": "uint256"
        }
      ],
      "name": "TipsClaimed",
      "type": "event"
    },
    {
      "inputs": [],
      "name": "MAX_PLATFORM_FEE",
      "outputs": [
        {
          "internalType": "uint256",
          "name": "",
          "type": "uint256"
        }
      ],
      "stateMutability": "view",
      "type": "function"
    },
    {
      "inputs": [],
      "name": "claimTips",
      "outputs": [],
      "stateMutability": "nonpayable",
      "type": "function"
    },
    {
      "inputs": [],
      "name": "emergencyWithdraw",
      "outputs": [],
      "stateMutability": "nonpayable",
      "type": "function"
    },
    {
      "inputs": [],
      "name": "getContractBalance",
      "outputs": [
        {
          "internalType": "uint256",
          "name": "",
          "type": "uint256"
        }
      ],
      "stateMutability": "view",
      "type": "function"
    },
    {
      "inputs": [
        {
          "internalType": "address",
          "name": "creator",
          "type": "address"
        }
      ],
      "name": "getCreatorStats",
      "outputs": [
        {
          "internalType": "uint256",
          "name": "pendingAmount",
          "type": "uint256"
        },
        {
          "internalType": "uint256",
          "name": "totalReceived",
          "type": "uint256"
        }
      ],
      "stateMutability": "view",
      "type": "function"
    },
    {
      "inputs": [
        {
          "internalType": "address",
          "name": "creator",
          "type": "address"
        }
      ],
      "name": "getPendingTips",
      "outputs": [
        {
          "internalType": "uint256",
          "name": "",
          "type": "uint256"
        }
      ],
      "stateMutability": "view",
      "type": "function"
    },
    {
      "inputs": [],
      "name": "getPlatformStats",
      "outputs": [
        {
          "internalType": "uint256",
          "name": "volume",
          "type": "uint256"
        },
        {
          "internalType": "uint256",
          "name": "transactions",
          "type": "uint256"
        },
        {
          "internalType": "uint256",
          "name": "fees",
          "type": "uint256"
        }
      ],
      "stateMutability": "view",
      "type": "function"
    },
    {
      "inputs": [
        {
          "internalType": "address",
          "name": "tipper",
          "type": "address"
        }
      ],
      "name": "getTipperStats",
      "outputs": [
        {
          "internalType": "uint256",
          "name": "totalSent",
          "type": "uint256"
        }
      ],
      "stateMutability": "view",
      "type": "function"
    },
    {
      "inputs": [],
      "name": "owner",
      "outputs": [
        {
          "internalType": "address",
          "name": "",
          "type": "address"
        }
      ],
      "stateMutability": "view",
      "type": "function"
    },
    {
      "inputs": [
        {
          "internalType": "address",
          "name": "",
          "type": "address"
        }
      ],
      "name": "pendingTips",
      "outputs": [
        {
          "internalType": "uint256",
          "name": "",
          "type": "uint256"
        }
      ],
      "stateMutability": "view",
      "type": "function"
    },
    {
      "inputs": [],
      "name": "platformFeePercentage",
      "outputs": [
        {
          "internalType": "uint256",
          "name": "",
          "type": "uint256"
        }
      ],
      "stateMutability": "view",
      "type": "function"
    },
    {
      "inputs": [],
      "name": "renounceOwnership",
      "outputs": [],
      "stateMutability": "nonpayable",
      "type": "function"
    },
    {
      "inputs": [
        {
          "internalType": "address",
          "name": "creator",
          "type": "address"
        }
      ],
      "name": "tip",
      "outputs": [],
      "stateMutability": "payable",
      "type": "function"
    },
    {
      "inputs": [],
      "name": "totalPlatformFees",
      "outputs": [
        {
          "internalType": "uint256",
          "name": "",
          "type": "uint256"
        }
      ],
      "stateMutability": "view",
      "type": "function"
    },
    {
      "inputs": [
        {
          "internalType": "address",
          "name": "",
          "type": "address"
        }
      ],
      "name": "totalTipsReceived",
      "outputs": [
        {
          "internalType": "uint256",
          "name": "",
          "type": "uint256"
        }
      ],
      "stateMutability": "view",
      "type": "function"
    },
    {
      "inputs": [
        {
          "internalType": "address",
          "name": "",
          "type": "address"
        }
      ],
      "name": "totalTipsSent",
      "outputs": [
        {
          "internalType": "uint256",
          "name": "",
          "type": "uint256"
        }
      ],
      "stateMutability": "view",
      "type": "function"
    },
    {
      "inputs": [],
      "name": "totalTipsVolume",
      "outputs": [
        {
          "internalType": "uint256",
          "name": "",
          "type": "uint256"
        }
      ],
      "stateMutability": "view",
      "type": "function"
    },
    {
      "inputs": [],
      "name": "totalTransactions",
      "outputs": [
        {
          "internalType": "uint256",
          "name": "",
          "type": "uint256"
        }
      ],
      "stateMutability": "view",
      "type": "function"
    },
    {
      "inputs": [
        {
          "internalType": "address",
          "name": "newOwner",
          "type": "address"
        }
      ],
      "name": "transferOwnership",
      "outputs": [],
      "stateMutability": "nonpayable",
      "type": "function"
    },
    {
      "inputs": [
        {
          "internalType": "uint256",
          "name": "newFeePercentage",
          "type": "uint256"
        }
      ],
      "name": "updatePlatformFee",
      "outputs": [],
      "stateMutability": "nonpayable",
      "type": "function"
    },
    {
      "inputs": [],
      "name": "withdrawPlatformFees",
      "outputs": [],
      "stateMutability": "nonpayable",
      "type": "function"
    },
    {
      "stateMutability": "payable",
      "type": "receive"
    }
  ],
  "bytecode": "0x608060405260fa60055534801561001557600080fd5b506001600055338061004157604051631e4fbdf760e01b81526000600482015260240160405180910390fd5b61004a81610050565b506100a2565b600180546001600160a01b038381166001600160a01b0319831681179093556040519116919082907f8be0079c531659141344cd1fd0a4f28419497f9722a3daafe3b4186f6b6457e090600090a35050565b610d1d806100b16000396000f3fe60806040526004361061012e5760003560e01c8063aa39978e116100ab578063cdd78cfc1161006f578063cdd78cfc146103e0578063ceb5ad55146103f6578063d0b7830b1461042c578063d3631fa514610441578063db2e21bc14610457578063f2fde38b1461046c57600080fd5b8063aa39978e1461033e578063ac40786b14610374578063ac733ef71461038a578063b9a600381461039d578063cd34d1e9146103b357600080fd5b80637f84606e116100f25780637f84606e146102445780638acf90dd146102715780638da5cb5b1461029e5780639f82d472146102c6578063aa0b59881461031e57600080fd5b806306af3dfd146101ab578063136d8883146101c25780633998a681146101f85780636f9fb98a1461021c578063715018a61461022f57600080fd5b366101a65760405162461bcd60e51b815260206004820152603b60248201527f53686172645469703a20446972656374207472616e7366657273206e6f74206160448201527f6c6c6f7765642e205573652074697028292066756e6374696f6e2e000000000060648201526084015b60405180910390fd5b600080fd5b3480156101b757600080fd5b506101c061048c565b005b3480156101ce57600080fd5b50600754600854600654604080519384526020840192909252908201526060015b60405180910390f35b34801561020457600080fd5b5061020e6101f481565b6040519081526020016101ef565b34801561022857600080fd5b504761020e565b34801561023b57600080fd5b506101c06105e0565b34801561025057600080fd5b5061020e61025f366004610c0a565b60026020526000908152604090205481565b34801561027d57600080fd5b5061020e61028c366004610c0a565b60046020526000908152604090205481565b3480156102aa57600080fd5b506001546040516001600160a01b0390911681526020016101ef565b3480156102d257600080fd5b506103096102e1366004610c0a565b6001600160a01b03166000908152600260209081526040808320546003909252909120549091565b604080519283526020830191909152016101ef565b34801561032a57600080fd5b506101c0610339366004610c3a565b6105f2565b34801561034a57600080fd5b5061020e610359366004610c0a565b6001600160a01b031660009081526004602052604090205490565b34801561038057600080fd5b5061020e60075481565b6101c0610398366004610c0a565b610680565b3480156103a957600080fd5b5061020e60085481565b3480156103bf57600080fd5b5061020e6103ce366004610c0a565b60036020526000908152604090205481565b3480156103ec57600080fd5b5061020e60055481565b34801561040257600080fd5b5061020e610411366004610c0a565b6001600160a01b031660009081526002602052604090205490565b34801561043857600080fd5b506101c06108f1565b34801561044d57600080fd5b5061020e60065481565b34801561046357600080fd5b506101c0610a06565b34801561047857600080fd5b506101c0610487366004610c0a565b610b26565b610494610b61565b33600090815260026020526040902054806104f15760405162461bcd60e51b815260206004820152601a60248201527f53686172645469703a204e6f207469707320746f20636c61696d000000000000604482015260640161019d565b336000818152600260205260408082208290555190919083908381818185875af1925050503d8060008114610542576040519150601f19603f3d011682016040523d82523d6000602084013e610547565b606091505b50509050806105985760405162461bcd60e51b815260206004820152601960248201527f53686172645469703a205472616e73666572206661696c656400000000000000604482015260640161019d565b6040805183815242602082015233917f8a2a3821b1fbdcaaa34df8b884fb0067a1acba069b9ef8c8455357daa47284d4910160405180910390a250506105de6001600055565b565b6105e8610b8b565b6105de6000610bb8565b6105fa610b8b565b6101f48111156106455760405162461bcd60e51b81526020600482015260166024820152750a6d0c2e4c8a8d2e074408ccaca40e8dede40d0d2ced60531b604482015260640161019d565b60058190556040518181527f45610d581145924dd7090a5017e5f2b1d6f42213bb2e95707ff86846bbfcb1ca9060200160405180910390a150565b610688610b61565b6001600160a01b0381166106e85760405162461bcd60e51b815260206004820152602160248201527f53686172645469703a20496e76616c69642063726561746f72206164647265736044820152607360f81b606482015260840161019d565b6000341161074c5760405162461bcd60e51b815260206004820152602b60248201527f53686172645469703a2054697020616d6f756e74206d7573742062652067726560448201526a061746572207468616e20360ac1b606482015260840161019d565b336001600160a01b038216036107a45760405162461bcd60e51b815260206004820152601d60248201527f53686172645469703a2043616e6e6f742074697020796f757273656c66000000604482015260640161019d565b6005543490600090612710906107ba9084610c69565b6107c49190610c86565b905060006107d28284610ca8565b6001600160a01b0385166000908152600260205260408120805492935083929091906107ff908490610cbb565b90915550506001600160a01b0384166000908152600360205260408120805483929061082c908490610cbb565b90915550503360009081526004602052604081208054859290610850908490610cbb565b9250508190555081600660008282546108699190610cbb565b9250508190555082600760008282546108829190610cbb565b90915550506008805490600061089783610cce565b9091555050604080518481524260208201526001600160a01b0386169133917f46caa0ebed33f94f22a64c88eb5e4283c4c91eb15dea2eda91009729f309e9ec910160405180910390a35050506108ee6001600055565b50565b6108f9610b8b565b610901610b61565b600654806109515760405162461bcd60e51b815260206004820152601d60248201527f53686172645469703a204e6f206665657320746f207769746864726177000000604482015260640161019d565b600060068190556001546040516001600160a01b039091169083908381818185875af1925050503d80600081146109a4576040519150601f19603f3d011682016040523d82523d6000602084013e6109a9565b606091505b50509050806109fa5760405162461bcd60e51b815260206004820152601b60248201527f53686172645469703a205769746864726177616c206661696c65640000000000604482015260640161019d565b50506105de6001600055565b610a0e610b8b565b610a16610b61565b4780610a645760405162461bcd60e51b815260206004820181905260248201527f53686172645469703a204e6f2062616c616e636520746f207769746864726177604482015260640161019d565b6000610a786001546001600160a01b031690565b6001600160a01b03168260405160006040518083038185875af1925050503d8060008114610ac2576040519150601f19603f3d011682016040523d82523d6000602084013e610ac7565b606091505b50509050806109fa5760405162461bcd60e51b815260206004820152602560248201527f53686172645469703a20456d657267656e6379207769746864726177616c2066604482015264185a5b195960da1b606482015260840161019d565b610b2e610b8b565b6001600160a01b038116610b5857604051631e4fbdf760e01b81526000600482015260240161019d565b6108ee81610bb8565b600260005403610b8457604051633ee5aeb560e01b815260040160405180910390fd5b6002600055565b6001546001600160a01b031633146105de5760405163118cdaa760e01b815233600482015260240161019d565b600180546001600160a01b038381166001600160a01b0319831681179093556040519116919082907f8be0079c531659141344cd1fd0a4f28419497f9722a3daafe3b4186f6b6457e090600090a35050565b600060208284031215610c1c57600080fd5b81356001600160a01b0381168114610c3357600080fd5b9392505050565b600060208284031215610c4c57600080fd5b5035919050565b634e487b7160e01b600052601160045260246000fd5b8082028115828204841417610c8057610c80610c53565b92915050565b600082610ca357634e487b7160e01b600052601260045260246000fd5b500490565b81810381811115610c8057610c80610c53565b80820180821115610c8057610c80610c53565b600060018201610ce057610ce0610c53565b506001019056fea26469706673582212207017e0d22884109b0159d2faaa7a96ea804bd09d0cf0e54ce7a6aa97e37c64c664736f6c63430008140033",
  "linkReferences": {},
  "deployedLinkReferences": {}
}