{"abi":[{"type":"constructor","inputs":[],"stateMutability":"nonpayable"},{"type":"receive","stateMutability":"payable"},{"type":"function","name":"MAX_REWARD_PERCENTAGE","inputs":[],"outputs":[{"name":"","type":"uint256","internalType":"uint256"}],"stateMutability":"view"},{"type":"function","name":"authorizeToken","inputs":[{"name":"token","type":"address","internalType":"address"}],"outputs":[],"stateMutability":"nonpayable"},{"type":"function","name":"authorizedTokens","inputs":[{"name":"","type":"address","internalType":"address"}],"outputs":[{"name":"","type":"bool","internalType":"bool"}],"stateMutability":"view"},{"type":"function","name":"claimAllLPRewards","inputs":[{"name":"tokens","type":"address[]","internalType":"address[]"}],"outputs":[],"stateMutability":"nonpayable"},{"type":"function","name":"claimLPRewards","inputs":[{"name":"token","type":"address","internalType":"address"}],"outputs":[],"stateMutability":"nonpayable"},{"type":"function","name":"createRewardPool","inputs":[{"name":"token","type":"address","internalType":"address"},{"name":"totalRewards","type":"uint256","internalType":"uint256"},{"name":"duration","type":"uint256","internalType":"uint256"}],"outputs":[],"stateMutability":"payable"},{"type":"function","name":"deauthorizeToken","inputs":[{"name":"token","type":"address","internalType":"address"}],"outputs":[],"stateMutability":"nonpayable"},{"type":"function","name":"distributeLPRewards","inputs":[{"name":"lps","type":"address[]","internalType":"address[]"},{"name":"shares","type":"uint256[]","internalType":"uint256[]"},{"name":"token","type":"address","internalType":"address"}],"outputs":[],"stateMutability":"nonpayable"},{"type":"function","name":"emergencyWithdraw","inputs":[{"name":"token","type":"address","internalType":"address"}],"outputs":[],"stateMutability":"nonpayable"},{"type":"function","name":"getLPPendingRewards","inputs":[{"name":"lp","type":"address","internalType":"address"},{"name":"token","type":"address","internalType":"address"}],"outputs":[{"name":"","type":"uint256","internalType":"uint256"}],"stateMutability":"view"},{"type":"function","name":"getLPRewardHistory","inputs":[{"name":"lp","type":"address","internalType":"address"},{"name":"token","type":"address","internalType":"address"}],"outputs":[{"name":"","type":"tuple[]","internalType":"struct LPRewardsDistributor.LPReward[]","components":[{"name":"token","type":"address","internalType":"address"},{"name":"amount","type":"uint256","internalType":"uint256"},{"name":"timestamp","type":"uint256","internalType":"uint256"},{"name":"claimed","type":"bool","internalType":"bool"}]}],"stateMutability":"view"},{"type":"function","name":"getRewardPoolInfo","inputs":[{"name":"token","type":"address","internalType":"address"}],"outputs":[{"name":"","type":"tuple","internalType":"struct LPRewardsDistributor.RewardPool","components":[{"name":"token","type":"address","internalType":"address"},{"name":"totalRewards","type":"uint256","internalType":"uint256"},{"name":"distributedRewards","type":"uint256","internalType":"uint256"},{"name":"startTime","type":"uint256","internalType":"uint256"},{"name":"duration","type":"uint256","internalType":"uint256"},{"name":"active","type":"bool","internalType":"bool"}]}],"stateMutability":"view"},{"type":"function","name":"lpRewardPercentage","inputs":[],"outputs":[{"name":"","type":"uint256","internalType":"uint256"}],"stateMutability":"view"},{"type":"function","name":"lpRewards","inputs":[{"name":"","type":"address","internalType":"address"},{"name":"","type":"address","internalType":"address"},{"name":"","type":"uint256","internalType":"uint256"}],"outputs":[{"name":"token","type":"address","internalType":"address"},{"name":"amount","type":"uint256","internalType":"uint256"},{"name":"timestamp","type":"uint256","internalType":"uint256"},{"name":"claimed","type":"bool","internalType":"bool"}],"stateMutability":"view"},{"type":"function","name":"lpRewardsEnabled","inputs":[],"outputs":[{"name":"","type":"bool","internalType":"bool"}],"stateMutability":"view"},{"type":"function","name":"owner","inputs":[],"outputs":[{"name":"","type":"address","internalType":"address"}],"stateMutability":"view"},{"type":"function","name":"renounceOwnership","inputs":[],"outputs":[],"stateMutability":"nonpayable"},{"type":"function","name":"rewardPools","inputs":[{"name":"","type":"address","internalType":"address"}],"outputs":[{"name":"token","type":"address","internalType":"address"},{"name":"totalRewards","type":"uint256","internalType":"uint256"},{"name":"distributedRewards","type":"uint256","internalType":"uint256"},{"name":"startTime","type":"uint256","internalType":"uint256"},{"name":"duration","type":"uint256","internalType":"uint256"},{"name":"active","type":"bool","internalType":"bool"}],"stateMutability":"view"},{"type":"function","name":"setLPRewardsEnabled","inputs":[{"name":"enabled","type":"bool","internalType":"bool"}],"outputs":[],"stateMutability":"nonpayable"},{"type":"function","name":"totalLPRewards","inputs":[{"name":"","type":"address","internalType":"address"}],"outputs":[{"name":"","type":"uint256","internalType":"uint256"}],"stateMutability":"view"},{"type":"function","name":"transferOwnership","inputs":[{"name":"newOwner","type":"address","internalType":"address"}],"outputs":[],"stateMutability":"nonpayable"},{"type":"function","name":"updateLPRewardPercentage","inputs":[{"name":"newPercentage","type":"uint256","internalType":"uint256"}],"outputs":[],"stateMutability":"nonpayable"},{"type":"function","name":"updateRewardPool","inputs":[{"name":"token","type":"address","internalType":"address"},{"name":"newTotalRewards","type":"uint256","internalType":"uint256"}],"outputs":[],"stateMutability":"nonpayable"},{"type":"event","name":"LPRewardClaimed","inputs":[{"name":"lp","type":"address","indexed":true,"internalType":"address"},{"name":"token","type":"address","indexed":true,"internalType":"address"},{"name":"amount","type":"uint256","indexed":false,"internalType":"uint256"}],"anonymous":false},{"type":"event","name":"LPRewardDistributed","inputs":[{"name":"lp","type":"address","indexed":true,"internalType":"address"},{"name":"token","type":"address","indexed":true,"internalType":"address"},{"name":"amount","type":"uint256","indexed":false,"internalType":"uint256"},{"name":"timestamp","type":"uint256","indexed":false,"internalType":"uint256"}],"anonymous":false},{"type":"event","name":"OwnershipTransferred","inputs":[{"name":"previousOwner","type":"address","indexed":true,"internalType":"address"},{"name":"newOwner","type":"address","indexed":true,"internalType":"address"}],"anonymous":false},{"type":"event","name":"RewardPoolCreated","inputs":[{"name":"token","type":"address","indexed":true,"internalType":"address"},{"name":"totalRewards","type":"uint256","indexed":false,"internalType":"uint256"},{"name":"duration","type":"uint256","indexed":false,"internalType":"uint256"}],"anonymous":false},{"type":"event","name":"RewardPoolUpdated","inputs":[{"name":"token","type":"address","indexed":true,"internalType":"address"},{"name":"newTotalRewards","type":"uint256","indexed":false,"internalType":"uint256"}],"anonymous":false},{"type":"error","name":"AddressEmptyCode","inputs":[{"name":"target","type":"address","internalType":"address"}]},{"type":"error","name":"AddressInsufficientBalance","inputs":[{"name":"account","type":"address","internalType":"address"}]},{"type":"error","name":"FailedInnerCall","inputs":[]},{"type":"error","name":"OwnableInvalidOwner","inputs":[{"name":"owner","type":"address","internalType":"address"}]},{"type":"error","name":"OwnableUnauthorizedAccount","inputs":[{"name":"account","type":"address","internalType":"address"}]},{"type":"error","name":"ReentrancyGuardReentrantCall","inputs":[]},{"type":"error","name":"SafeERC20FailedOperation","inputs":[{"name":"token","type":"address","internalType":"address"}]}],"bytecode":{"object":"0x60806040526107d06006556007805460ff191660011790553480156021575f80fd5b5060015f553380604a57604051631e4fbdf760e01b81525f600482015260240160405180910390fd5b6051816056565b5060a7565b600180546001600160a01b038381166001600160a01b0319831681179093556040519116919082907f8be0079c531659141344cd1fd0a4f28419497f9722a3daafe3b4186f6b6457e0905f90a35050565b611cd1806100b45f395ff3fe60806040526004361061013f575f3560e01c80638d9ef773116100b35780639fc93b541161006d5780639fc93b5414610465578063adf2067a14610484578063b916a778146104a3578063bbf020ba146104c2578063e0d59b61146104e1578063f2fde38b1461050d575f80fd5b80638d9ef773146103a05780638da5cb5b146103bf5780638e8de013146103e657806398e9cb12146103f95780639bc7c586146104185780639e974e7e14610446575f80fd5b8063372d944811610104578063372d9448146102285780635e5ef0ac146102be5780636ff1c9bc146102d3578063715018a6146102f257806389dc30f0146103065780638a2b913d1461032f575f80fd5b80630dd1a7951461014a5780631298ce931461019a5780632de1edd5146101c75780632e546139146101dc578063337082fe14610207575f80fd5b3661014657005b5f80fd5b348015610155575f80fd5b506101696101643660046118af565b61052c565b604080516001600160a01b039095168552602085019390935291830152151560608201526080015b60405180910390f35b3480156101a5575f80fd5b506101b96101b43660046118e9565b610588565b604051908152602001610191565b3480156101d2575f80fd5b506101b961138881565b3480156101e7575f80fd5b506101b96101f636600461191a565b60046020525f908152604090205481565b348015610212575f80fd5b5061022661022136600461197b565b61069e565b005b348015610233575f80fd5b5061028561024236600461191a565b600260208190525f91825260409091208054600182015492820154600383015460048401546005909401546001600160a01b039093169493919290919060ff1686565b604080516001600160a01b03909716875260208701959095529385019290925260608401526080830152151560a082015260c001610191565b3480156102c9575f80fd5b506101b960065481565b3480156102de575f80fd5b506102266102ed36600461191a565b610bac565b3480156102fd575f80fd5b50610226610cf6565b348015610311575f80fd5b5060075461031f9060ff1681565b6040519015158152602001610191565b34801561033a575f80fd5b5061034e61034936600461191a565b610d09565b604051610191919081516001600160a01b031681526020808301519082015260408083015190820152606080830151908201526080808301519082015260a09182015115159181019190915260c00190565b3480156103ab575f80fd5b506102266103ba3660046119fb565b610daf565b3480156103ca575f80fd5b506001546040516001600160a01b039091168152602001610191565b6102266103f4366004611a3a565b610e03565b348015610404575f80fd5b5061022661041336600461191a565b6110a8565b348015610423575f80fd5b5061031f61043236600461191a565b60056020525f908152604090205460ff1681565b348015610451575f80fd5b50610226610460366004611a6a565b6110d3565b348015610470575f80fd5b5061022661047f366004611a81565b611144565b34801561048f575f80fd5b5061022661049e36600461191a565b61125b565b3480156104ae575f80fd5b506102266104bd36600461191a565b611283565b3480156104cd575f80fd5b506102266104dc366004611ab6565b6112a1565b3480156104ec575f80fd5b506105006104fb3660046118e9565b6112bc565b6040516101919190611ad1565b348015610518575f80fd5b5061022661052736600461191a565b61136c565b6003602052825f5260405f20602052815f5260405f20818154811061054f575f80fd5b5f91825260209091206004909102018054600182015460028301546003909301546001600160a01b039092169550935090915060ff1684565b6001600160a01b038083165f90815260036020908152604080832093851683529281528282208054845181840281018401909552808552929384939092849084015b8282101561062b575f848152602090819020604080516080810182526004860290920180546001600160a01b03168352600180820154848601526002820154928401929092526003015460ff161515606083015290835290920191016105ca565b5050505090505f805b82518110156106935782818151811061064f5761064f611b41565b60200260200101516060015161068b5782818151811061067157610671611b41565b602002602001015160200151826106889190611b69565b91505b600101610634565b509150505b92915050565b6106a66113a6565b6001600160a01b0381165f9081526002602052604090206005015460ff166106e95760405162461bcd60e51b81526004016106e090611b7c565b60405180910390fd5b83821461074c5760405162461bcd60e51b815260206004820152602b60248201527f4c50526577617264734469737472696275746f723a204172726179206c656e6760448201526a0e8d040dad2e6dac2e8c6d60ab1b60648201526084016106e0565b60075460ff166107b05760405162461bcd60e51b815260206004820152602960248201527f4c50526577617264734469737472696275746f723a204c50207265776172647360448201526808191a5cd8589b195960ba1b60648201526084016106e0565b6001600160a01b0381165f90815260026020526040902060038101544210156108325760405162461bcd60e51b815260206004820152602e60248201527f4c50526577617264734469737472696275746f723a204469737472696275746960448201526d1bdb881b9bdd081cdd185c9d195960921b60648201526084016106e0565b806004015481600301546108469190611b69565b4211156108a65760405162461bcd60e51b815260206004820152602860248201527f4c50526577617264734469737472696275746f723a20446973747269627574696044820152671bdb88195b99195960c21b60648201526084016106e0565b5f805b848110156108df578585828181106108c3576108c3611b41565b90506020020135826108d59190611b69565b91506001016108a9565b505f81116109455760405162461bcd60e51b815260206004820152602d60248201527f4c50526577617264734469737472696275746f723a204e6f207368617265732060448201526c746f206469737472696275746560981b60648201526084016106e0565b5f8260020154836001015461095a9190611bc1565b90505f81116109b95760405162461bcd60e51b815260206004820152602560248201527f4c50526577617264734469737472696275746f723a204e6f2072657761726473604482015264081b19599d60da1b60648201526084016106e0565b5f5b87811015610ba1575f8787838181106109d6576109d6611b41565b905060200201351115610b99575f838888848181106109f7576109f7611b41565b9050602002013584610a099190611bd4565b610a139190611beb565b90508015610b975760035f8b8b85818110610a3057610a30611b41565b9050602002016020810190610a45919061191a565b6001600160a01b03908116825260208083019390935260409182015f9081208a8316808352908552838220845160808101865282815280870188815242828801908152606083018681528454600180820187559588528a88209451600491820290950180546001600160a01b031916959099169490941788559151938701939093559151600286015590516003909401805460ff1916941515949094179093558152925281208054839290610afb908490611b69565b9250508190555080856002015f828254610b159190611b69565b90915550506001600160a01b0386168a8a84818110610b3657610b36611b41565b9050602002016020810190610b4b919061191a565b6001600160a01b03167ff7b5ffa879999012d37066189757d4509fad7f0ff949b144f53c4e0517dcd09a8342604051610b8e929190918252602082015260400190565b60405180910390a35b505b6001016109bb565b505050505050505050565b610bb46113a6565b5f6001600160a01b03821615610c2f576040516370a0823160e01b81523060048201526001600160a01b038316906370a0823190602401602060405180830381865afa158015610c06573d5f803e3d5ffd5b505050506040513d601f19601f82011682018060405250810190610c2a9190611c0a565b610c31565b475b90508015610cf2576001600160a01b038216610ccc575f610c5a6001546001600160a01b031690565b6001600160a01b0316826040515f6040518083038185875af1925050503d805f8114610ca1576040519150601f19603f3d011682016040523d82523d5f602084013e610ca6565b606091505b5050905080610cc75760405162461bcd60e51b81526004016106e090611c21565b505050565b610cf2610ce16001546001600160a01b031690565b6001600160a01b03841690836113d3565b5050565b610cfe6113a6565b610d075f611432565b565b610d476040518060c001604052805f6001600160a01b031681526020015f81526020015f81526020015f81526020015f81526020015f151581525090565b506001600160a01b039081165f90815260026020818152604092839020835160c08101855281549095168552600181015491850191909152908101549183019190915260038101546060830152600481015460808301526005015460ff16151560a082015290565b610db7611483565b5f5b81811015610df957610df133848484818110610dd757610dd7611b41565b9050602002016020810190610dec919061191a565b6114ab565b600101610db9565b50610cf260015f55565b610e0b6113a6565b5f8211610e6e5760405162461bcd60e51b815260206004820152602b60248201527f4c50526577617264734469737472696275746f723a20496e76616c696420746f60448201526a74616c207265776172647360a81b60648201526084016106e0565b5f8111610ecc5760405162461bcd60e51b815260206004820152602660248201527f4c50526577617264734469737472696275746f723a20496e76616c69642064756044820152653930ba34b7b760d11b60648201526084016106e0565b6001600160a01b0383165f9081526002602052604090206005015460ff1615610f495760405162461bcd60e51b815260206004820152602960248201527f4c50526577617264734469737472696275746f723a20506f6f6c20616c72656160448201526864792065786973747360b81b60648201526084016106e0565b6040805160c0810182526001600160a01b0385811680835260208084018781525f8587018181524260608801908152608088018a8152600160a08a018181528886526002978890529a909420985189546001600160a01b031916981697909717885592519187019190915551918501919091555160038401559051600483015591516005909101805460ff191691151591909117905561104a578134146110455760405162461bcd60e51b815260206004820152602a60248201527f4c50526577617264734469737472696275746f723a20496e636f72726563742060448201526911551208185b5bdd5b9d60b21b60648201526084016106e0565b61105f565b61105f6001600160a01b0384163330856116c2565b60408051838152602081018390526001600160a01b038516917fcad6ccfdf0cc6498758e66cec608e43526f2513e683a3d2f28b35f6da7eca4bc910160405180910390a2505050565b6110b06113a6565b6001600160a01b03165f908152600560205260409020805460ff19166001179055565b6110db6113a6565b61138881111561113f5760405162461bcd60e51b815260206004820152602960248201527f4c50526577617264734469737472696275746f723a2050657263656e74616765604482015268040e8dede40d0d2ced60bb1b60648201526084016106e0565b600655565b61114c6113a6565b6001600160a01b0382165f9081526002602052604090206005015460ff166111865760405162461bcd60e51b81526004016106e090611b7c565b6001600160a01b0382165f908152600260208190526040909120015481116112005760405162461bcd60e51b815260206004820152602760248201527f4c50526577617264734469737472696275746f723a20496e76616c6964206e656044820152661dc81d1bdd185b60ca1b60648201526084016106e0565b6001600160a01b0382165f8181526002602052604090819020600101839055517f0333f461325c5d525713dc8a37127163b51366ee35acf64f22cc0472f343c75a9061124f9084815260200190565b60405180910390a25050565b6112636113a6565b6001600160a01b03165f908152600560205260409020805460ff19169055565b61128b611483565b61129533826114ab565b61129e60015f55565b50565b6112a96113a6565b6007805460ff1916911515919091179055565b6001600160a01b038083165f9081526003602090815260408083209385168352928152828220805484518184028101840190955280855260609493919290919084015b82821015611360575f848152602090819020604080516080810182526004860290920180546001600160a01b03168352600180820154848601526002820154928401929092526003015460ff161515606083015290835290920191016112ff565b50505050905092915050565b6113746113a6565b6001600160a01b03811661139d57604051631e4fbdf760e01b81525f60048201526024016106e0565b61129e81611432565b6001546001600160a01b03163314610d075760405163118cdaa760e01b81523360048201526024016106e0565b6040516001600160a01b03838116602483015260448201839052610cc791859182169063a9059cbb906064015b604051602081830303815290604052915060e01b6020820180516001600160e01b038381831617835250505050611701565b600180546001600160a01b038381166001600160a01b0319831681179093556040519116919082907f8be0079c531659141344cd1fd0a4f28419497f9722a3daafe3b4186f6b6457e0905f90a35050565b60025f54036114a557604051633ee5aeb560e01b815260040160405180910390fd5b60025f55565b6001600160a01b038083165f908152600360209081526040808320938516835292905290812090805b8254811015611576578281815481106114ef576114ef611b41565b5f91825260209091206003600490920201015460ff1661156e5782818154811061151b5761151b611b41565b905f5260205f20906004020160010154826115369190611b69565b9150600183828154811061154c5761154c611b41565b5f9182526020909120600490910201600301805460ff19169115159190911790555b6001016114d4565b505f81116115d85760405162461bcd60e51b815260206004820152602960248201527f4c50526577617264734469737472696275746f723a204e6f207265776172647360448201526820746f20636c61696d60b81b60648201526084016106e0565b6001600160a01b03831661165b575f846001600160a01b0316826040515f6040518083038185875af1925050503d805f811461162f576040519150601f19603f3d011682016040523d82523d5f602084013e611634565b606091505b50509050806116555760405162461bcd60e51b81526004016106e090611c21565b5061166f565b61166f6001600160a01b03841685836113d3565b826001600160a01b0316846001600160a01b03167fd5c7f00f812b57a4de7d2be4d224a696e313e9a810ff86cdeb6caf3ac9d0d266836040516116b491815260200190565b60405180910390a350505050565b6040516001600160a01b0384811660248301528381166044830152606482018390526116fb9186918216906323b872dd90608401611400565b50505050565b5f6117156001600160a01b03841683611762565b905080515f141580156117395750808060200190518101906117379190611c6a565b155b15610cc757604051635274afe760e01b81526001600160a01b03841660048201526024016106e0565b606061176f83835f611776565b9392505050565b60608147101561179b5760405163cd78605960e01b81523060048201526024016106e0565b5f80856001600160a01b031684866040516117b69190611c85565b5f6040518083038185875af1925050503d805f81146117f0576040519150601f19603f3d011682016040523d82523d5f602084013e6117f5565b606091505b509150915061180586838361180f565b9695505050505050565b6060826118245761181f8261186b565b61176f565b815115801561183b57506001600160a01b0384163b155b1561186457604051639996b31560e01b81526001600160a01b03851660048201526024016106e0565b508061176f565b80511561187b5780518082602001fd5b604051630a12f52160e11b815260040160405180910390fd5b80356001600160a01b03811681146118aa575f80fd5b919050565b5f805f606084860312156118c1575f80fd5b6118ca84611894565b92506118d860208501611894565b929592945050506040919091013590565b5f80604083850312156118fa575f80fd5b61190383611894565b915061191160208401611894565b90509250929050565b5f6020828403121561192a575f80fd5b61176f82611894565b5f8083601f840112611943575f80fd5b50813567ffffffffffffffff81111561195a575f80fd5b6020830191508360208260051b8501011115611974575f80fd5b9250929050565b5f805f805f6060868803121561198f575f80fd5b853567ffffffffffffffff8111156119a5575f80fd5b6119b188828901611933565b909650945050602086013567ffffffffffffffff8111156119d0575f80fd5b6119dc88828901611933565b90945092506119ef905060408701611894565b90509295509295909350565b5f8060208385031215611a0c575f80fd5b823567ffffffffffffffff811115611a22575f80fd5b611a2e85828601611933565b90969095509350505050565b5f805f60608486031215611a4c575f80fd5b611a5584611894565b95602085013595506040909401359392505050565b5f60208284031215611a7a575f80fd5b5035919050565b5f8060408385031215611a92575f80fd5b611a9b83611894565b946020939093013593505050565b801515811461129e575f80fd5b5f60208284031215611ac6575f80fd5b813561176f81611aa9565b602080825282518282018190525f918401906040840190835b81811015611b3657835180516001600160a01b03168452602080820151818601526040808301519086015260609182015115159185019190915290930192608090920191600101611aea565b509095945050505050565b634e487b7160e01b5f52603260045260245ffd5b634e487b7160e01b5f52601160045260245ffd5b8082018082111561069857610698611b55565b60208082526025908201527f4c50526577617264734469737472696275746f723a20506f6f6c206e6f742061604082015264637469766560d81b606082015260800190565b8181038181111561069857610698611b55565b808202811582820484141761069857610698611b55565b5f82611c0557634e487b7160e01b5f52601260045260245ffd5b500490565b5f60208284031215611c1a575f80fd5b5051919050565b60208082526029908201527f4c50526577617264734469737472696275746f723a20455448207472616e7366604082015268195c8819985a5b195960ba1b606082015260800190565b5f60208284031215611c7a575f80fd5b815161176f81611aa9565b5f82518060208501845e5f92019182525091905056fea264697066735822122038cf6c996976d64beb10d6490e01df55740123cb19a70dfc80a6b205450b02a364736f6c634300081a0033","linkReferences":{}},"methodIdentifiers":{"MAX_REWARD_PERCENTAGE()":"2de1edd5","authorizeToken(address)":"98e9cb12","authorizedTokens(address)":"9bc7c586","claimAllLPRewards(address[])":"8d9ef773","claimLPRewards(address)":"b916a778","createRewardPool(address,uint256,uint256)":"8e8de013","deauthorizeToken(address)":"adf2067a","distributeLPRewards(address[],uint256[],address)":"337082fe","emergencyWithdraw(address)":"6ff1c9bc","getLPPendingRewards(address,address)":"1298ce93","getLPRewardHistory(address,address)":"e0d59b61","getRewardPoolInfo(address)":"8a2b913d","lpRewardPercentage()":"5e5ef0ac","lpRewards(address,address,uint256)":"0dd1a795","lpRewardsEnabled()":"89dc30f0","owner()":"8da5cb5b","renounceOwnership()":"715018a6","rewardPools(address)":"372d9448","setLPRewardsEnabled(bool)":"bbf020ba","totalLPRewards(address)":"2e546139","transferOwnership(address)":"f2fde38b","updateLPRewardPercentage(uint256)":"9e974e7e","updateRewardPool(address,uint256)":"9fc93b54"},"id":47}