{"abi":[{"type":"constructor","inputs":[{"name":"_poolManager","type":"address","internalType":"contract IPoolManager"}],"stateMutability":"nonpayable"},{"type":"receive","stateMutability":"payable"},{"type":"function","name":"BPS_DENOMINATOR","inputs":[],"outputs":[{"name":"","type":"uint256","internalType":"uint256"}],"stateMutability":"view"},{"type":"function","name":"MAX_REWARD_PERCENTAGE","inputs":[],"outputs":[{"name":"","type":"uint256","internalType":"uint256"}],"stateMutability":"view"},{"type":"function","name":"_setPendingRewards","inputs":[{"name":"creator","type":"address","internalType":"address"},{"name":"currency","type":"address","internalType":"Currency"},{"name":"amount","type":"uint256","internalType":"uint256"}],"outputs":[],"stateMutability":"nonpayable"},{"type":"function","name":"_setTotalRewardsDistributed","inputs":[{"name":"poolId","type":"bytes32","internalType":"PoolId"},{"name":"amount","type":"uint256","internalType":"uint256"}],"outputs":[],"stateMutability":"nonpayable"},{"type":"function","name":"afterAddLiquidity","inputs":[{"name":"sender","type":"address","internalType":"address"},{"name":"key","type":"tuple","internalType":"struct PoolKey","components":[{"name":"currency0","type":"address","internalType":"Currency"},{"name":"currency1","type":"address","internalType":"Currency"},{"name":"fee","type":"uint24","internalType":"uint24"},{"name":"tickSpacing","type":"int24","internalType":"int24"},{"name":"hooks","type":"address","internalType":"contract IHooks"}]},{"name":"params","type":"tuple","internalType":"struct IPoolManager.ModifyLiquidityParams","components":[{"name":"tickLower","type":"int24","internalType":"int24"},{"name":"tickUpper","type":"int24","internalType":"int24"},{"name":"liquidityDelta","type":"int256","internalType":"int256"},{"name":"salt","type":"bytes32","internalType":"bytes32"}]},{"name":"delta","type":"int256","internalType":"BalanceDelta"},{"name":"feesAccrued","type":"int256","internalType":"BalanceDelta"},{"name":"hookData","type":"bytes","internalType":"bytes"}],"outputs":[{"name":"","type":"bytes4","internalType":"bytes4"},{"name":"","type":"int256","internalType":"BalanceDelta"}],"stateMutability":"nonpayable"},{"type":"function","name":"afterDonate","inputs":[{"name":"sender","type":"address","internalType":"address"},{"name":"key","type":"tuple","internalType":"struct PoolKey","components":[{"name":"currency0","type":"address","internalType":"Currency"},{"name":"currency1","type":"address","internalType":"Currency"},{"name":"fee","type":"uint24","internalType":"uint24"},{"name":"tickSpacing","type":"int24","internalType":"int24"},{"name":"hooks","type":"address","internalType":"contract IHooks"}]},{"name":"amount0","type":"uint256","internalType":"uint256"},{"name":"amount1","type":"uint256","internalType":"uint256"},{"name":"hookData","type":"bytes","internalType":"bytes"}],"outputs":[{"name":"","type":"bytes4","internalType":"bytes4"}],"stateMutability":"nonpayable"},{"type":"function","name":"afterInitialize","inputs":[{"name":"sender","type":"address","internalType":"address"},{"name":"key","type":"tuple","internalType":"struct PoolKey","components":[{"name":"currency0","type":"address","internalType":"Currency"},{"name":"currency1","type":"address","internalType":"Currency"},{"name":"fee","type":"uint24","internalType":"uint24"},{"name":"tickSpacing","type":"int24","internalType":"int24"},{"name":"hooks","type":"address","internalType":"contract IHooks"}]},{"name":"sqrtPriceX96","type":"uint160","internalType":"uint160"},{"name":"tick","type":"int24","internalType":"int24"}],"outputs":[{"name":"","type":"bytes4","internalType":"bytes4"}],"stateMutability":"nonpayable"},{"type":"function","name":"afterRemoveLiquidity","inputs":[{"name":"sender","type":"address","internalType":"address"},{"name":"key","type":"tuple","internalType":"struct PoolKey","components":[{"name":"currency0","type":"address","internalType":"Currency"},{"name":"currency1","type":"address","internalType":"Currency"},{"name":"fee","type":"uint24","internalType":"uint24"},{"name":"tickSpacing","type":"int24","internalType":"int24"},{"name":"hooks","type":"address","internalType":"contract IHooks"}]},{"name":"params","type":"tuple","internalType":"struct IPoolManager.ModifyLiquidityParams","components":[{"name":"tickLower","type":"int24","internalType":"int24"},{"name":"tickUpper","type":"int24","internalType":"int24"},{"name":"liquidityDelta","type":"int256","internalType":"int256"},{"name":"salt","type":"bytes32","internalType":"bytes32"}]},{"name":"delta","type":"int256","internalType":"BalanceDelta"},{"name":"feesAccrued","type":"int256","internalType":"BalanceDelta"},{"name":"hookData","type":"bytes","internalType":"bytes"}],"outputs":[{"name":"","type":"bytes4","internalType":"bytes4"},{"name":"","type":"int256","internalType":"BalanceDelta"}],"stateMutability":"nonpayable"},{"type":"function","name":"afterSwap","inputs":[{"name":"sender","type":"address","internalType":"address"},{"name":"key","type":"tuple","internalType":"struct PoolKey","components":[{"name":"currency0","type":"address","internalType":"Currency"},{"name":"currency1","type":"address","internalType":"Currency"},{"name":"fee","type":"uint24","internalType":"uint24"},{"name":"tickSpacing","type":"int24","internalType":"int24"},{"name":"hooks","type":"address","internalType":"contract IHooks"}]},{"name":"params","type":"tuple","internalType":"struct IPoolManager.SwapParams","components":[{"name":"zeroForOne","type":"bool","internalType":"bool"},{"name":"amountSpecified","type":"int256","internalType":"int256"},{"name":"sqrtPriceLimitX96","type":"uint160","internalType":"uint160"}]},{"name":"delta","type":"int256","internalType":"BalanceDelta"},{"name":"hookData","type":"bytes","internalType":"bytes"}],"outputs":[{"name":"","type":"bytes4","internalType":"bytes4"},{"name":"","type":"int128","internalType":"int128"}],"stateMutability":"nonpayable"},{"type":"function","name":"authorizeCreator","inputs":[{"name":"creator","type":"address","internalType":"address"}],"outputs":[],"stateMutability":"nonpayable"},{"type":"function","name":"authorizedCreators","inputs":[{"name":"","type":"address","internalType":"address"}],"outputs":[{"name":"","type":"bool","internalType":"bool"}],"stateMutability":"view"},{"type":"function","name":"beforeAddLiquidity","inputs":[{"name":"sender","type":"address","internalType":"address"},{"name":"key","type":"tuple","internalType":"struct PoolKey","components":[{"name":"currency0","type":"address","internalType":"Currency"},{"name":"currency1","type":"address","internalType":"Currency"},{"name":"fee","type":"uint24","internalType":"uint24"},{"name":"tickSpacing","type":"int24","internalType":"int24"},{"name":"hooks","type":"address","internalType":"contract IHooks"}]},{"name":"params","type":"tuple","internalType":"struct IPoolManager.ModifyLiquidityParams","components":[{"name":"tickLower","type":"int24","internalType":"int24"},{"name":"tickUpper","type":"int24","internalType":"int24"},{"name":"liquidityDelta","type":"int256","internalType":"int256"},{"name":"salt","type":"bytes32","internalType":"bytes32"}]},{"name":"hookData","type":"bytes","internalType":"bytes"}],"outputs":[{"name":"","type":"bytes4","internalType":"bytes4"}],"stateMutability":"nonpayable"},{"type":"function","name":"beforeDonate","inputs":[{"name":"sender","type":"address","internalType":"address"},{"name":"key","type":"tuple","internalType":"struct PoolKey","components":[{"name":"currency0","type":"address","internalType":"Currency"},{"name":"currency1","type":"address","internalType":"Currency"},{"name":"fee","type":"uint24","internalType":"uint24"},{"name":"tickSpacing","type":"int24","internalType":"int24"},{"name":"hooks","type":"address","internalType":"contract IHooks"}]},{"name":"amount0","type":"uint256","internalType":"uint256"},{"name":"amount1","type":"uint256","internalType":"uint256"},{"name":"hookData","type":"bytes","internalType":"bytes"}],"outputs":[{"name":"","type":"bytes4","internalType":"bytes4"}],"stateMutability":"nonpayable"},{"type":"function","name":"beforeInitialize","inputs":[{"name":"sender","type":"address","internalType":"address"},{"name":"key","type":"tuple","internalType":"struct PoolKey","components":[{"name":"currency0","type":"address","internalType":"Currency"},{"name":"currency1","type":"address","internalType":"Currency"},{"name":"fee","type":"uint24","internalType":"uint24"},{"name":"tickSpacing","type":"int24","internalType":"int24"},{"name":"hooks","type":"address","internalType":"contract IHooks"}]},{"name":"sqrtPriceX96","type":"uint160","internalType":"uint160"}],"outputs":[{"name":"","type":"bytes4","internalType":"bytes4"}],"stateMutability":"nonpayable"},{"type":"function","name":"beforeRemoveLiquidity","inputs":[{"name":"sender","type":"address","internalType":"address"},{"name":"key","type":"tuple","internalType":"struct PoolKey","components":[{"name":"currency0","type":"address","internalType":"Currency"},{"name":"currency1","type":"address","internalType":"Currency"},{"name":"fee","type":"uint24","internalType":"uint24"},{"name":"tickSpacing","type":"int24","internalType":"int24"},{"name":"hooks","type":"address","internalType":"contract IHooks"}]},{"name":"params","type":"tuple","internalType":"struct IPoolManager.ModifyLiquidityParams","components":[{"name":"tickLower","type":"int24","internalType":"int24"},{"name":"tickUpper","type":"int24","internalType":"int24"},{"name":"liquidityDelta","type":"int256","internalType":"int256"},{"name":"salt","type":"bytes32","internalType":"bytes32"}]},{"name":"hookData","type":"bytes","internalType":"bytes"}],"outputs":[{"name":"","type":"bytes4","internalType":"bytes4"}],"stateMutability":"nonpayable"},{"type":"function","name":"beforeSwap","inputs":[{"name":"sender","type":"address","internalType":"address"},{"name":"key","type":"tuple","internalType":"struct PoolKey","components":[{"name":"currency0","type":"address","internalType":"Currency"},{"name":"currency1","type":"address","internalType":"Currency"},{"name":"fee","type":"uint24","internalType":"uint24"},{"name":"tickSpacing","type":"int24","internalType":"int24"},{"name":"hooks","type":"address","internalType":"contract IHooks"}]},{"name":"params","type":"tuple","internalType":"struct IPoolManager.SwapParams","components":[{"name":"zeroForOne","type":"bool","internalType":"bool"},{"name":"amountSpecified","type":"int256","internalType":"int256"},{"name":"sqrtPriceLimitX96","type":"uint160","internalType":"uint160"}]},{"name":"hookData","type":"bytes","internalType":"bytes"}],"outputs":[{"name":"","type":"bytes4","internalType":"bytes4"},{"name":"","type":"int256","internalType":"BeforeSwapDelta"},{"name":"","type":"uint24","internalType":"uint24"}],"stateMutability":"nonpayable"},{"type":"function","name":"claimAllRewards","inputs":[{"name":"currencies","type":"address[]","internalType":"Currency[]"}],"outputs":[],"stateMutability":"nonpayable"},{"type":"function","name":"claimRewards","inputs":[{"name":"currency","type":"address","internalType":"Currency"}],"outputs":[],"stateMutability":"nonpayable"},{"type":"function","name":"creatorWhitelistEnabled","inputs":[],"outputs":[{"name":"","type":"bool","internalType":"bool"}],"stateMutability":"view"},{"type":"function","name":"deauthorizeCreator","inputs":[{"name":"creator","type":"address","internalType":"address"}],"outputs":[],"stateMutability":"nonpayable"},{"type":"function","name":"emergencyWithdraw","inputs":[{"name":"currency","type":"address","internalType":"Currency"}],"outputs":[],"stateMutability":"nonpayable"},{"type":"function","name":"getCreatorStats","inputs":[{"name":"creator","type":"address","internalType":"address"}],"outputs":[{"name":"totalPendingETH","type":"uint256","internalType":"uint256"},{"name":"totalPendingTokens","type":"uint256","internalType":"uint256"},{"name":"isAuthorized","type":"bool","internalType":"bool"}],"stateMutability":"view"},{"type":"function","name":"getHookPermissions","inputs":[],"outputs":[{"name":"","type":"tuple","internalType":"struct Hooks.Permissions","components":[{"name":"beforeInitialize","type":"bool","internalType":"bool"},{"name":"afterInitialize","type":"bool","internalType":"bool"},{"name":"beforeAddLiquidity","type":"bool","internalType":"bool"},{"name":"afterAddLiquidity","type":"bool","internalType":"bool"},{"name":"beforeRemoveLiquidity","type":"bool","internalType":"bool"},{"name":"afterRemoveLiquidity","type":"bool","internalType":"bool"},{"name":"beforeSwap","type":"bool","internalType":"bool"},{"name":"afterSwap","type":"bool","internalType":"bool"},{"name":"beforeDonate","type":"bool","internalType":"bool"},{"name":"afterDonate","type":"bool","internalType":"bool"},{"name":"beforeSwapReturnDelta","type":"bool","internalType":"bool"},{"name":"afterSwapReturnDelta","type":"bool","internalType":"bool"},{"name":"afterAddLiquidityReturnDelta","type":"bool","internalType":"bool"},{"name":"afterRemoveLiquidityReturnDelta","type":"bool","internalType":"bool"}]}],"stateMutability":"pure"},{"type":"function","name":"getPoolStats","inputs":[{"name":"poolId","type":"bytes32","internalType":"PoolId"}],"outputs":[{"name":"creator","type":"address","internalType":"address"},{"name":"totalRewards","type":"uint256","internalType":"uint256"},{"name":"hasCreator","type":"bool","internalType":"bool"}],"stateMutability":"view"},{"type":"function","name":"owner","inputs":[],"outputs":[{"name":"","type":"address","internalType":"address"}],"stateMutability":"view"},{"type":"function","name":"pendingRewards","inputs":[{"name":"","type":"address","internalType":"address"},{"name":"","type":"address","internalType":"Currency"}],"outputs":[{"name":"","type":"uint256","internalType":"uint256"}],"stateMutability":"view"},{"type":"function","name":"poolCreators","inputs":[{"name":"","type":"bytes32","internalType":"PoolId"}],"outputs":[{"name":"","type":"address","internalType":"address"}],"stateMutability":"view"},{"type":"function","name":"poolManager","inputs":[],"outputs":[{"name":"","type":"address","internalType":"contract IPoolManager"}],"stateMutability":"view"},{"type":"function","name":"renounceOwnership","inputs":[],"outputs":[],"stateMutability":"nonpayable"},{"type":"function","name":"rewardPercentage","inputs":[],"outputs":[{"name":"","type":"uint256","internalType":"uint256"}],"stateMutability":"view"},{"type":"function","name":"setCreatorWhitelistEnabled","inputs":[{"name":"enabled","type":"bool","internalType":"bool"}],"outputs":[],"stateMutability":"nonpayable"},{"type":"function","name":"totalRewardsDistributed","inputs":[{"name":"","type":"bytes32","internalType":"PoolId"}],"outputs":[{"name":"","type":"uint256","internalType":"uint256"}],"stateMutability":"view"},{"type":"function","name":"transferOwnership","inputs":[{"name":"newOwner","type":"address","internalType":"address"}],"outputs":[],"stateMutability":"nonpayable"},{"type":"function","name":"updateRewardPercentage","inputs":[{"name":"newPercentage","type":"uint256","internalType":"uint256"}],"outputs":[],"stateMutability":"nonpayable"},{"type":"event","name":"OwnershipTransferred","inputs":[{"name":"previousOwner","type":"address","indexed":true,"internalType":"address"},{"name":"newOwner","type":"address","indexed":true,"internalType":"address"}],"anonymous":false},{"type":"event","name":"PoolCreatorRegistered","inputs":[{"name":"poolId","type":"bytes32","indexed":true,"internalType":"PoolId"},{"name":"creator","type":"address","indexed":true,"internalType":"address"}],"anonymous":false},{"type":"event","name":"RewardAccumulated","inputs":[{"name":"poolId","type":"bytes32","indexed":true,"internalType":"PoolId"},{"name":"creator","type":"address","indexed":true,"internalType":"address"},{"name":"amount","type":"uint256","indexed":false,"internalType":"uint256"},{"name":"currency","type":"address","indexed":false,"internalType":"Currency"}],"anonymous":false},{"type":"event","name":"RewardClaimed","inputs":[{"name":"creator","type":"address","indexed":true,"internalType":"address"},{"name":"currency","type":"address","indexed":false,"internalType":"Currency"},{"name":"amount","type":"uint256","indexed":false,"internalType":"uint256"}],"anonymous":false},{"type":"event","name":"RewardPercentageUpdated","inputs":[{"name":"newPercentage","type":"uint256","indexed":false,"internalType":"uint256"}],"anonymous":false},{"type":"error","name":"OwnableInvalidOwner","inputs":[{"name":"owner","type":"address","internalType":"address"}]},{"type":"error","name":"OwnableUnauthorizedAccount","inputs":[{"name":"account","type":"address","internalType":"address"}]},{"type":"error","name":"ReentrancyGuardReentrantCall","inputs":[]}],"bytecode":{"object":"0x60a0604052600a6006556007805460ff1916905534801561001e575f80fd5b50604051611c3d380380611c3d83398101604081905261003d916100d4565b6001600160a01b03811660805260015f55338061007357604051631e4fbdf760e01b81525f600482015260240160405180910390fd5b61007c81610083565b5050610101565b600180546001600160a01b038381166001600160a01b0319831681179093556040519116919082907f8be0079c531659141344cd1fd0a4f28419497f9722a3daafe3b4186f6b6457e0905f90a35050565b5f602082840312156100e4575f80fd5b81516001600160a01b03811681146100fa575f80fd5b9392505050565b608051611b246101195f395f61076d0152611b245ff3fe6080604052600436106101f4575f3560e01c80639b707d8d11610108578063cb5b64e81161009d578063e1136e2d1161006d578063e1136e2d146107ae578063e1a45218146107cd578063e1b4af69146107e2578063ef5cfb8c14610801578063f2fde38b14610820575f80fd5b8063cb5b64e814610724578063d8625b071461073d578063dc4c90d31461075c578063dc98354e1461078f575f80fd5b8063b47b2fb1116100d8578063b47b2fb114610664578063b6a8b0fa146106a6578063c4e833ce146106c5578063c695502a146106e6575f80fd5b80639b707d8d1461058d5780639f063efc146105b85780639f82d472146105d7578063a4f209b014610645575f80fd5b8063575e24b4116101895780636ff1c9bc116101595780636ff1c9bc1461049a578063715018a6146104b957806371b6aaac146104cd57806380ac82281461053a5780638da5cb5b14610570575f80fd5b8063575e24b4146103c757806366c8e80a146104115780636c2bbe7e1461043c5780636fe7e6eb1461047b575f80fd5b80634aec7b6a116101c45780634aec7b6a14610302578063522066ca1461032157806352d472eb1461036d5780635522c56614610382575f80fd5b806321d0ee7014610263578063259982e5146102a05780632de1edd5146102bf578063307e954e146102e1575f80fd5b3661025f5760405162461bcd60e51b815260206004820152603060248201527f43726561746f7252657761726473486f6f6b3a20446972656374207472616e7360448201526f19995c9cc81b9bdd08185b1b1bddd95960821b60648201526084015b60405180910390fd5b5f80fd5b34801561026e575f80fd5b5061028261027d3660046113f5565b61083f565b6040516001600160e01b031990911681526020015b60405180910390f35b3480156102ab575f80fd5b506102826102ba3660046113f5565b610867565b3480156102ca575f80fd5b506102d3606481565b604051908152602001610297565b3480156102ec575f80fd5b506103006102fb36600461146c565b610889565b005b34801561030d575f80fd5b5061030061031c366004611492565b6108a4565b34801561032c575f80fd5b5061035561033b3660046114ad565b60026020525f90815260409020546001600160a01b031681565b6040516001600160a01b039091168152602001610297565b348015610378575f80fd5b506102d360065481565b34801561038d575f80fd5b5061030061039c3660046114c4565b6001600160a01b039283165f9081526003602090815260408083209490951682529290925291902055565b3480156103d2575f80fd5b506103e66103e1366004611512565b6108cc565b604080516001600160e01b03199094168452602084019290925262ffffff1690820152606001610297565b34801561041c575f80fd5b5061030061042b36600461156c565b5f9182526004602052604090912055565b348015610447575f80fd5b5061045b61045636600461158c565b6108fb565b604080516001600160e01b03199093168352602083019190915201610297565b348015610486575f80fd5b50610282610495366004611628565b61092b565b3480156104a5575f80fd5b506103006104b4366004611492565b610955565b3480156104c4575f80fd5b50610300610a60565b3480156104d8575f80fd5b506105136104e73660046114ad565b5f908152600260209081526040808320546004909252909120546001600160a01b039091169182151590565b604080516001600160a01b0390941684526020840192909252151590820152606001610297565b348015610545575f80fd5b506102d361055436600461167f565b600360209081525f928352604080842090915290825290205481565b34801561057b575f80fd5b506001546001600160a01b0316610355565b348015610598575f80fd5b506102d36105a73660046114ad565b60046020525f908152604090205481565b3480156105c3575f80fd5b5061045b6105d236600461158c565b610a73565b3480156105e2575f80fd5b506106286105f1366004611492565b6001600160a01b03165f81815260036020908152604080832083805282528083205493835260059091528120549192909160ff1690565b604080519384526020840192909252151590820152606001610297565b348015610650575f80fd5b5061030061065f3660046114ad565b610a97565b34801561066f575f80fd5b5061068361067e3660046116b6565b610b3b565b604080516001600160e01b03199093168352600f9190910b602083015201610297565b3480156106b1575f80fd5b506102826106c0366004611737565b610b6f565b3480156106d0575f80fd5b506106d9610b99565b6040516102979190611791565b3480156106f1575f80fd5b50610714610700366004611492565b60056020525f908152604090205460ff1681565b6040519015158152602001610297565b34801561072f575f80fd5b506007546107149060ff1681565b348015610748575f80fd5b50610300610757366004611492565b610c80565b348015610767575f80fd5b506103557f000000000000000000000000000000000000000000000000000000000000000081565b34801561079a575f80fd5b506102826107a93660046118b2565b610cab565b3480156107b9575f80fd5b506103006107c83660046118f9565b610ccd565b3480156107d8575f80fd5b506102d361271081565b3480156107ed575f80fd5b506102826107fc366004611737565b610e1d565b34801561080c575f80fd5b5061030061081b366004611492565b610e40565b34801561082b575f80fd5b5061030061083a366004611492565b611027565b5f610848610b99565b60800151610854575f80fd5b63021d0ee760e41b5b9695505050505050565b5f610870610b99565b6040015161087c575f80fd5b63259982e560e01b61085d565b610891611061565b6007805460ff1916911515919091179055565b6108ac611061565b6001600160a01b03165f908152600560205260409020805460ff19169055565b5f805f6108d7610b99565b60c001516108e3575f80fd5b506315d7892d60e21b975f9750879650945050505050565b5f80610905610b99565b60a00151610911575f80fd5b633615df3f60e11b5f5b9150915097509795505050505050565b5f610934610b99565b60200151610940575f80fd5b61094c8585858561108e565b95945050505050565b61095d611061565b5f6001600160a01b03821615610973575f610975565b475b90505f8111801561098d57506001600160a01b038216155b15610a5c575f6109a56001546001600160a01b031690565b6001600160a01b0316826040515f6040518083038185875af1925050503d805f81146109ec576040519150601f19603f3d011682016040523d82523d5f602084013e6109f1565b606091505b5050905080610a5a5760405162461bcd60e51b815260206004820152602f60248201527f43726561746f7252657761726473486f6f6b3a20456d657267656e637920776960448201526e1d1a191c985dd85b0819985a5b1959608a1b6064820152608401610256565b505b5050565b610a68611061565b610a715f611110565b565b5f80610a7d610b99565b60600151610a89575f80fd5b6327c18fbf60e21b5f61091b565b610a9f611061565b6064811115610b005760405162461bcd60e51b815260206004820152602760248201527f43726561746f7252657761726473486f6f6b3a2050657263656e7461676520746044820152660dede40d0d2ced60cb1b6064820152608401610256565b60068190556040518181527fa517688a5cc06ffb7e2ebccbfe64825a30f815fe3d3f53d103f11726b4b48ce99060200160405180910390a150565b5f80610b45610b99565b60e00151610b51575f80fd5b610b5f888888888888611161565b915091505b965096945050505050565b5f610b78610b99565b6101000151610b85575f80fd5b635b54587d60e11b5b979650505050505050565b604080516101c0810182525f80825260208201819052918101829052606081018290526080810182905260a0810182905260c0810182905260e08101829052610100810182905261012081018290526101408101829052610160810182905261018081018290526101a081019190915250604080516101c0810182525f808252600160208301819052928201819052606082018190526080820181905260a0820181905260c0820181905260e0820192909252610100810182905261012081018290526101408101829052610160810182905261018081018290526101a081019190915290565b610c88611061565b6001600160a01b03165f908152600560205260409020805460ff19166001179055565b5f610cb4610b99565b51610cbd575f80fd5b636e4c1aa760e11b949350505050565b610cd561133e565b5f5b81811015610e13575f838383818110610cf257610cf261196a565b9050602002016020810190610d079190611492565b335f9081526003602090815260408083206001600160a01b03851684529091529020549091508015610e0957335f9081526003602090815260408083206001600160a01b0386168085529252822091909155610dc4576040515f90339083908381818185875af1925050503d805f8114610d9c576040519150601f19603f3d011682016040523d82523d5f602084013e610da1565b606091505b5050905080610dc25760405162461bcd60e51b81526004016102569061197e565b505b604080516001600160a01b03841681526020810183905233917f0aa4d283470c904c551d18bb894d37e17674920f3261a7f854be501e25f421b7910160405180910390a25b5050600101610cd7565b50610a5c60015f55565b5f610e26610b99565b6101200151610e33575f80fd5b63e1b4af6960e01b610b8e565b610e4861133e565b335f9081526003602090815260408083206001600160a01b038516845290915290205480610ec85760405162461bcd60e51b815260206004820152602760248201527f43726561746f7252657761726473486f6f6b3a204e6f207265776172647320746044820152666f20636c61696d60c81b6064820152608401610256565b335f9081526003602090815260408083206001600160a01b0386168085529252822091909155610f5d576040515f90339083908381818185875af1925050503d805f8114610f31576040519150601f19603f3d011682016040523d82523d5f602084013e610f36565b606091505b5050905080610f575760405162461bcd60e51b81526004016102569061197e565b50610fd6565b60405162461bcd60e51b815260206004820152604260248201527f43726561746f7252657761726473486f6f6b3a20455243323020636c61696d6960448201527f6e67206e6f7420696d706c656d656e74656420696e207468697320766572736960648201526137b760f11b608482015260a401610256565b604080516001600160a01b03841681526020810183905233917f0aa4d283470c904c551d18bb894d37e17674920f3261a7f854be501e25f421b7910160405180910390a25061102460015f55565b50565b61102f611061565b6001600160a01b03811661105857604051631e4fbdf760e01b81525f6004820152602401610256565b61102481611110565b6001546001600160a01b03163314610a715760405163118cdaa760e01b8152336004820152602401610256565b5f806110a96110a2368790038701876119d7565b60a0902090565b5f8181526002602052604080822080546001600160a01b0319166001600160a01b038b1690811790915590519293509183917f35083ce18d4bba2d19a9cd46e375a293a328743160f26c6f5ab6986ed40dea9391a350636fe7e6eb60e01b95945050505050565b600180546001600160a01b038381166001600160a01b0319831681179093556040519116919082907f8be0079c531659141344cd1fd0a4f28419497f9722a3daafe3b4186f6b6457e0905f90a35050565b5f80806111766110a2368a90038a018a6119d7565b5f818152600260205260409020549091506001600160a01b03168015806111c2575060075460ff1680156111c257506001600160a01b0381165f9081526005602052604090205460ff16155b156111dc575063b47b2fb160e01b92505f9150610b649050565b5f6111ea60208a018a61146c565b611203576111fe60408b0160208c01611492565b611210565b61121060208b018b611492565b90505f61122060208b018b61146c565b6112365761122e89600f0b90565b600f0b611244565b6112408960801d90565b600f0b5b90505f81121561125a5761125781611a85565b90505b5f6127106006548361126c9190611a9f565b6112769190611abc565b90508015611323576001600160a01b038085165f908152600360209081526040808320938716835292905290812080548392906112b4908490611adb565b90915550505f85815260046020526040812080548392906112d6908490611adb565b9091555050604080518281526001600160a01b03858116602083015286169187917f3d5943545002a730e11b488c2e168f496b7ce865c69d2b9f38d5b3c0525d25c6910160405180910390a35b5063b47b2fb160e01b9c5f9c509a5050505050505050505050565b60025f540361136057604051633ee5aeb560e01b815260040160405180910390fd5b60025f55565b6001600160a01b0381168114611024575f80fd5b803561138581611366565b919050565b5f60a0828403121561139a575f80fd5b50919050565b5f6080828403121561139a575f80fd5b5f8083601f8401126113c0575f80fd5b50813567ffffffffffffffff8111156113d7575f80fd5b6020830191508360208285010111156113ee575f80fd5b9250929050565b5f805f805f610160868803121561140a575f80fd5b853561141581611366565b9450611424876020880161138a565b93506114338760c088016113a0565b925061014086013567ffffffffffffffff81111561144f575f80fd5b61145b888289016113b0565b969995985093965092949392505050565b5f6020828403121561147c575f80fd5b8135801515811461148b575f80fd5b9392505050565b5f602082840312156114a2575f80fd5b813561148b81611366565b5f602082840312156114bd575f80fd5b5035919050565b5f805f606084860312156114d6575f80fd5b83356114e181611366565b925060208401356114f181611366565b929592945050506040919091013590565b5f6060828403121561139a575f80fd5b5f805f805f6101408688031215611527575f80fd5b853561153281611366565b9450611541876020880161138a565b93506115508760c08801611502565b925061012086013567ffffffffffffffff81111561144f575f80fd5b5f806040838503121561157d575f80fd5b50508035926020909101359150565b5f805f805f805f6101a0888a0312156115a3575f80fd5b87356115ae81611366565b96506115bd8960208a0161138a565b95506115cc8960c08a016113a0565b94506101408801359350610160880135925061018088013567ffffffffffffffff8111156115f8575f80fd5b6116048a828b016113b0565b989b979a50959850939692959293505050565b8035600281900b8114611385575f80fd5b5f805f80610100858703121561163c575f80fd5b843561164781611366565b9350611656866020870161138a565b925060c085013561166681611366565b915061167460e08601611617565b905092959194509250565b5f8060408385031215611690575f80fd5b823561169b81611366565b915060208301356116ab81611366565b809150509250929050565b5f805f805f8061016087890312156116cc575f80fd5b86356116d781611366565b95506116e6886020890161138a565b94506116f58860c08901611502565b9350610120870135925061014087013567ffffffffffffffff811115611719575f80fd5b61172589828a016113b0565b979a9699509497509295939492505050565b5f805f805f80610120878903121561174d575f80fd5b863561175881611366565b9550611767886020890161138a565b945060c0870135935060e0870135925061010087013567ffffffffffffffff811115611719575f80fd5b8151151581526101c0810160208301516117af602084018215159052565b5060408301516117c3604084018215159052565b5060608301516117d7606084018215159052565b5060808301516117eb608084018215159052565b5060a08301516117ff60a084018215159052565b5060c083015161181360c084018215159052565b5060e083015161182760e084018215159052565b5061010083015161183d61010084018215159052565b5061012083015161185361012084018215159052565b5061014083015161186961014084018215159052565b5061016083015161187f61016084018215159052565b5061018083015161189561018084018215159052565b506101a08301516118ab6101a084018215159052565b5092915050565b5f805f60e084860312156118c4575f80fd5b83356118cf81611366565b92506118de856020860161138a565b915060c08401356118ee81611366565b809150509250925092565b5f806020838503121561190a575f80fd5b823567ffffffffffffffff811115611920575f80fd5b8301601f81018513611930575f80fd5b803567ffffffffffffffff811115611946575f80fd5b8560208260051b840101111561195a575f80fd5b6020919091019590945092505050565b634e487b7160e01b5f52603260045260245ffd5b60208082526027908201527f43726561746f7252657761726473486f6f6b3a20455448207472616e736665726040820152660819985a5b195960ca1b606082015260800190565b803562ffffff81168114611385575f80fd5b5f60a08284031280156119e8575f80fd5b5060405160a0810167ffffffffffffffff81118282101715611a1857634e487b7160e01b5f52604160045260245ffd5b604052611a248361137a565b8152611a326020840161137a565b6020820152611a43604084016119c5565b6040820152611a5460608401611617565b6060820152611a656080840161137a565b60808201529392505050565b634e487b7160e01b5f52601160045260245ffd5b5f600160ff1b8201611a9957611a99611a71565b505f0390565b8082028115828204841417611ab657611ab6611a71565b92915050565b5f82611ad657634e487b7160e01b5f52601260045260245ffd5b500490565b80820180821115611ab657611ab6611a7156fea2646970667358221220e9bc84be9f39b5cf9e250250badc57906906b73038fc32a4029d4ca792eea47964736f6c634300081a0033","linkReferences":{}},"methodIdentifiers":{"BPS_DENOMINATOR()":"e1a45218","MAX_REWARD_PERCENTAGE()":"2de1edd5","_setPendingRewards(address,address,uint256)":"5522c566","_setTotalRewardsDistributed(bytes32,uint256)":"66c8e80a","afterAddLiquidity(address,(address,address,uint24,int24,address),(int24,int24,int256,bytes32),int256,int256,bytes)":"9f063efc","afterDonate(address,(address,address,uint24,int24,address),uint256,uint256,bytes)":"e1b4af69","afterInitialize(address,(address,address,uint24,int24,address),uint160,int24)":"6fe7e6eb","afterRemoveLiquidity(address,(address,address,uint24,int24,address),(int24,int24,int256,bytes32),int256,int256,bytes)":"6c2bbe7e","afterSwap(address,(address,address,uint24,int24,address),(bool,int256,uint160),int256,bytes)":"b47b2fb1","authorizeCreator(address)":"d8625b07","authorizedCreators(address)":"c695502a","beforeAddLiquidity(address,(address,address,uint24,int24,address),(int24,int24,int256,bytes32),bytes)":"259982e5","beforeDonate(address,(address,address,uint24,int24,address),uint256,uint256,bytes)":"b6a8b0fa","beforeInitialize(address,(address,address,uint24,int24,address),uint160)":"dc98354e","beforeRemoveLiquidity(address,(address,address,uint24,int24,address),(int24,int24,int256,bytes32),bytes)":"21d0ee70","beforeSwap(address,(address,address,uint24,int24,address),(bool,int256,uint160),bytes)":"575e24b4","claimAllRewards(address[])":"e1136e2d","claimRewards(address)":"ef5cfb8c","creatorWhitelistEnabled()":"cb5b64e8","deauthorizeCreator(address)":"4aec7b6a","emergencyWithdraw(address)":"6ff1c9bc","getCreatorStats(address)":"9f82d472","getHookPermissions()":"c4e833ce","getPoolStats(bytes32)":"71b6aaac","owner()":"8da5cb5b","pendingRewards(address,address)":"80ac8228","poolCreators(bytes32)":"522066ca","poolManager()":"dc4c90d3","renounceOwnership()":"715018a6","rewardPercentage()":"52d472eb","setCreatorWhitelistEnabled(bool)":"307e954e","totalRewardsDistributed(bytes32)":"9b707d8d","transferOwnership(address)":"f2fde38b","updateRewardPercentage(uint256)":"a4f209b0"},"id":86}