{"abi":[{"type":"constructor","inputs":[],"stateMutability":"nonpayable"},{"type":"function","name":"categoryToCreator","inputs":[{"name":"","type":"string","internalType":"string"}],"outputs":[{"name":"","type":"address","internalType":"address"}],"stateMutability":"view"},{"type":"function","name":"creators","inputs":[{"name":"","type":"address","internalType":"address"}],"outputs":[{"name":"name","type":"string","internalType":"string"},{"name":"description","type":"string","internalType":"string"},{"name":"avatarUrl","type":"string","internalType":"string"},{"name":"category","type":"string","internalType":"string"},{"name":"isActive","type":"bool","internalType":"bool"},{"name":"registrationTimestamp","type":"uint256","internalType":"uint256"},{"name":"totalTipsReceived","type":"uint256","internalType":"uint256"},{"name":"totalPoolsCreated","type":"uint256","internalType":"uint256"}],"stateMutability":"view"},{"type":"function","name":"deactivateProfile","inputs":[],"outputs":[],"stateMutability":"nonpayable"},{"type":"function","name":"getCreatorByName","inputs":[{"name":"name","type":"string","internalType":"string"}],"outputs":[{"name":"creator","type":"address","internalType":"address"}],"stateMutability":"view"},{"type":"function","name":"getCreatorProfile","inputs":[{"name":"creator","type":"address","internalType":"address"}],"outputs":[{"name":"","type":"tuple","internalType":"struct CreatorRegistry.CreatorProfile","components":[{"name":"name","type":"string","internalType":"string"},{"name":"description","type":"string","internalType":"string"},{"name":"avatarUrl","type":"string","internalType":"string"},{"name":"category","type":"string","internalType":"string"},{"name":"isActive","type":"bool","internalType":"bool"},{"name":"registrationTimestamp","type":"uint256","internalType":"uint256"},{"name":"totalTipsReceived","type":"uint256","internalType":"uint256"},{"name":"totalPoolsCreated","type":"uint256","internalType":"uint256"},{"name":"socialLinks","type":"string[]","internalType":"string[]"}]}],"stateMutability":"view"},{"type":"function","name":"getCreators","inputs":[{"name":"offset","type":"uint256","internalType":"uint256"},{"name":"limit","type":"uint256","internalType":"uint256"}],"outputs":[{"name":"creatorAddresses","type":"address[]","internalType":"address[]"},{"name":"profiles","type":"tuple[]","internalType":"struct CreatorRegistry.CreatorProfile[]","components":[{"name":"name","type":"string","internalType":"string"},{"name":"description","type":"string","internalType":"string"},{"name":"avatarUrl","type":"string","internalType":"string"},{"name":"category","type":"string","internalType":"string"},{"name":"isActive","type":"bool","internalType":"bool"},{"name":"registrationTimestamp","type":"uint256","internalType":"uint256"},{"name":"totalTipsReceived","type":"uint256","internalType":"uint256"},{"name":"totalPoolsCreated","type":"uint256","internalType":"uint256"},{"name":"socialLinks","type":"string[]","internalType":"string[]"}]}],"stateMutability":"view"},{"type":"function","name":"getCreatorsByCategory","inputs":[{"name":"category","type":"string","internalType":"string"}],"outputs":[{"name":"creatorAddresses","type":"address[]","internalType":"address[]"},{"name":"profiles","type":"tuple[]","internalType":"struct CreatorRegistry.CreatorProfile[]","components":[{"name":"name","type":"string","internalType":"string"},{"name":"description","type":"string","internalType":"string"},{"name":"avatarUrl","type":"string","internalType":"string"},{"name":"category","type":"string","internalType":"string"},{"name":"isActive","type":"bool","internalType":"bool"},{"name":"registrationTimestamp","type":"uint256","internalType":"uint256"},{"name":"totalTipsReceived","type":"uint256","internalType":"uint256"},{"name":"totalPoolsCreated","type":"uint256","internalType":"uint256"},{"name":"socialLinks","type":"string[]","internalType":"string[]"}]}],"stateMutability":"view"},{"type":"function","name":"getTotalCreators","inputs":[],"outputs":[{"name":"","type":"uint256","internalType":"uint256"}],"stateMutability":"view"},{"type":"function","name":"isCreator","inputs":[{"name":"addr","type":"address","internalType":"address"}],"outputs":[{"name":"","type":"bool","internalType":"bool"}],"stateMutability":"view"},{"type":"function","name":"nameToCreator","inputs":[{"name":"","type":"string","internalType":"string"}],"outputs":[{"name":"","type":"address","internalType":"address"}],"stateMutability":"view"},{"type":"function","name":"owner","inputs":[],"outputs":[{"name":"","type":"address","internalType":"address"}],"stateMutability":"view"},{"type":"function","name":"reactivateCreator","inputs":[{"name":"creator","type":"address","internalType":"address"}],"outputs":[],"stateMutability":"nonpayable"},{"type":"function","name":"recordPoolCreated","inputs":[{"name":"creator","type":"address","internalType":"address"}],"outputs":[],"stateMutability":"nonpayable"},{"type":"function","name":"recordTipReceived","inputs":[{"name":"creator","type":"address","internalType":"address"},{"name":"amount","type":"uint256","internalType":"uint256"}],"outputs":[],"stateMutability":"nonpayable"},{"type":"function","name":"registerCreator","inputs":[{"name":"name","type":"string","internalType":"string"},{"name":"description","type":"string","internalType":"string"},{"name":"avatarUrl","type":"string","internalType":"string"},{"name":"category","type":"string","internalType":"string"},{"name":"socialLinks","type":"string[]","internalType":"string[]"}],"outputs":[],"stateMutability":"payable"},{"type":"function","name":"registeredCreators","inputs":[{"name":"","type":"uint256","internalType":"uint256"}],"outputs":[{"name":"","type":"address","internalType":"address"}],"stateMutability":"view"},{"type":"function","name":"registrationFee","inputs":[],"outputs":[{"name":"","type":"uint256","internalType":"uint256"}],"stateMutability":"view"},{"type":"function","name":"renounceOwnership","inputs":[],"outputs":[],"stateMutability":"nonpayable"},{"type":"function","name":"setRegistrationFee","inputs":[{"name":"newFee","type":"uint256","internalType":"uint256"}],"outputs":[],"stateMutability":"nonpayable"},{"type":"function","name":"totalCreators","inputs":[],"outputs":[{"name":"","type":"uint256","internalType":"uint256"}],"stateMutability":"view"},{"type":"function","name":"transferOwnership","inputs":[{"name":"newOwner","type":"address","internalType":"address"}],"outputs":[],"stateMutability":"nonpayable"},{"type":"function","name":"updateProfile","inputs":[{"name":"name","type":"string","internalType":"string"},{"name":"description","type":"string","internalType":"string"},{"name":"avatarUrl","type":"string","internalType":"string"},{"name":"category","type":"string","internalType":"string"},{"name":"socialLinks","type":"string[]","internalType":"string[]"}],"outputs":[],"stateMutability":"nonpayable"},{"type":"function","name":"withdrawFees","inputs":[],"outputs":[],"stateMutability":"nonpayable"},{"type":"event","name":"CreatorDeactivated","inputs":[{"name":"creator","type":"address","indexed":true,"internalType":"address"}],"anonymous":false},{"type":"event","name":"CreatorProfileUpdated","inputs":[{"name":"creator","type":"address","indexed":true,"internalType":"address"},{"name":"name","type":"string","indexed":false,"internalType":"string"}],"anonymous":false},{"type":"event","name":"CreatorReactivated","inputs":[{"name":"creator","type":"address","indexed":true,"internalType":"address"}],"anonymous":false},{"type":"event","name":"CreatorRegistered","inputs":[{"name":"creator","type":"address","indexed":true,"internalType":"address"},{"name":"name","type":"string","indexed":false,"internalType":"string"}],"anonymous":false},{"type":"event","name":"OwnershipTransferred","inputs":[{"name":"previousOwner","type":"address","indexed":true,"internalType":"address"},{"name":"newOwner","type":"address","indexed":true,"internalType":"address"}],"anonymous":false},{"type":"event","name":"TipReceived","inputs":[{"name":"creator","type":"address","indexed":true,"internalType":"address"},{"name":"amount","type":"uint256","indexed":false,"internalType":"uint256"},{"name":"timestamp","type":"uint256","indexed":false,"internalType":"uint256"}],"anonymous":false},{"type":"error","name":"OwnableInvalidOwner","inputs":[{"name":"owner","type":"address","internalType":"address"}]},{"type":"error","name":"OwnableUnauthorizedAccount","inputs":[{"name":"account","type":"address","internalType":"address"}]},{"type":"error","name":"ReentrancyGuardReentrantCall","inputs":[]}],"bytecode":{"object":"0x60806040525f6007553480156012575f80fd5b5060015f553380603b57604051631e4fbdf760e01b81525f600482015260240160405180910390fd5b6042816047565b506098565b600180546001600160a01b038381166001600160a01b0319831681179093556040519116919082907f8be0079c531659141344cd1fd0a4f28419497f9722a3daafe3b4186f6b6457e0905f90a35050565b61296f806100a55f395ff3fe60806040526004361061013c575f3560e01c80636dbe5552116100b3578063aec23cde1161006d578063aec23cde1461039f578063ba180040146103be578063c320c727146103dd578063ec055e10146103fc578063efd460651461041b578063f2fde38b14610465575f80fd5b80636dbe5552146102d1578063715018a6146102f05780638da5cb5b14610304578063933166e1146103215780639e39e58d14610354578063a46e470c14610380575f80fd5b80632b1e2e1c116101045780632b1e2e1c146101e957806331e8e39d146102295780633607df5f1461023d578063476343ee1461027d5780634a771764146102915780635ac8d444146102a4575f80fd5b80630aed6660146101405780630f110d0d1461017c57806311c0036c1461019d57806314c44e09146101c057806320a17bca146101d5575b5f80fd5b34801561014b575f80fd5b5061015f61015a36600461215c565b610484565b6040516001600160a01b0390911681526020015b60405180910390f35b348015610187575f80fd5b5061019b610196366004612237565b6104b4565b005b3480156101a8575f80fd5b506101b260065481565b604051908152602001610173565b3480156101cb575f80fd5b506101b260075481565b3480156101e0575f80fd5b5061019b610723565b3480156101f4575f80fd5b5061015f61020336600461215c565b80516020818301810180516004825292820191909301209152546001600160a01b031681565b348015610234575f80fd5b506006546101b2565b348015610248575f80fd5b5061015f61025736600461215c565b80516020818301810180516003825292820191909301209152546001600160a01b031681565b348015610288575f80fd5b5061019b610795565b61019b61029f366004612237565b6108b6565b3480156102af575f80fd5b506102c36102be366004612315565b610c15565b604051610173929190612477565b3480156102dc575f80fd5b5061019b6102eb36600461253b565b611159565b3480156102fb575f80fd5b5061019b61121a565b34801561030f575f80fd5b506001546001600160a01b031661015f565b34801561032c575f80fd5b5061034061033b36600461253b565b61122d565b60405161017398979695949392919061255b565b34801561035f575f80fd5b5061037361036e36600461253b565b611489565b60405161017391906125d1565b34801561038b575f80fd5b5061019b61039a3660046125e3565b611805565b3480156103aa575f80fd5b506102c36103b936600461215c565b6118b5565b3480156103c9575f80fd5b5061015f6103d836600461260b565b611e2d565b3480156103e8575f80fd5b5061019b6103f736600461260b565b611e55565b348015610407575f80fd5b5061019b61041636600461253b565b611e62565b348015610426575f80fd5b5061045561043536600461253b565b6001600160a01b03165f9081526002602052604090206004015460ff1690565b6040519015158152602001610173565b348015610470575f80fd5b5061019b61047f36600461253b565b611eca565b5f6003826040516104959190612622565b908152604051908190036020019020546001600160a01b031692915050565b335f9081526002602052604090206004015460ff166104ee5760405162461bcd60e51b81526004016104e590612638565b60405180910390fd5b845f815111801561050157506032815111155b6105595760405162461bcd60e51b8152602060048201526024808201527f43726561746f7252656769737472793a20496e76616c6964206e616d65206c656044820152630dccee8d60e31b60648201526084016104e5565b5f6001600160a01b03166003826040516105739190612622565b908152604051908190036020019020546001600160a01b031614806105c85750336001600160a01b03166003826040516105ad9190612622565b908152604051908190036020019020546001600160a01b0316145b6105e45760405162461bcd60e51b81526004016104e590612681565b335f90815260026020908152604091829020885191890191909120915190919061060f90839061276a565b60405180910390201461068a5760405160039061062d90839061276a565b90815260405190819003602001812080546001600160a01b0319169055339060039061065a908a90612622565b90815260405190819003602001902080546001600160a01b03929092166001600160a01b03199092169190911790555b8061069588826127be565b50600181016106a487826127be565b50600281016106b386826127be565b50600381016106c285826127be565b5082516106d89060088301906020860190611fad565b50336001600160a01b03167fb07b7c8b0281bfa225d936eb4b081f263727dcaa3a2160038b8a947d75df5cb2886040516107129190612878565b60405180910390a250505050505050565b335f9081526002602052604090206004015460ff166107545760405162461bcd60e51b81526004016104e590612638565b335f81815260026020526040808220600401805460ff19169055517ff27995cec6a287413cc0e2d3975bf820bbec7d52356521ceab8ec946db134ea19190a2565b61079d611f07565b47806107f75760405162461bcd60e51b8152602060048201526024808201527f43726561746f7252656769737472793a204e6f206665657320746f20776974686044820152636472617760e01b60648201526084016104e5565b5f61080a6001546001600160a01b031690565b6001600160a01b0316826040515f6040518083038185875af1925050503d805f8114610851576040519150601f19603f3d011682016040523d82523d5f602084013e610856565b606091505b50509050806108b25760405162461bcd60e51b815260206004820152602260248201527f43726561746f7252656769737472793a205769746864726177616c206661696c604482015261195960f21b60648201526084016104e5565b5050565b6108be611f34565b335f9081526002602052604090206004015460ff161561092c5760405162461bcd60e51b815260206004820152602360248201527f43726561746f7252656769737472793a20416c726561647920726567697374656044820152621c995960ea1b60648201526084016104e5565b6007543410156109955760405162461bcd60e51b815260206004820152602e60248201527f43726561746f7252656769737472793a20496e73756666696369656e7420726560448201526d67697374726174696f6e2066656560901b60648201526084016104e5565b5f85511180156109a757506032855111155b6109f35760405162461bcd60e51b815260206004820152601d60248201527f43726561746f7252656769737472793a20496e76616c6964206e616d6500000060448201526064016104e5565b5f6001600160a01b0316600386604051610a0d9190612622565b908152604051908190036020019020546001600160a01b031614610a435760405162461bcd60e51b81526004016104e590612681565b6040805161012081018252868152602080820187905281830186905260608201859052600160808301524260a08301525f60c0830181905260e08301819052610100830185905233815260029091529190912081518190610aa490826127be565b5060208201516001820190610ab990826127be565b5060408201516002820190610ace90826127be565b5060608201516003820190610ae390826127be565b50608082015160048201805460ff191691151591909117905560a0820151600582015560c0820151600682015560e082015160078201556101008201518051610b36916008840191602090910190611fad565b5090505033600386604051610b4b9190612622565b90815260405190819003602001902080546001600160a01b03929092166001600160a01b0319928316179055600580546001810182555f9182527f036b6384b5eca791c62761152d0c79bb0604c104a5fb6f4eb0703f3154bb3db001805490921633179091556006805491610bbf8361289e565b9190505550336001600160a01b03167f436a110767b6510e398091d7e698dbc3a574692ec743e8e40f4fb1ccefc00fc886604051610bfd9190612878565b60405180910390a2610c0e60015f55565b5050505050565b6060806006548410610c775760405162461bcd60e51b815260206004820152602560248201527f43726561746f7252656769737472793a204f6666736574206f7574206f6620626044820152646f756e647360d81b60648201526084016104e5565b5f610c8284866128b6565b9050600654811115610c9357506006545b5f610c9e86836128cf565b9050806001600160401b03811115610cb857610cb86120ad565b604051908082528060200260200182016040528015610ce1578160200160208202803683370190505b509350806001600160401b03811115610cfc57610cfc6120ad565b604051908082528060200260200182016040528015610d3557816020015b610d22612001565b815260200190600190039081610d1a5790505b5092505f5b8181101561114f575f6005610d4f838a6128b6565b81548110610d5f57610d5f6128e2565b905f5260205f20015f9054906101000a90046001600160a01b0316905080868381518110610d8f57610d8f6128e2565b60200260200101906001600160a01b031690816001600160a01b03168152505060025f826001600160a01b03166001600160a01b031681526020019081526020015f20604051806101200160405290815f82018054610ded906126c4565b80601f0160208091040260200160405190810160405280929190818152602001828054610e19906126c4565b8015610e645780601f10610e3b57610100808354040283529160200191610e64565b820191905f5260205f20905b815481529060010190602001808311610e4757829003601f168201915b50505050508152602001600182018054610e7d906126c4565b80601f0160208091040260200160405190810160405280929190818152602001828054610ea9906126c4565b8015610ef45780601f10610ecb57610100808354040283529160200191610ef4565b820191905f5260205f20905b815481529060010190602001808311610ed757829003601f168201915b50505050508152602001600282018054610f0d906126c4565b80601f0160208091040260200160405190810160405280929190818152602001828054610f39906126c4565b8015610f845780601f10610f5b57610100808354040283529160200191610f84565b820191905f5260205f20905b815481529060010190602001808311610f6757829003601f168201915b50505050508152602001600382018054610f9d906126c4565b80601f0160208091040260200160405190810160405280929190818152602001828054610fc9906126c4565b80156110145780601f10610feb57610100808354040283529160200191611014565b820191905f5260205f20905b815481529060010190602001808311610ff757829003601f168201915b50505050508152602001600482015f9054906101000a900460ff1615151515815260200160058201548152602001600682015481526020016007820154815260200160088201805480602002602001604051908101604052809291908181526020015f905b82821015611121578382905f5260205f20018054611096906126c4565b80601f01602080910402602001604051908101604052809291908181526020018280546110c2906126c4565b801561110d5780601f106110e45761010080835404028352916020019161110d565b820191905f5260205f20905b8154815290600101906020018083116110f057829003601f168201915b505050505081526020019060010190611079565b505050508152505085838151811061113b5761113b6128e2565b602090810291909101015250600101610d3a565b5050509250929050565b611161611f07565b6001600160a01b0381165f9081526002602052604090206004015460ff16156111cc5760405162461bcd60e51b815260206004820152601f60248201527f43726561746f7252656769737472793a20416c7265616479206163746976650060448201526064016104e5565b6001600160a01b0381165f81815260026020526040808220600401805460ff19166001179055517fc8cb7058da7e5a1bcebcc263fe4475e81ccaa776f6b33cacee018320d49361849190a250565b611222611f07565b61122b5f611f5c565b565b60026020525f9081526040902080548190611247906126c4565b80601f0160208091040260200160405190810160405280929190818152602001828054611273906126c4565b80156112be5780601f10611295576101008083540402835291602001916112be565b820191905f5260205f20905b8154815290600101906020018083116112a157829003601f168201915b5050505050908060010180546112d3906126c4565b80601f01602080910402602001604051908101604052809291908181526020018280546112ff906126c4565b801561134a5780601f106113215761010080835404028352916020019161134a565b820191905f5260205f20905b81548152906001019060200180831161132d57829003601f168201915b50505050509080600201805461135f906126c4565b80601f016020809104026020016040519081016040528092919081815260200182805461138b906126c4565b80156113d65780601f106113ad576101008083540402835291602001916113d6565b820191905f5260205f20905b8154815290600101906020018083116113b957829003601f168201915b5050505050908060030180546113eb906126c4565b80601f0160208091040260200160405190810160405280929190818152602001828054611417906126c4565b80156114625780601f1061143957610100808354040283529160200191611462565b820191905f5260205f20905b81548152906001019060200180831161144557829003601f168201915b50505050600483015460058401546006850154600790950154939460ff9092169390925088565b611491612001565b6001600160a01b0382165f9081526002602052604090819020815161012081019092528054829082906114c3906126c4565b80601f01602080910402602001604051908101604052809291908181526020018280546114ef906126c4565b801561153a5780601f106115115761010080835404028352916020019161153a565b820191905f5260205f20905b81548152906001019060200180831161151d57829003601f168201915b50505050508152602001600182018054611553906126c4565b80601f016020809104026020016040519081016040528092919081815260200182805461157f906126c4565b80156115ca5780601f106115a1576101008083540402835291602001916115ca565b820191905f5260205f20905b8154815290600101906020018083116115ad57829003601f168201915b505050505081526020016002820180546115e3906126c4565b80601f016020809104026020016040519081016040528092919081815260200182805461160f906126c4565b801561165a5780601f106116315761010080835404028352916020019161165a565b820191905f5260205f20905b81548152906001019060200180831161163d57829003601f168201915b50505050508152602001600382018054611673906126c4565b80601f016020809104026020016040519081016040528092919081815260200182805461169f906126c4565b80156116ea5780601f106116c1576101008083540402835291602001916116ea565b820191905f5260205f20905b8154815290600101906020018083116116cd57829003601f168201915b50505050508152602001600482015f9054906101000a900460ff1615151515815260200160058201548152602001600682015481526020016007820154815260200160088201805480602002602001604051908101604052809291908181526020015f905b828210156117f7578382905f5260205f2001805461176c906126c4565b80601f0160208091040260200160405190810160405280929190818152602001828054611798906126c4565b80156117e35780601f106117ba576101008083540402835291602001916117e3565b820191905f5260205f20905b8154815290600101906020018083116117c657829003601f168201915b50505050508152602001906001019061174f565b505050915250909392505050565b6001600160a01b0382165f9081526002602052604090206004015460ff1661183f5760405162461bcd60e51b81526004016104e5906128f6565b6001600160a01b0382165f90815260026020526040812060060180548392906118699084906128b6565b9091555050604080518281524260208201526001600160a01b038416917f0c8883551f91e2ad37ae4c2a10d6e17258f93e629cb32666a8d1c46433c24ac2910160405180910390a25050565b6060805f805b60065481101561193b57848051906020012060025f600584815481106118e3576118e36128e2565b5f9182526020808320909101546001600160a01b0316835282019290925260409081019091209051611918916003019061276a565b604051809103902003611933578161192f8161289e565b9250505b6001016118bb565b50806001600160401b03811115611954576119546120ad565b60405190808252806020026020018201604052801561197d578160200160208202803683370190505b509250806001600160401b03811115611998576119986120ad565b6040519080825280602002602001820160405280156119d157816020015b6119be612001565b8152602001906001900390816119b65790505b5091505f805b600654811015611e25575f600582815481106119f5576119f56128e2565b5f91825260208083209091015489518a8301206001600160a01b039091168084526002909252604092839020925191935091611a369160039091019061276a565b604051809103902003611e1c5780868481518110611a5657611a566128e2565b60200260200101906001600160a01b031690816001600160a01b03168152505060025f826001600160a01b03166001600160a01b031681526020019081526020015f20604051806101200160405290815f82018054611ab4906126c4565b80601f0160208091040260200160405190810160405280929190818152602001828054611ae0906126c4565b8015611b2b5780601f10611b0257610100808354040283529160200191611b2b565b820191905f5260205f20905b815481529060010190602001808311611b0e57829003601f168201915b50505050508152602001600182018054611b44906126c4565b80601f0160208091040260200160405190810160405280929190818152602001828054611b70906126c4565b8015611bbb5780601f10611b9257610100808354040283529160200191611bbb565b820191905f5260205f20905b815481529060010190602001808311611b9e57829003601f168201915b50505050508152602001600282018054611bd4906126c4565b80601f0160208091040260200160405190810160405280929190818152602001828054611c00906126c4565b8015611c4b5780601f10611c2257610100808354040283529160200191611c4b565b820191905f5260205f20905b815481529060010190602001808311611c2e57829003601f168201915b50505050508152602001600382018054611c64906126c4565b80601f0160208091040260200160405190810160405280929190818152602001828054611c90906126c4565b8015611cdb5780601f10611cb257610100808354040283529160200191611cdb565b820191905f5260205f20905b815481529060010190602001808311611cbe57829003601f168201915b50505050508152602001600482015f9054906101000a900460ff1615151515815260200160058201548152602001600682015481526020016007820154815260200160088201805480602002602001604051908101604052809291908181526020015f905b82821015611de8578382905f5260205f20018054611d5d906126c4565b80601f0160208091040260200160405190810160405280929190818152602001828054611d89906126c4565b8015611dd45780601f10611dab57610100808354040283529160200191611dd4565b820191905f5260205f20905b815481529060010190602001808311611db757829003601f168201915b505050505081526020019060010190611d40565b5050505081525050858481518110611e0257611e026128e2565b60200260200101819052508280611e189061289e565b9350505b506001016119d7565b505050915091565b60058181548110611e3c575f80fd5b5f918252602090912001546001600160a01b0316905081565b611e5d611f07565b600755565b6001600160a01b0381165f9081526002602052604090206004015460ff16611e9c5760405162461bcd60e51b81526004016104e5906128f6565b6001600160a01b0381165f908152600260205260408120600701805491611ec28361289e565b919050555050565b611ed2611f07565b6001600160a01b038116611efb57604051631e4fbdf760e01b81525f60048201526024016104e5565b611f0481611f5c565b50565b6001546001600160a01b0316331461122b5760405163118cdaa760e01b81523360048201526024016104e5565b60025f5403611f5657604051633ee5aeb560e01b815260040160405180910390fd5b60025f55565b600180546001600160a01b038381166001600160a01b0319831681179093556040519116919082907f8be0079c531659141344cd1fd0a4f28419497f9722a3daafe3b4186f6b6457e0905f90a35050565b828054828255905f5260205f20908101928215611ff1579160200282015b82811115611ff15782518290611fe190826127be565b5091602001919060010190611fcb565b50611ffd92915061204b565b5090565b604051806101200160405280606081526020016060815260200160608152602001606081526020015f151581526020015f81526020015f81526020015f8152602001606081525090565b80821115611ffd575f61205e8282612067565b5060010161204b565b508054612073906126c4565b5f825580601f10612082575050565b601f0160209004905f5260205f2090810190611f0491905b80821115611ffd575f815560010161209a565b634e487b7160e01b5f52604160045260245ffd5b604051601f8201601f191681016001600160401b03811182821017156120e9576120e96120ad565b604052919050565b5f82601f830112612100575f80fd5b81356001600160401b03811115612119576121196120ad565b61212c601f8201601f19166020016120c1565b818152846020838601011115612140575f80fd5b816020850160208301375f918101602001919091529392505050565b5f6020828403121561216c575f80fd5b81356001600160401b03811115612181575f80fd5b61218d848285016120f1565b949350505050565b5f82601f8301126121a4575f80fd5b81356001600160401b038111156121bd576121bd6120ad565b8060051b6121cd602082016120c1565b918252602081850181019290810190868411156121e8575f80fd5b6020860192505b8383101561222d5782356001600160401b0381111561220c575f80fd5b61221b886020838a01016120f1565b835250602092830192909101906121ef565b9695505050505050565b5f805f805f60a0868803121561224b575f80fd5b85356001600160401b03811115612260575f80fd5b61226c888289016120f1565b95505060208601356001600160401b03811115612287575f80fd5b612293888289016120f1565b94505060408601356001600160401b038111156122ae575f80fd5b6122ba888289016120f1565b93505060608601356001600160401b038111156122d5575f80fd5b6122e1888289016120f1565b92505060808601356001600160401b038111156122fc575f80fd5b61230888828901612195565b9150509295509295909350565b5f8060408385031215612326575f80fd5b50508035926020909101359150565b5f81518084528060208401602086015e5f602082860101526020601f19601f83011685010191505092915050565b5f82825180855260208501945060208160051b830101602085015f5b838110156123b157601f1985840301885261239b838351612335565b602098890198909350919091019060010161237f565b50909695505050505050565b5f815161012084526123d3610120850182612335565b9050602083015184820360208601526123ec8282612335565b915050604083015184820360408601526124068282612335565b915050606083015184820360608601526124208282612335565b9150506080830151612436608086018215159052565b5060a083015160a085015260c083015160c085015260e083015160e085015261010083015184820361010086015261246e8282612363565b95945050505050565b604080825283519082018190525f9060208501906060840190835b818110156124b95783516001600160a01b0316835260209384019390920191600101612492565b50508381036020850152809150845180825260208201925060208160051b830101602087015f5b8381101561251257601f198584030186526124fc8383516123bd565b60209687019690935091909101906001016124e0565b509098975050505050505050565b80356001600160a01b0381168114612536575f80fd5b919050565b5f6020828403121561254b575f80fd5b61255482612520565b9392505050565b61010081525f61256f61010083018b612335565b8281036020840152612581818b612335565b90508281036040840152612595818a612335565b905082810360608401526125a98189612335565b9615156080840152505060a081019390935260c083019190915260e090910152949350505050565b602081525f61255460208301846123bd565b5f80604083850312156125f4575f80fd5b6125fd83612520565b946020939093013593505050565b5f6020828403121561261b575f80fd5b5035919050565b5f82518060208501845e5f920191825250919050565b60208082526029908201527f43726561746f7252656769737472793a204e6f74206120726567697374657265604082015268321031b932b0ba37b960b91b606082015260800190565b60208082526023908201527f43726561746f7252656769737472793a204e616d6520616c726561647920746160408201526235b2b760e91b606082015260800190565b600181811c908216806126d857607f821691505b6020821081036126f657634e487b7160e01b5f52602260045260245ffd5b50919050565b5f8154612708816126c4565b60018216801561271f576001811461273457612761565b60ff1983168652811515820286019350612761565b845f5260205f205f5b838110156127595781548882015260019091019060200161273d565b505081860193505b50505092915050565b5f61255482846126fc565b601f8211156127b957805f5260205f20601f840160051c8101602085101561279a5750805b601f840160051c820191505b81811015610c0e575f81556001016127a6565b505050565b81516001600160401b038111156127d7576127d76120ad565b6127eb816127e584546126c4565b84612775565b6020601f82116001811461281d575f83156128065750848201515b5f19600385901b1c1916600184901b178455610c0e565b5f84815260208120601f198516915b8281101561284c578785015182556020948501946001909201910161282c565b508482101561286957868401515f19600387901b60f8161c191681555b50505050600190811b01905550565b602081525f6125546020830184612335565b634e487b7160e01b5f52601160045260245ffd5b5f600182016128af576128af61288a565b5060010190565b808201808211156128c9576128c961288a565b92915050565b818103818111156128c9576128c961288a565b634e487b7160e01b5f52603260045260245ffd5b60208082526023908201527f43726561746f7252656769737472793a2043726561746f72206e6f742061637460408201526269766560e81b60608201526080019056fea2646970667358221220a5b338cccef9c7c70e526c3e33c5c58305397c52150c022b13063c797002a50264736f6c634300081a0033","linkReferences":{}},"methodIdentifiers":{"categoryToCreator(string)":"2b1e2e1c","creators(address)":"933166e1","deactivateProfile()":"20a17bca","getCreatorByName(string)":"0aed6660","getCreatorProfile(address)":"9e39e58d","getCreators(uint256,uint256)":"5ac8d444","getCreatorsByCategory(string)":"aec23cde","getTotalCreators()":"31e8e39d","isCreator(address)":"efd46065","nameToCreator(string)":"3607df5f","owner()":"8da5cb5b","reactivateCreator(address)":"6dbe5552","recordPoolCreated(address)":"ec055e10","recordTipReceived(address,uint256)":"a46e470c","registerCreator(string,string,string,string,string[])":"4a771764","registeredCreators(uint256)":"ba180040","registrationFee()":"14c44e09","renounceOwnership()":"715018a6","setRegistrationFee(uint256)":"c320c727","totalCreators()":"11c0036c","transferOwnership(address)":"f2fde38b","updateProfile(string,string,string,string,string[])":"0f110d0d","withdrawFees()":"476343ee"},"id":83}