{"abi":[{"type":"constructor","inputs":[{"name":"_governanceToken","type":"address","internalType":"address"}],"stateMutability":"nonpayable"},{"type":"receive","stateMutability":"payable"},{"type":"function","name":"authorizeVoter","inputs":[{"name":"voter","type":"address","internalType":"address"}],"outputs":[],"stateMutability":"nonpayable"},{"type":"function","name":"authorizedVoters","inputs":[{"name":"","type":"address","internalType":"address"}],"outputs":[{"name":"","type":"bool","internalType":"bool"}],"stateMutability":"view"},{"type":"function","name":"batchUpdateVotingPower","inputs":[{"name":"voters","type":"address[]","internalType":"address[]"}],"outputs":[],"stateMutability":"nonpayable"},{"type":"function","name":"cancel","inputs":[{"name":"proposalId","type":"uint256","internalType":"uint256"}],"outputs":[],"stateMutability":"nonpayable"},{"type":"function","name":"deauthorizeVoter","inputs":[{"name":"voter","type":"address","internalType":"address"}],"outputs":[],"stateMutability":"nonpayable"},{"type":"function","name":"emergencyPause","inputs":[],"outputs":[],"stateMutability":"nonpayable"},{"type":"function","name":"execute","inputs":[{"name":"proposalId","type":"uint256","internalType":"uint256"}],"outputs":[],"stateMutability":"nonpayable"},{"type":"function","name":"executionDelay","inputs":[],"outputs":[{"name":"","type":"uint256","internalType":"uint256"}],"stateMutability":"view"},{"type":"function","name":"getGovernanceStats","inputs":[],"outputs":[{"name":"totalProposals","type":"uint256","internalType":"uint256"},{"name":"activeProposals","type":"uint256","internalType":"uint256"},{"name":"executedProposals","type":"uint256","internalType":"uint256"},{"name":"totalVotingPower","type":"uint256","internalType":"uint256"}],"stateMutability":"view"},{"type":"function","name":"getProposal","inputs":[{"name":"proposalId","type":"uint256","internalType":"uint256"}],"outputs":[{"name":"","type":"tuple","internalType":"struct GovernanceSystem.Proposal","components":[{"name":"id","type":"uint256","internalType":"uint256"},{"name":"proposer","type":"address","internalType":"address"},{"name":"title","type":"string","internalType":"string"},{"name":"description","type":"string","internalType":"string"},{"name":"startTime","type":"uint256","internalType":"uint256"},{"name":"endTime","type":"uint256","internalType":"uint256"},{"name":"forVotes","type":"uint256","internalType":"uint256"},{"name":"againstVotes","type":"uint256","internalType":"uint256"},{"name":"executed","type":"bool","internalType":"bool"},{"name":"cancelled","type":"bool","internalType":"bool"},{"name":"targets","type":"address[]","internalType":"address[]"},{"name":"values","type":"uint256[]","internalType":"uint256[]"},{"name":"calldatas","type":"bytes[]","internalType":"bytes[]"}]}],"stateMutability":"view"},{"type":"function","name":"getProposalResults","inputs":[{"name":"proposalId","type":"uint256","internalType":"uint256"}],"outputs":[{"name":"forVotes","type":"uint256","internalType":"uint256"},{"name":"againstVotes","type":"uint256","internalType":"uint256"},{"name":"meetsQuorumThreshold","type":"bool","internalType":"bool"},{"name":"passed","type":"bool","internalType":"bool"}],"stateMutability":"view"},{"type":"function","name":"getProposalState","inputs":[{"name":"proposalId","type":"uint256","internalType":"uint256"}],"outputs":[{"name":"","type":"uint8","internalType":"enum GovernanceSystem.ProposalState"}],"stateMutability":"view"},{"type":"function","name":"getVote","inputs":[{"name":"proposalId","type":"uint256","internalType":"uint256"},{"name":"voter","type":"address","internalType":"address"}],"outputs":[{"name":"","type":"tuple","internalType":"struct GovernanceSystem.Vote","components":[{"name":"hasVoted","type":"bool","internalType":"bool"},{"name":"support","type":"bool","internalType":"bool"},{"name":"weight","type":"uint256","internalType":"uint256"}]}],"stateMutability":"view"},{"type":"function","name":"governanceEnabled","inputs":[],"outputs":[{"name":"","type":"bool","internalType":"bool"}],"stateMutability":"view"},{"type":"function","name":"governanceToken","inputs":[],"outputs":[{"name":"","type":"address","internalType":"contract IERC20"}],"stateMutability":"view"},{"type":"function","name":"meetsQuorum","inputs":[{"name":"proposalId","type":"uint256","internalType":"uint256"}],"outputs":[{"name":"","type":"bool","internalType":"bool"}],"stateMutability":"view"},{"type":"function","name":"owner","inputs":[],"outputs":[{"name":"","type":"address","internalType":"address"}],"stateMutability":"view"},{"type":"function","name":"proposalCount","inputs":[],"outputs":[{"name":"","type":"uint256","internalType":"uint256"}],"stateMutability":"view"},{"type":"function","name":"proposalThreshold","inputs":[],"outputs":[{"name":"","type":"uint256","internalType":"uint256"}],"stateMutability":"view"},{"type":"function","name":"proposals","inputs":[{"name":"","type":"uint256","internalType":"uint256"}],"outputs":[{"name":"id","type":"uint256","internalType":"uint256"},{"name":"proposer","type":"address","internalType":"address"},{"name":"title","type":"string","internalType":"string"},{"name":"description","type":"string","internalType":"string"},{"name":"startTime","type":"uint256","internalType":"uint256"},{"name":"endTime","type":"uint256","internalType":"uint256"},{"name":"forVotes","type":"uint256","internalType":"uint256"},{"name":"againstVotes","type":"uint256","internalType":"uint256"},{"name":"executed","type":"bool","internalType":"bool"},{"name":"cancelled","type":"bool","internalType":"bool"}],"stateMutability":"view"},{"type":"function","name":"propose","inputs":[{"name":"title","type":"string","internalType":"string"},{"name":"description","type":"string","internalType":"string"},{"name":"targets","type":"address[]","internalType":"address[]"},{"name":"values","type":"uint256[]","internalType":"uint256[]"},{"name":"calldatas","type":"bytes[]","internalType":"bytes[]"}],"outputs":[{"name":"","type":"uint256","internalType":"uint256"}],"stateMutability":"nonpayable"},{"type":"function","name":"quorum","inputs":[],"outputs":[{"name":"","type":"uint256","internalType":"uint256"}],"stateMutability":"view"},{"type":"function","name":"renounceOwnership","inputs":[],"outputs":[],"stateMutability":"nonpayable"},{"type":"function","name":"setExecutionDelay","inputs":[{"name":"newDelay","type":"uint256","internalType":"uint256"}],"outputs":[],"stateMutability":"nonpayable"},{"type":"function","name":"setGovernanceEnabled","inputs":[{"name":"enabled","type":"bool","internalType":"bool"}],"outputs":[],"stateMutability":"nonpayable"},{"type":"function","name":"setProposalThreshold","inputs":[{"name":"newThreshold","type":"uint256","internalType":"uint256"}],"outputs":[],"stateMutability":"nonpayable"},{"type":"function","name":"setQuorum","inputs":[{"name":"newQuorum","type":"uint256","internalType":"uint256"}],"outputs":[],"stateMutability":"nonpayable"},{"type":"function","name":"setVotingPeriod","inputs":[{"name":"newVotingPeriod","type":"uint256","internalType":"uint256"}],"outputs":[],"stateMutability":"nonpayable"},{"type":"function","name":"transferOwnership","inputs":[{"name":"newOwner","type":"address","internalType":"address"}],"outputs":[],"stateMutability":"nonpayable"},{"type":"function","name":"updateVotingPower","inputs":[{"name":"voter","type":"address","internalType":"address"}],"outputs":[],"stateMutability":"nonpayable"},{"type":"function","name":"vote","inputs":[{"name":"proposalId","type":"uint256","internalType":"uint256"},{"name":"support","type":"bool","internalType":"bool"}],"outputs":[],"stateMutability":"nonpayable"},{"type":"function","name":"votes","inputs":[{"name":"","type":"uint256","internalType":"uint256"},{"name":"","type":"address","internalType":"address"}],"outputs":[{"name":"hasVoted","type":"bool","internalType":"bool"},{"name":"support","type":"bool","internalType":"bool"},{"name":"weight","type":"uint256","internalType":"uint256"}],"stateMutability":"view"},{"type":"function","name":"votingPeriod","inputs":[],"outputs":[{"name":"","type":"uint256","internalType":"uint256"}],"stateMutability":"view"},{"type":"function","name":"votingPower","inputs":[{"name":"","type":"address","internalType":"address"}],"outputs":[{"name":"","type":"uint256","internalType":"uint256"}],"stateMutability":"view"},{"type":"event","name":"OwnershipTransferred","inputs":[{"name":"previousOwner","type":"address","indexed":true,"internalType":"address"},{"name":"newOwner","type":"address","indexed":true,"internalType":"address"}],"anonymous":false},{"type":"event","name":"ProposalCancelled","inputs":[{"name":"proposalId","type":"uint256","indexed":true,"internalType":"uint256"}],"anonymous":false},{"type":"event","name":"ProposalCreated","inputs":[{"name":"proposalId","type":"uint256","indexed":true,"internalType":"uint256"},{"name":"proposer","type":"address","indexed":true,"internalType":"address"},{"name":"title","type":"string","indexed":false,"internalType":"string"},{"name":"endTime","type":"uint256","indexed":false,"internalType":"uint256"}],"anonymous":false},{"type":"event","name":"ProposalExecuted","inputs":[{"name":"proposalId","type":"uint256","indexed":true,"internalType":"uint256"}],"anonymous":false},{"type":"event","name":"ProposalThresholdChanged","inputs":[{"name":"newThreshold","type":"uint256","indexed":false,"internalType":"uint256"}],"anonymous":false},{"type":"event","name":"QuorumChanged","inputs":[{"name":"newQuorum","type":"uint256","indexed":false,"internalType":"uint256"}],"anonymous":false},{"type":"event","name":"VoteCast","inputs":[{"name":"proposalId","type":"uint256","indexed":true,"internalType":"uint256"},{"name":"voter","type":"address","indexed":true,"internalType":"address"},{"name":"support","type":"bool","indexed":false,"internalType":"bool"},{"name":"weight","type":"uint256","indexed":false,"internalType":"uint256"}],"anonymous":false},{"type":"event","name":"VotingPeriodChanged","inputs":[{"name":"newVotingPeriod","type":"uint256","indexed":false,"internalType":"uint256"}],"anonymous":false},{"type":"error","name":"OwnableInvalidOwner","inputs":[{"name":"owner","type":"address","internalType":"address"}]},{"type":"error","name":"OwnableUnauthorizedAccount","inputs":[{"name":"account","type":"address","internalType":"address"}]},{"type":"error","name":"ReentrancyGuardReentrantCall","inputs":[]}],"bytecode":{"object":"0x60806040526103e86007556203f480600855606460095562015180600a55600b805460ff60a01b1916600160a01b17905534801561003b575f80fd5b506040516130cf3803806130cf83398101604081905261005a91610103565b60015f55338061008357604051631e4fbdf760e01b81525f600482015260240160405180910390fd5b61008c816100b2565b50600b80546001600160a01b0319166001600160a01b0392909216919091179055610130565b600180546001600160a01b038381166001600160a01b0319831681179093556040519116919082907f8be0079c531659141344cd1fd0a4f28419497f9722a3daafe3b4186f6b6457e0905f90a35050565b5f60208284031215610113575f80fd5b81516001600160a01b0381168114610129575f80fd5b9392505050565b612f928061013d5f395ff3fe6080604052600436106101f4575f3560e01c8063bc3f931f11610108578063df91f7481161009d578063ece40cc11161006d578063ece40cc11461066c578063f2fde38b1461068b578063f96dae0a146106aa578063fd47b368146106c9578063fe0d94c1146106e8575f80fd5b8063df91f748146105db578063e4917d9f1461060f578063ea0217cf1461062e578063ebe5adb91461064d575f80fd5b8063c9d27afe116100d8578063c9d27afe14610521578063ce2661f114610540578063d23254b41461055f578063da35c664146105c6575f80fd5b8063bc3f931f14610466578063c07473f6146104ab578063c1ba4e59146104d6578063c7f758a8146104f5575f80fd5b80635bdcd00811610189578063747c125511610159578063747c1255146103c05780638b257989146103df5780638da5cb5b146103f45780639080936f14610425578063b58131b014610451575f80fd5b80635bdcd0081461031857806366acfa4a1461035f578063715018a61461038d57806371fb5836146103a1575f80fd5b806331523c75116101c457806331523c75146102a557806340e58ee5146102c65780634d7df5e8146102e557806351858e2714610304575f80fd5b8063013cf08b146101ff57806302a251a31461023d5780630b3978fc146102605780631703a01814610290575f80fd5b366101fb57005b5f80fd5b34801561020a575f80fd5b5061021e61021936600461257f565b610707565b6040516102349a999897969594939291906125c4565b60405180910390f35b348015610248575f80fd5b5061025260085481565b604051908152602001610234565b34801561026b575f80fd5b50600b5461028090600160a01b900460ff1681565b6040519015158152602001610234565b34801561029b575f80fd5b5061025260075481565b3480156102b0575f80fd5b506102c46102bf366004612656565b610871565b005b3480156102d1575f80fd5b506102c46102e036600461257f565b610899565b3480156102f0575f80fd5b506102c46102ff366004612676565b61097f565b34801561030f575f80fd5b506102c46109c5565b348015610323575f80fd5b5061033761033236600461257f565b6109dc565b6040805194855260208501939093529015159183019190915215156060820152608001610234565b34801561036a575f80fd5b50610280610379366004612656565b60056020525f908152604090205460ff1681565b348015610398575f80fd5b506102c4610d41565b3480156103ac575f80fd5b506102526103bb366004612924565b610d54565b3480156103cb575f80fd5b506102c46103da366004612656565b611054565b3480156103ea575f80fd5b50610252600a5481565b3480156103ff575f80fd5b506001546001600160a01b03165b6040516001600160a01b039091168152602001610234565b348015610430575f80fd5b5061044461043f36600461257f565b611060565b6040516102349190612a1b565b34801561045c575f80fd5b5061025260095481565b348015610471575f80fd5b50610485610480366004612a41565b611414565b604080518251151581526020808401511515908201529181015190820152606001610234565b3480156104b6575f80fd5b506102526104c5366004612656565b60046020525f908152604090205481565b3480156104e1575f80fd5b506102c46104f036600461257f565b611482565b348015610500575f80fd5b5061051461050f36600461257f565b611515565b6040516102349190612b38565b34801561052c575f80fd5b506102c461053b366004612c5e565b6118b9565b34801561054b575f80fd5b506102c461055a366004612c7f565b611aea565b34801561056a575f80fd5b506105a9610579366004612a41565b600360209081525f92835260408084209091529082529020805460019091015460ff808316926101009004169083565b604080519315158452911515602084015290820152606001610234565b3480156105d1575f80fd5b5061025260065481565b3480156105e6575f80fd5b506105ef611b10565b604080519485526020850193909352918301526060820152608001610234565b34801561061a575f80fd5b506102c461062936600461257f565b611b90565b348015610639575f80fd5b506102c461064836600461257f565b611b9d565b348015610658575f80fd5b5061028061066736600461257f565b611c39565b348015610677575f80fd5b506102c461068636600461257f565b611f79565b348015610696575f80fd5b506102c46106a5366004612656565b611fb6565b3480156106b5575f80fd5b50600b5461040d906001600160a01b031681565b3480156106d4575f80fd5b506102c46106e3366004612656565b611ff0565b3480156106f3575f80fd5b506102c461070236600461257f565b61201b565b600260208190525f918252604090912080546001820154928201805491936001600160a01b0316929161073990612c98565b80601f016020809104026020016040519081016040528092919081815260200182805461076590612c98565b80156107b05780601f10610787576101008083540402835291602001916107b0565b820191905f5260205f20905b81548152906001019060200180831161079357829003601f168201915b5050505050908060030180546107c590612c98565b80601f01602080910402602001604051908101604052809291908181526020018280546107f190612c98565b801561083c5780601f106108135761010080835404028352916020019161083c565b820191905f5260205f20905b81548152906001019060200180831161081f57829003601f168201915b505050600484015460058501546006860154600787015460089097015495969295919450925060ff808216916101009004168a565b610879612295565b6001600160a01b03165f908152600560205260409020805460ff19169055565b5f81815260026020526040902060018101546001600160a01b031633146109075760405162461bcd60e51b815260206004820152601e60248201527f476f7665726e616e636553797374656d3a204e6f742070726f706f736572000060448201526064015b60405180910390fd5b600161091283611060565b600581111561092357610923612a07565b146109405760405162461bcd60e51b81526004016108fe90612cd0565b60088101805461ff00191661010017905560405182907f416e669c63d9a3a5e36ee7cc7e2104b8db28ccd286aa18966e98fa230c73b08c905f90a25050565b5f5b818110156109c0576109b883838381811061099e5761099e612d15565b90506020020160208101906109b39190612656565b6122c2565b600101610981565b505050565b6109cd612295565b600b805460ff60a01b19169055565b5f81815260026020818152604080842081516101a0810183528154815260018201546001600160a01b0316938101939093529283018054859485948594859491939084019190610a2b90612c98565b80601f0160208091040260200160405190810160405280929190818152602001828054610a5790612c98565b8015610aa25780601f10610a7957610100808354040283529160200191610aa2565b820191905f5260205f20905b815481529060010190602001808311610a8557829003601f168201915b50505050508152602001600382018054610abb90612c98565b80601f0160208091040260200160405190810160405280929190818152602001828054610ae790612c98565b8015610b325780601f10610b0957610100808354040283529160200191610b32565b820191905f5260205f20905b815481529060010190602001808311610b1557829003601f168201915b5050509183525050600482015460208083019190915260058301546040808401919091526006840154606084015260078401546080840152600884015460ff808216151560a086015261010090910416151560c084015260098401805482518185028101850190935280835260e0909401939192909190830182828015610be057602002820191905f5260205f20905b81546001600160a01b03168152600190910190602001808311610bc2575b50505050508152602001600a8201805480602002602001604051908101604052809291908181526020018280548015610c3657602002820191905f5260205f20905b815481526020019060010190808311610c22575b50505050508152602001600b8201805480602002602001604051908101604052809291908181526020015f905b82821015610d0b578382905f5260205f20018054610c8090612c98565b80601f0160208091040260200160405190810160405280929190818152602001828054610cac90612c98565b8015610cf75780601f10610cce57610100808354040283529160200191610cf7565b820191905f5260205f20905b815481529060010190602001808311610cda57829003601f168201915b505050505081526020019060010190610c63565b5050509152505060c081015160e08201516007549197509550861015935090508385118015610d375750825b9150509193509193565b610d49612295565b610d525f6123b3565b565b600b545f90600160a01b900460ff16610d7f5760405162461bcd60e51b81526004016108fe90612d29565b600954335f908152600460205260409020541015610df35760405162461bcd60e51b815260206004820152602b60248201527f476f7665726e616e636553797374656d3a20496e73756666696369656e74207660448201526a37ba34b733903837bbb2b960a91b60648201526084016108fe565b82518451148015610e05575081518451145b610e615760405162461bcd60e51b815260206004820152602760248201527f476f7665726e616e636553797374656d3a204172726179206c656e677468206d6044820152660d2e6dac2e8c6d60cb1b60648201526084016108fe565b600680545f9182610e7183612d82565b9091555060085490915042905f90610e899083612d9a565b604080516101a0810182528581523360208083019182528284018e8152606084018e90526080840188905260a084018690525f60c0850181905260e085018190526101008501819052610120850181905261014085018e905261016085018d905261018085018c9052898152600292839052949094208351815591516001830180546001600160a01b0319166001600160a01b03909216919091179055925193945090929091820190610f3c9082612df8565b5060608201516003820190610f519082612df8565b506080820151600482015560a0820151600582015560c0820151600682015560e082015160078201556101008083015160088301805461012086015161ffff1990911692151561ff001916929092179115159092021790556101408201518051610fc591600984019160209091019061242c565b506101608201518051610fe291600a84019160209091019061248f565b506101808201518051610fff91600b8401916020909101906124c8565b50905050336001600160a01b0316837f98120a6aaa04295520ab4e01c6c1235dd316e822cc9ff31db7b3f197366d18bd8b8460405161103f929190612eb3565b60405180910390a35090979650505050505050565b61105d816122c2565b50565b5f81815260026020818152604080842081516101a0810183528154815260018201546001600160a01b0316938101939093529283018054859492840191906110a790612c98565b80601f01602080910402602001604051908101604052809291908181526020018280546110d390612c98565b801561111e5780601f106110f55761010080835404028352916020019161111e565b820191905f5260205f20905b81548152906001019060200180831161110157829003601f168201915b5050505050815260200160038201805461113790612c98565b80601f016020809104026020016040519081016040528092919081815260200182805461116390612c98565b80156111ae5780601f10611185576101008083540402835291602001916111ae565b820191905f5260205f20905b81548152906001019060200180831161119157829003601f168201915b5050509183525050600482015460208083019190915260058301546040808401919091526006840154606084015260078401546080840152600884015460ff808216151560a086015261010090910416151560c084015260098401805482518185028101850190935280835260e090940193919290919083018282801561125c57602002820191905f5260205f20905b81546001600160a01b0316815260019091019060200180831161123e575b50505050508152602001600a82018054806020026020016040519081016040528092919081815260200182805480156112b257602002820191905f5260205f20905b81548152602001906001019080831161129e575b50505050508152602001600b8201805480602002602001604051908101604052809291908181526020015f905b82821015611387578382905f5260205f200180546112fc90612c98565b80601f016020809104026020016040519081016040528092919081815260200182805461132890612c98565b80156113735780601f1061134a57610100808354040283529160200191611373565b820191905f5260205f20905b81548152906001019060200180831161135657829003601f168201915b5050505050815260200190600101906112df565b50505050815250509050806101200151156113a55750600592915050565b806101000151156113b95750600492915050565b80608001514210156113cd57505f92915050565b8060a0015142116113e15750600192915050565b8060e001518160c001511115806113fd57506007548160c00151105b1561140b5750600392915050565b50600292915050565b60408051606080820183525f8083526020808401829052928401819052858152600383528381206001600160a01b0386168252835283902083519182018452805460ff8082161515845261010090910416151592820192909252600190910154918101919091525b92915050565b61148a612295565b5f81116114d95760405162461bcd60e51b815260206004820181905260248201527f476f7665726e616e636553797374656d3a20496e76616c69642071756f72756d60448201526064016108fe565b60078190556040518181527f027863d12a407097e086a48e36475bfc859d0b200b7e6f65b5fd3b218e46632e906020015b60405180910390a150565b611585604051806101a001604052805f81526020015f6001600160a01b0316815260200160608152602001606081526020015f81526020015f81526020015f81526020015f81526020015f151581526020015f151581526020016060815260200160608152602001606081525090565b5f8281526002602081815260409283902083516101a0810185528154815260018201546001600160a01b031692810192909252918201805491938401916115cb90612c98565b80601f01602080910402602001604051908101604052809291908181526020018280546115f790612c98565b80156116425780601f1061161957610100808354040283529160200191611642565b820191905f5260205f20905b81548152906001019060200180831161162557829003601f168201915b5050505050815260200160038201805461165b90612c98565b80601f016020809104026020016040519081016040528092919081815260200182805461168790612c98565b80156116d25780601f106116a9576101008083540402835291602001916116d2565b820191905f5260205f20905b8154815290600101906020018083116116b557829003601f168201915b5050509183525050600482015460208083019190915260058301546040808401919091526006840154606084015260078401546080840152600884015460ff808216151560a086015261010090910416151560c084015260098401805482518185028101850190935280835260e090940193919290919083018282801561178057602002820191905f5260205f20905b81546001600160a01b03168152600190910190602001808311611762575b50505050508152602001600a82018054806020026020016040519081016040528092919081815260200182805480156117d657602002820191905f5260205f20905b8154815260200190600101908083116117c2575b50505050508152602001600b8201805480602002602001604051908101604052809291908181526020015f905b828210156118ab578382905f5260205f2001805461182090612c98565b80601f016020809104026020016040519081016040528092919081815260200182805461184c90612c98565b80156118975780601f1061186e57610100808354040283529160200191611897565b820191905f5260205f20905b81548152906001019060200180831161187a57829003601f168201915b505050505081526020019060010190611803565b505050915250909392505050565b600b54600160a01b900460ff166118e25760405162461bcd60e51b81526004016108fe90612d29565b60016118ed83611060565b60058111156118fe576118fe612a07565b1461191b5760405162461bcd60e51b81526004016108fe90612cd0565b335f908152600460205260409020546119805760405162461bcd60e51b815260206004820152602160248201527f476f7665726e616e636553797374656d3a204e6f20766f74696e6720706f77656044820152603960f91b60648201526084016108fe565b5f82815260036020908152604080832033845290915290205460ff16156119e95760405162461bcd60e51b815260206004820152601f60248201527f476f7665726e616e636553797374656d3a20416c726561647920766f7465640060448201526064016108fe565b5f82815260026020908152604080832033808552600484528285205483516060810185526001808252881580158389019081528388018581528c8b5260038a52888b20968b52959098529590972090518154965161ffff1990971690151561ff001916176101009615159690960295909517855590519390940192909255909190611a8c5780826006015f828254611a819190612d9a565b90915550611aa59050565b80826007015f828254611a9f9190612d9a565b90915550505b60408051841515815260208101839052339186917fcbdf6214089cba887ecbf35a0b6a734589959c9763342c756bb2a80ca2bc9f6e910160405180910390a350505050565b611af2612295565b600b8054911515600160a01b0260ff60a01b19909216919091179055565b6006545f8080805b600654811015611b89575f611b2c82611060565b90506001816005811115611b4257611b42612a07565b03611b595784611b5181612d82565b955050611b80565b6004816005811115611b6d57611b6d612a07565b03611b805783611b7c81612d82565b9450505b50600101611b18565b5090919293565b611b98612295565b600a55565b611ba5612295565b5f8111611c045760405162461bcd60e51b815260206004820152602760248201527f476f7665726e616e636553797374656d3a20496e76616c696420766f74696e67604482015266081c195c9a5bd960ca1b60648201526084016108fe565b60088190556040518181527f80de61ff4315232cb8f8914c01ec01d87aaf9714a379151c9cf5ccaba20c73909060200161150a565b5f81815260026020818152604080842081516101a0810183528154815260018201546001600160a01b031693810193909352928301805485949284019190611c8090612c98565b80601f0160208091040260200160405190810160405280929190818152602001828054611cac90612c98565b8015611cf75780601f10611cce57610100808354040283529160200191611cf7565b820191905f5260205f20905b815481529060010190602001808311611cda57829003601f168201915b50505050508152602001600382018054611d1090612c98565b80601f0160208091040260200160405190810160405280929190818152602001828054611d3c90612c98565b8015611d875780601f10611d5e57610100808354040283529160200191611d87565b820191905f5260205f20905b815481529060010190602001808311611d6a57829003601f168201915b5050509183525050600482015460208083019190915260058301546040808401919091526006840154606084015260078401546080840152600884015460ff808216151560a086015261010090910416151560c084015260098401805482518185028101850190935280835260e0909401939192909190830182828015611e3557602002820191905f5260205f20905b81546001600160a01b03168152600190910190602001808311611e17575b50505050508152602001600a8201805480602002602001604051908101604052809291908181526020018280548015611e8b57602002820191905f5260205f20905b815481526020019060010190808311611e77575b50505050508152602001600b8201805480602002602001604051908101604052809291908181526020015f905b82821015611f60578382905f5260205f20018054611ed590612c98565b80601f0160208091040260200160405190810160405280929190818152602001828054611f0190612c98565b8015611f4c5780601f10611f2357610100808354040283529160200191611f4c565b820191905f5260205f20905b815481529060010190602001808311611f2f57829003601f168201915b505050505081526020019060010190611eb8565b5050509152505060075460c09091015110159392505050565b611f81612295565b60098190556040518181527f0553c1e1d490599cc62884d38bddf3b538bf26581e3d5a830cb2aa0a54fc56339060200161150a565b611fbe612295565b6001600160a01b038116611fe757604051631e4fbdf760e01b81525f60048201526024016108fe565b61105d816123b3565b611ff8612295565b6001600160a01b03165f908152600560205260409020805460ff19166001179055565b612023612404565b600261202e82611060565b600581111561203f5761203f612a07565b1461209d5760405162461bcd60e51b815260206004820152602860248201527f476f7665726e616e636553797374656d3a2050726f706f73616c206e6f7420736044820152671d58d8d95959195960c21b60648201526084016108fe565b600a545f828152600260205260409020600501546120bb9190612d9a565b42101561211c5760405162461bcd60e51b815260206004820152602960248201527f476f7665726e616e636553797374656d3a20457865637574696f6e2064656c616044820152681e481b9bdd081b595d60ba1b60648201526084016108fe565b5f81815260026020526040812060088101805460ff19166001179055905b6009820154811015612260575f82600901828154811061215c5761215c612d15565b5f91825260209091200154600a840180546001600160a01b03909216918490811061218957612189612d15565b905f5260205f20015484600b0184815481106121a7576121a7612d15565b905f5260205f20016040516121bc9190612ed4565b5f6040518083038185875af1925050503d805f81146121f6576040519150601f19603f3d011682016040523d82523d5f602084013e6121fb565b606091505b50509050806122575760405162461bcd60e51b815260206004820152602260248201527f476f7665726e616e636553797374656d3a20457865637574696f6e206661696c604482015261195960f21b60648201526084016108fe565b5060010161213a565b5060405182907f712ae1383f79ac853f8d882153778e0260ef8f03b504e2866e0593e04d2b291f905f90a25061105d60015f55565b6001546001600160a01b03163314610d525760405163118cdaa760e01b81523360048201526024016108fe565b600b546001600160a01b03166123285760405162461bcd60e51b815260206004820152602560248201527f476f7665726e616e636553797374656d3a204e6f20676f7665726e616e6365206044820152643a37b5b2b760d91b60648201526084016108fe565b600b546040516370a0823160e01b81526001600160a01b0383811660048301525f9216906370a0823190602401602060405180830381865afa158015612370573d5f803e3d5ffd5b505050506040513d601f19601f820116820180604052508101906123949190612f45565b6001600160a01b039092165f9081526004602052604090209190915550565b600180546001600160a01b038381166001600160a01b0319831681179093556040519116919082907f8be0079c531659141344cd1fd0a4f28419497f9722a3daafe3b4186f6b6457e0905f90a35050565b60025f540361242657604051633ee5aeb560e01b815260040160405180910390fd5b60025f55565b828054828255905f5260205f2090810192821561247f579160200282015b8281111561247f57825182546001600160a01b0319166001600160a01b0390911617825560209092019160019091019061244a565b5061248b929150612518565b5090565b828054828255905f5260205f2090810192821561247f579160200282015b8281111561247f5782518255916020019190600101906124ad565b828054828255905f5260205f2090810192821561250c579160200282015b8281111561250c57825182906124fc9082612df8565b50916020019190600101906124e6565b5061248b92915061252c565b5b8082111561248b575f8155600101612519565b8082111561248b575f61253f8282612548565b5060010161252c565b50805461255490612c98565b5f825580601f10612563575050565b601f0160209004905f5260205f209081019061105d9190612518565b5f6020828403121561258f575f80fd5b5035919050565b5f81518084528060208401602086015e5f602082860101526020601f19601f83011685010191505092915050565b8a81526001600160a01b038a166020820152610140604082018190525f906125ee9083018b612596565b8281036060840152612600818b612596565b6080840199909952505060a081019590955260c085019390935260e08401919091521515610100830152151561012090910152949350505050565b80356001600160a01b0381168114612651575f80fd5b919050565b5f60208284031215612666575f80fd5b61266f8261263b565b9392505050565b5f8060208385031215612687575f80fd5b823567ffffffffffffffff81111561269d575f80fd5b8301601f810185136126ad575f80fd5b803567ffffffffffffffff8111156126c3575f80fd5b8560208260051b84010111156126d7575f80fd5b6020919091019590945092505050565b634e487b7160e01b5f52604160045260245ffd5b604051601f8201601f1916810167ffffffffffffffff81118282101715612724576127246126e7565b604052919050565b5f8067ffffffffffffffff841115612746576127466126e7565b50601f8301601f191660200161275b816126fb565b91505082815283838301111561276f575f80fd5b828260208301375f602084830101529392505050565b5f82601f830112612794575f80fd5b61266f8383356020850161272c565b5f67ffffffffffffffff8211156127bc576127bc6126e7565b5060051b60200190565b5f82601f8301126127d5575f80fd5b81356127e86127e3826127a3565b6126fb565b8082825260208201915060208360051b860101925085831115612809575f80fd5b602085015b8381101561282d5761281f8161263b565b83526020928301920161280e565b5095945050505050565b5f82601f830112612846575f80fd5b81356128546127e3826127a3565b8082825260208201915060208360051b860101925085831115612875575f80fd5b602085015b8381101561282d57803583526020928301920161287a565b5f82601f8301126128a1575f80fd5b81356128af6127e3826127a3565b8082825260208201915060208360051b8601019250858311156128d0575f80fd5b602085015b8381101561282d57803567ffffffffffffffff8111156128f3575f80fd5b8601603f81018813612903575f80fd5b6129158860208301356040840161272c565b845250602092830192016128d5565b5f805f805f60a08688031215612938575f80fd5b853567ffffffffffffffff81111561294e575f80fd5b61295a88828901612785565b955050602086013567ffffffffffffffff811115612976575f80fd5b61298288828901612785565b945050604086013567ffffffffffffffff81111561299e575f80fd5b6129aa888289016127c6565b935050606086013567ffffffffffffffff8111156129c6575f80fd5b6129d288828901612837565b925050608086013567ffffffffffffffff8111156129ee575f80fd5b6129fa88828901612892565b9150509295509295909350565b634e487b7160e01b5f52602160045260245ffd5b6020810160068310612a3b57634e487b7160e01b5f52602160045260245ffd5b91905290565b5f8060408385031215612a52575f80fd5b82359150612a626020840161263b565b90509250929050565b5f8151808452602084019350602083015f5b82811015612aa45781516001600160a01b0316865260209586019590910190600101612a7d565b5093949350505050565b5f8151808452602084019350602083015f5b82811015612aa4578151865260209586019590910190600101612ac0565b5f82825180855260208501945060208160051b830101602085015f5b83811015612b2c57601f19858403018852612b16838351612596565b6020988901989093509190910190600101612afa565b50909695505050505050565b60208152815160208201525f6020830151612b5e60408401826001600160a01b03169052565b5060408301516101a06060840152612b7a6101c0840182612596565b90506060840151601f19848303016080850152612b978282612596565b915050608084015160a084015260a084015160c084015260c084015160e084015260e0840151610100840152610100840151612bd861012085018215159052565b5061012084015180151561014085015250610140840151838203601f1901610160850152612c068282612a6b565b915050610160840151601f1984830301610180850152612c268282612aae565b915050610180840151601f19848303016101a0850152612c468282612ade565b95945050505050565b80358015158114612651575f80fd5b5f8060408385031215612c6f575f80fd5b82359150612a6260208401612c4f565b5f60208284031215612c8f575f80fd5b61266f82612c4f565b600181811c90821680612cac57607f821691505b602082108103612cca57634e487b7160e01b5f52602260045260245ffd5b50919050565b60208082526025908201527f476f7665726e616e636553797374656d3a2050726f706f73616c206e6f742061604082015264637469766560d81b606082015260800190565b634e487b7160e01b5f52603260045260245ffd5b60208082526025908201527f476f7665726e616e636553797374656d3a20476f7665726e616e63652064697360408201526418589b195960da1b606082015260800190565b634e487b7160e01b5f52601160045260245ffd5b5f60018201612d9357612d93612d6e565b5060010190565b8082018082111561147c5761147c612d6e565b601f8211156109c057805f5260205f20601f840160051c81016020851015612dd25750805b601f840160051c820191505b81811015612df1575f8155600101612dde565b5050505050565b815167ffffffffffffffff811115612e1257612e126126e7565b612e2681612e208454612c98565b84612dad565b6020601f821160018114612e58575f8315612e415750848201515b5f19600385901b1c1916600184901b178455612df1565b5f84815260208120601f198516915b82811015612e875787850151825560209485019460019092019101612e67565b5084821015612ea457868401515f19600387901b60f8161c191681555b50505050600190811b01905550565b604081525f612ec56040830185612596565b90508260208301529392505050565b5f808354612ee181612c98565b600182168015612ef85760018114612f0d57612f3a565b60ff1983168652811515820286019350612f3a565b865f5260205f205f5b83811015612f3257815488820152600190910190602001612f16565b505081860193505b509195945050505050565b5f60208284031215612f55575f80fd5b505191905056fea264697066735822122060ce21142f9b35e68ad4046951a1e69cd2ef76bbc5a377291882403c24473f0264736f6c634300081a0033","linkReferences":{}},"methodIdentifiers":{"authorizeVoter(address)":"fd47b368","authorizedVoters(address)":"66acfa4a","batchUpdateVotingPower(address[])":"4d7df5e8","cancel(uint256)":"40e58ee5","deauthorizeVoter(address)":"31523c75","emergencyPause()":"51858e27","execute(uint256)":"fe0d94c1","executionDelay()":"8b257989","getGovernanceStats()":"df91f748","getProposal(uint256)":"c7f758a8","getProposalResults(uint256)":"5bdcd008","getProposalState(uint256)":"9080936f","getVote(uint256,address)":"bc3f931f","governanceEnabled()":"0b3978fc","governanceToken()":"f96dae0a","meetsQuorum(uint256)":"ebe5adb9","owner()":"8da5cb5b","proposalCount()":"da35c664","proposalThreshold()":"b58131b0","proposals(uint256)":"013cf08b","propose(string,string,address[],uint256[],bytes[])":"71fb5836","quorum()":"1703a018","renounceOwnership()":"715018a6","setExecutionDelay(uint256)":"e4917d9f","setGovernanceEnabled(bool)":"ce2661f1","setProposalThreshold(uint256)":"ece40cc1","setQuorum(uint256)":"c1ba4e59","setVotingPeriod(uint256)":"ea0217cf","transferOwnership(address)":"f2fde38b","updateVotingPower(address)":"747c1255","vote(uint256,bool)":"c9d27afe","votes(uint256,address)":"d23254b4","votingPeriod()":"02a251a3","votingPower(address)":"c07473f6"},"id":46}