{"abi":[{"type":"constructor","inputs":[{"name":"_poolManager","type":"address","internalType":"contract IPoolManager"}],"stateMutability":"nonpayable"},{"type":"receive","stateMutability":"payable"},{"type":"function","name":"BPS_DENOMINATOR","inputs":[],"outputs":[{"name":"","type":"uint256","internalType":"uint256"}],"stateMutability":"view"},{"type":"function","name":"MAX_REWARD_PERCENTAGE","inputs":[],"outputs":[{"name":"","type":"uint256","internalType":"uint256"}],"stateMutability":"view"},{"type":"function","name":"afterAddLiquidity","inputs":[{"name":"sender","type":"address","internalType":"address"},{"name":"key","type":"tuple","internalType":"struct PoolKey","components":[{"name":"currency0","type":"address","internalType":"Currency"},{"name":"currency1","type":"address","internalType":"Currency"},{"name":"fee","type":"uint24","internalType":"uint24"},{"name":"tickSpacing","type":"int24","internalType":"int24"},{"name":"hooks","type":"address","internalType":"contract IHooks"}]},{"name":"params","type":"tuple","internalType":"struct IPoolManager.ModifyLiquidityParams","components":[{"name":"tickLower","type":"int24","internalType":"int24"},{"name":"tickUpper","type":"int24","internalType":"int24"},{"name":"liquidityDelta","type":"int256","internalType":"int256"},{"name":"salt","type":"bytes32","internalType":"bytes32"}]},{"name":"delta","type":"int256","internalType":"BalanceDelta"},{"name":"feesAccrued","type":"int256","internalType":"BalanceDelta"},{"name":"hookData","type":"bytes","internalType":"bytes"}],"outputs":[{"name":"","type":"bytes4","internalType":"bytes4"},{"name":"","type":"int256","internalType":"BalanceDelta"}],"stateMutability":"nonpayable"},{"type":"function","name":"afterDonate","inputs":[{"name":"sender","type":"address","internalType":"address"},{"name":"key","type":"tuple","internalType":"struct PoolKey","components":[{"name":"currency0","type":"address","internalType":"Currency"},{"name":"currency1","type":"address","internalType":"Currency"},{"name":"fee","type":"uint24","internalType":"uint24"},{"name":"tickSpacing","type":"int24","internalType":"int24"},{"name":"hooks","type":"address","internalType":"contract IHooks"}]},{"name":"amount0","type":"uint256","internalType":"uint256"},{"name":"amount1","type":"uint256","internalType":"uint256"},{"name":"hookData","type":"bytes","internalType":"bytes"}],"outputs":[{"name":"","type":"bytes4","internalType":"bytes4"}],"stateMutability":"nonpayable"},{"type":"function","name":"afterInitialize","inputs":[{"name":"sender","type":"address","internalType":"address"},{"name":"key","type":"tuple","internalType":"struct PoolKey","components":[{"name":"currency0","type":"address","internalType":"Currency"},{"name":"currency1","type":"address","internalType":"Currency"},{"name":"fee","type":"uint24","internalType":"uint24"},{"name":"tickSpacing","type":"int24","internalType":"int24"},{"name":"hooks","type":"address","internalType":"contract IHooks"}]},{"name":"sqrtPriceX96","type":"uint160","internalType":"uint160"},{"name":"tick","type":"int24","internalType":"int24"}],"outputs":[{"name":"","type":"bytes4","internalType":"bytes4"}],"stateMutability":"nonpayable"},{"type":"function","name":"afterRemoveLiquidity","inputs":[{"name":"sender","type":"address","internalType":"address"},{"name":"key","type":"tuple","internalType":"struct PoolKey","components":[{"name":"currency0","type":"address","internalType":"Currency"},{"name":"currency1","type":"address","internalType":"Currency"},{"name":"fee","type":"uint24","internalType":"uint24"},{"name":"tickSpacing","type":"int24","internalType":"int24"},{"name":"hooks","type":"address","internalType":"contract IHooks"}]},{"name":"params","type":"tuple","internalType":"struct IPoolManager.ModifyLiquidityParams","components":[{"name":"tickLower","type":"int24","internalType":"int24"},{"name":"tickUpper","type":"int24","internalType":"int24"},{"name":"liquidityDelta","type":"int256","internalType":"int256"},{"name":"salt","type":"bytes32","internalType":"bytes32"}]},{"name":"delta","type":"int256","internalType":"BalanceDelta"},{"name":"feesAccrued","type":"int256","internalType":"BalanceDelta"},{"name":"hookData","type":"bytes","internalType":"bytes"}],"outputs":[{"name":"","type":"bytes4","internalType":"bytes4"},{"name":"","type":"int256","internalType":"BalanceDelta"}],"stateMutability":"nonpayable"},{"type":"function","name":"afterSwap","inputs":[{"name":"sender","type":"address","internalType":"address"},{"name":"key","type":"tuple","internalType":"struct PoolKey","components":[{"name":"currency0","type":"address","internalType":"Currency"},{"name":"currency1","type":"address","internalType":"Currency"},{"name":"fee","type":"uint24","internalType":"uint24"},{"name":"tickSpacing","type":"int24","internalType":"int24"},{"name":"hooks","type":"address","internalType":"contract IHooks"}]},{"name":"params","type":"tuple","internalType":"struct IPoolManager.SwapParams","components":[{"name":"zeroForOne","type":"bool","internalType":"bool"},{"name":"amountSpecified","type":"int256","internalType":"int256"},{"name":"sqrtPriceLimitX96","type":"uint160","internalType":"uint160"}]},{"name":"delta","type":"int256","internalType":"BalanceDelta"},{"name":"hookData","type":"bytes","internalType":"bytes"}],"outputs":[{"name":"","type":"bytes4","internalType":"bytes4"},{"name":"","type":"int128","internalType":"int128"}],"stateMutability":"nonpayable"},{"type":"function","name":"authorizeCreator","inputs":[{"name":"creator","type":"address","internalType":"address"}],"outputs":[],"stateMutability":"nonpayable"},{"type":"function","name":"authorizedCreators","inputs":[{"name":"","type":"address","internalType":"address"}],"outputs":[{"name":"","type":"bool","internalType":"bool"}],"stateMutability":"view"},{"type":"function","name":"beforeAddLiquidity","inputs":[{"name":"sender","type":"address","internalType":"address"},{"name":"key","type":"tuple","internalType":"struct PoolKey","components":[{"name":"currency0","type":"address","internalType":"Currency"},{"name":"currency1","type":"address","internalType":"Currency"},{"name":"fee","type":"uint24","internalType":"uint24"},{"name":"tickSpacing","type":"int24","internalType":"int24"},{"name":"hooks","type":"address","internalType":"contract IHooks"}]},{"name":"params","type":"tuple","internalType":"struct IPoolManager.ModifyLiquidityParams","components":[{"name":"tickLower","type":"int24","internalType":"int24"},{"name":"tickUpper","type":"int24","internalType":"int24"},{"name":"liquidityDelta","type":"int256","internalType":"int256"},{"name":"salt","type":"bytes32","internalType":"bytes32"}]},{"name":"hookData","type":"bytes","internalType":"bytes"}],"outputs":[{"name":"","type":"bytes4","internalType":"bytes4"}],"stateMutability":"nonpayable"},{"type":"function","name":"beforeDonate","inputs":[{"name":"sender","type":"address","internalType":"address"},{"name":"key","type":"tuple","internalType":"struct PoolKey","components":[{"name":"currency0","type":"address","internalType":"Currency"},{"name":"currency1","type":"address","internalType":"Currency"},{"name":"fee","type":"uint24","internalType":"uint24"},{"name":"tickSpacing","type":"int24","internalType":"int24"},{"name":"hooks","type":"address","internalType":"contract IHooks"}]},{"name":"amount0","type":"uint256","internalType":"uint256"},{"name":"amount1","type":"uint256","internalType":"uint256"},{"name":"hookData","type":"bytes","internalType":"bytes"}],"outputs":[{"name":"","type":"bytes4","internalType":"bytes4"}],"stateMutability":"nonpayable"},{"type":"function","name":"beforeInitialize","inputs":[{"name":"sender","type":"address","internalType":"address"},{"name":"key","type":"tuple","internalType":"struct PoolKey","components":[{"name":"currency0","type":"address","internalType":"Currency"},{"name":"currency1","type":"address","internalType":"Currency"},{"name":"fee","type":"uint24","internalType":"uint24"},{"name":"tickSpacing","type":"int24","internalType":"int24"},{"name":"hooks","type":"address","internalType":"contract IHooks"}]},{"name":"sqrtPriceX96","type":"uint160","internalType":"uint160"}],"outputs":[{"name":"","type":"bytes4","internalType":"bytes4"}],"stateMutability":"nonpayable"},{"type":"function","name":"beforeRemoveLiquidity","inputs":[{"name":"sender","type":"address","internalType":"address"},{"name":"key","type":"tuple","internalType":"struct PoolKey","components":[{"name":"currency0","type":"address","internalType":"Currency"},{"name":"currency1","type":"address","internalType":"Currency"},{"name":"fee","type":"uint24","internalType":"uint24"},{"name":"tickSpacing","type":"int24","internalType":"int24"},{"name":"hooks","type":"address","internalType":"contract IHooks"}]},{"name":"params","type":"tuple","internalType":"struct IPoolManager.ModifyLiquidityParams","components":[{"name":"tickLower","type":"int24","internalType":"int24"},{"name":"tickUpper","type":"int24","internalType":"int24"},{"name":"liquidityDelta","type":"int256","internalType":"int256"},{"name":"salt","type":"bytes32","internalType":"bytes32"}]},{"name":"hookData","type":"bytes","internalType":"bytes"}],"outputs":[{"name":"","type":"bytes4","internalType":"bytes4"}],"stateMutability":"nonpayable"},{"type":"function","name":"beforeSwap","inputs":[{"name":"sender","type":"address","internalType":"address"},{"name":"key","type":"tuple","internalType":"struct PoolKey","components":[{"name":"currency0","type":"address","internalType":"Currency"},{"name":"currency1","type":"address","internalType":"Currency"},{"name":"fee","type":"uint24","internalType":"uint24"},{"name":"tickSpacing","type":"int24","internalType":"int24"},{"name":"hooks","type":"address","internalType":"contract IHooks"}]},{"name":"params","type":"tuple","internalType":"struct IPoolManager.SwapParams","components":[{"name":"zeroForOne","type":"bool","internalType":"bool"},{"name":"amountSpecified","type":"int256","internalType":"int256"},{"name":"sqrtPriceLimitX96","type":"uint160","internalType":"uint160"}]},{"name":"hookData","type":"bytes","internalType":"bytes"}],"outputs":[{"name":"","type":"bytes4","internalType":"bytes4"},{"name":"","type":"int256","internalType":"BeforeSwapDelta"},{"name":"","type":"uint24","internalType":"uint24"}],"stateMutability":"nonpayable"},{"type":"function","name":"claimAllRewards","inputs":[{"name":"currencies","type":"address[]","internalType":"Currency[]"}],"outputs":[],"stateMutability":"nonpayable"},{"type":"function","name":"claimRewards","inputs":[{"name":"currency","type":"address","internalType":"Currency"}],"outputs":[],"stateMutability":"nonpayable"},{"type":"function","name":"creatorWhitelistEnabled","inputs":[],"outputs":[{"name":"","type":"bool","internalType":"bool"}],"stateMutability":"view"},{"type":"function","name":"deauthorizeCreator","inputs":[{"name":"creator","type":"address","internalType":"address"}],"outputs":[],"stateMutability":"nonpayable"},{"type":"function","name":"emergencyWithdraw","inputs":[{"name":"currency","type":"address","internalType":"Currency"}],"outputs":[],"stateMutability":"nonpayable"},{"type":"function","name":"getCreatorStats","inputs":[{"name":"creator","type":"address","internalType":"address"}],"outputs":[{"name":"totalPendingETH","type":"uint256","internalType":"uint256"},{"name":"totalPendingTokens","type":"uint256","internalType":"uint256"},{"name":"isAuthorized","type":"bool","internalType":"bool"}],"stateMutability":"view"},{"type":"function","name":"getHookPermissions","inputs":[],"outputs":[{"name":"","type":"tuple","internalType":"struct Hooks.Permissions","components":[{"name":"beforeInitialize","type":"bool","internalType":"bool"},{"name":"afterInitialize","type":"bool","internalType":"bool"},{"name":"beforeAddLiquidity","type":"bool","internalType":"bool"},{"name":"afterAddLiquidity","type":"bool","internalType":"bool"},{"name":"beforeRemoveLiquidity","type":"bool","internalType":"bool"},{"name":"afterRemoveLiquidity","type":"bool","internalType":"bool"},{"name":"beforeSwap","type":"bool","internalType":"bool"},{"name":"afterSwap","type":"bool","internalType":"bool"},{"name":"beforeDonate","type":"bool","internalType":"bool"},{"name":"afterDonate","type":"bool","internalType":"bool"},{"name":"beforeSwapReturnDelta","type":"bool","internalType":"bool"},{"name":"afterSwapReturnDelta","type":"bool","internalType":"bool"},{"name":"afterAddLiquidityReturnDelta","type":"bool","internalType":"bool"},{"name":"afterRemoveLiquidityReturnDelta","type":"bool","internalType":"bool"}]}],"stateMutability":"pure"},{"type":"function","name":"getPoolStats","inputs":[{"name":"poolId","type":"bytes32","internalType":"PoolId"}],"outputs":[{"name":"creator","type":"address","internalType":"address"},{"name":"totalRewards","type":"uint256","internalType":"uint256"},{"name":"hasCreator","type":"bool","internalType":"bool"}],"stateMutability":"view"},{"type":"function","name":"owner","inputs":[],"outputs":[{"name":"","type":"address","internalType":"address"}],"stateMutability":"view"},{"type":"function","name":"pendingRewards","inputs":[{"name":"","type":"address","internalType":"address"},{"name":"","type":"address","internalType":"Currency"}],"outputs":[{"name":"","type":"uint256","internalType":"uint256"}],"stateMutability":"view"},{"type":"function","name":"poolCreators","inputs":[{"name":"","type":"bytes32","internalType":"PoolId"}],"outputs":[{"name":"","type":"address","internalType":"address"}],"stateMutability":"view"},{"type":"function","name":"poolManager","inputs":[],"outputs":[{"name":"","type":"address","internalType":"contract IPoolManager"}],"stateMutability":"view"},{"type":"function","name":"renounceOwnership","inputs":[],"outputs":[],"stateMutability":"nonpayable"},{"type":"function","name":"rewardPercentage","inputs":[],"outputs":[{"name":"","type":"uint256","internalType":"uint256"}],"stateMutability":"view"},{"type":"function","name":"setCreatorWhitelistEnabled","inputs":[{"name":"enabled","type":"bool","internalType":"bool"}],"outputs":[],"stateMutability":"nonpayable"},{"type":"function","name":"totalRewardsDistributed","inputs":[{"name":"","type":"bytes32","internalType":"PoolId"}],"outputs":[{"name":"","type":"uint256","internalType":"uint256"}],"stateMutability":"view"},{"type":"function","name":"transferOwnership","inputs":[{"name":"newOwner","type":"address","internalType":"address"}],"outputs":[],"stateMutability":"nonpayable"},{"type":"function","name":"updateRewardPercentage","inputs":[{"name":"newPercentage","type":"uint256","internalType":"uint256"}],"outputs":[],"stateMutability":"nonpayable"},{"type":"event","name":"OwnershipTransferred","inputs":[{"name":"previousOwner","type":"address","indexed":true,"internalType":"address"},{"name":"newOwner","type":"address","indexed":true,"internalType":"address"}],"anonymous":false},{"type":"event","name":"PoolCreatorRegistered","inputs":[{"name":"poolId","type":"bytes32","indexed":true,"internalType":"PoolId"},{"name":"creator","type":"address","indexed":true,"internalType":"address"}],"anonymous":false},{"type":"event","name":"RewardAccumulated","inputs":[{"name":"poolId","type":"bytes32","indexed":true,"internalType":"PoolId"},{"name":"creator","type":"address","indexed":true,"internalType":"address"},{"name":"amount","type":"uint256","indexed":false,"internalType":"uint256"},{"name":"currency","type":"address","indexed":false,"internalType":"Currency"}],"anonymous":false},{"type":"event","name":"RewardClaimed","inputs":[{"name":"creator","type":"address","indexed":true,"internalType":"address"},{"name":"currency","type":"address","indexed":false,"internalType":"Currency"},{"name":"amount","type":"uint256","indexed":false,"internalType":"uint256"}],"anonymous":false},{"type":"event","name":"RewardPercentageUpdated","inputs":[{"name":"newPercentage","type":"uint256","indexed":false,"internalType":"uint256"}],"anonymous":false},{"type":"error","name":"OwnableInvalidOwner","inputs":[{"name":"owner","type":"address","internalType":"address"}]},{"type":"error","name":"OwnableUnauthorizedAccount","inputs":[{"name":"account","type":"address","internalType":"address"}]},{"type":"error","name":"ReentrancyGuardReentrantCall","inputs":[]}],"bytecode":{"object":"0x60a0604052600a6006556007805460ff1916905534801561001e575f80fd5b50604051611e9e380380611e9e83398101604081905261003d916102ba565b6001600160a01b038116608052338161005530610097565b5060015f556001600160a01b03811661008757604051631e4fbdf760e01b81525f600482015260240160405180910390fd5b61009081610104565b5050610446565b61010181826001600160a01b031663c4e833ce6040518163ffffffff1660e01b81526004016101c060405180830381865afa1580156100d8573d5f803e3d5ffd5b505050506040513d601f19601f820116820180604052508101906100fc9190610330565b610155565b50565b600180546001600160a01b038381166001600160a01b0319831681179093556040519116919082907f8be0079c531659141344cd1fd0a4f28419497f9722a3daafe3b4186f6b6457e0905f90a35050565b80511515612000831615151415806101795750602081015115156110008316151514155b806101905750604081015115156108008316151514155b806101a75750606081015115156104008316151514155b806101be5750608081015115156102008316151514155b806101d5575060a081015115156101008316151514155b806101eb575060c0810151151560808316151514155b80610201575060e0810151151560408316151514155b806102185750610100810151151560208316151514155b8061022f5750610120810151151560108316151514155b806102465750610140810151151560088316151514155b8061025d5750610160810151151560048316151514155b806102745750610180810151151560028316151514155b8061028b57506101a0810151151560018316151514155b156102a1576102a1630732d7b560e51b836102a5565b5050565b815f526001600160a01b03811660045260245ffd5b5f602082840312156102ca575f80fd5b81516001600160a01b03811681146102e0575f80fd5b9392505050565b6040516101c081016001600160401b038111828210171561031657634e487b7160e01b5f52604160045260245ffd5b60405290565b8051801515811461032b575f80fd5b919050565b5f6101c0828403128015610342575f80fd5b5061034b6102e7565b6103548361031c565b81526103626020840161031c565b60208201526103736040840161031c565b60408201526103846060840161031c565b60608201526103956080840161031c565b60808201526103a660a0840161031c565b60a08201526103b760c0840161031c565b60c08201526103c860e0840161031c565b60e08201526103da610100840161031c565b6101008201526103ed610120840161031c565b610120820152610400610140840161031c565b610140820152610413610160840161031c565b610160820152610426610180840161031c565b6101808201526104396101a0840161031c565b6101a08201529392505050565b608051611a4061045e5f395f6106e70152611a405ff3fe6080604052600436106101de575f3560e01c80639f063efc116100fd578063d8625b0711610092578063e1a4521811610062578063e1a4521814610747578063e1b4af691461075c578063ef5cfb8c1461077b578063f2fde38b1461079a575f80fd5b8063d8625b07146106b7578063dc4c90d3146106d6578063dc98354e14610709578063e1136e2d14610728575f80fd5b8063b6a8b0fa116100cd578063b6a8b0fa14610620578063c4e833ce1461063f578063c695502a14610660578063cb5b64e81461069e575f80fd5b80639f063efc146105325780639f82d47214610551578063a4f209b0146105bf578063b47b2fb1146105de575f80fd5b80636c2bbe7e1161017357806371b6aaac1161014357806371b6aaac1461044757806380ac8228146104b45780638da5cb5b146104ea5780639b707d8d14610507575f80fd5b80636c2bbe7e146103b65780636fe7e6eb146103f55780636ff1c9bc14610414578063715018a614610433575f80fd5b80634aec7b6a116101ae5780634aec7b6a146102ec578063522066ca1461030b57806352d472eb14610357578063575e24b41461036c575f80fd5b806321d0ee701461024d578063259982e51461028a5780632de1edd5146102a9578063307e954e146102cb575f80fd5b366102495760405162461bcd60e51b815260206004820152603060248201527f43726561746f7252657761726473486f6f6b3a20446972656374207472616e7360448201526f19995c9cc81b9bdd08185b1b1bddd95960821b60648201526084015b60405180910390fd5b5f80fd5b348015610258575f80fd5b5061026c61026736600461136f565b6107b9565b6040516001600160e01b031990911681526020015b60405180910390f35b348015610295575f80fd5b5061026c6102a436600461136f565b6107e1565b3480156102b4575f80fd5b506102bd606481565b604051908152602001610281565b3480156102d6575f80fd5b506102ea6102e53660046113e6565b610803565b005b3480156102f7575f80fd5b506102ea61030636600461140c565b61081e565b348015610316575f80fd5b5061033f610325366004611427565b60026020525f90815260409020546001600160a01b031681565b6040516001600160a01b039091168152602001610281565b348015610362575f80fd5b506102bd60065481565b348015610377575f80fd5b5061038b61038636600461144e565b610846565b604080516001600160e01b03199094168452602084019290925262ffffff1690820152606001610281565b3480156103c1575f80fd5b506103d56103d03660046114a8565b610875565b604080516001600160e01b03199093168352602083019190915201610281565b348015610400575f80fd5b5061026c61040f366004611544565b6108a5565b34801561041f575f80fd5b506102ea61042e36600461140c565b6108cf565b34801561043e575f80fd5b506102ea6109da565b348015610452575f80fd5b5061048d610461366004611427565b5f908152600260209081526040808320546004909252909120546001600160a01b039091169182151590565b604080516001600160a01b0390941684526020840192909252151590820152606001610281565b3480156104bf575f80fd5b506102bd6104ce36600461159b565b600360209081525f928352604080842090915290825290205481565b3480156104f5575f80fd5b506001546001600160a01b031661033f565b348015610512575f80fd5b506102bd610521366004611427565b60046020525f908152604090205481565b34801561053d575f80fd5b506103d561054c3660046114a8565b6109ed565b34801561055c575f80fd5b506105a261056b36600461140c565b6001600160a01b03165f81815260036020908152604080832083805282528083205493835260059091528120549192909160ff1690565b604080519384526020840192909252151590820152606001610281565b3480156105ca575f80fd5b506102ea6105d9366004611427565b610a11565b3480156105e9575f80fd5b506105fd6105f83660046115d2565b610ab5565b604080516001600160e01b03199093168352600f9190910b602083015201610281565b34801561062b575f80fd5b5061026c61063a366004611653565b610ae9565b34801561064a575f80fd5b50610653610b13565b60405161028191906116ad565b34801561066b575f80fd5b5061068e61067a36600461140c565b60056020525f908152604090205460ff1681565b6040519015158152602001610281565b3480156106a9575f80fd5b5060075461068e9060ff1681565b3480156106c2575f80fd5b506102ea6106d136600461140c565b610bfa565b3480156106e1575f80fd5b5061033f7f000000000000000000000000000000000000000000000000000000000000000081565b348015610714575f80fd5b5061026c6107233660046117ce565b610c25565b348015610733575f80fd5b506102ea610742366004611815565b610c47565b348015610752575f80fd5b506102bd61271081565b348015610767575f80fd5b5061026c610776366004611653565b610d97565b348015610786575f80fd5b506102ea61079536600461140c565b610dba565b3480156107a5575f80fd5b506102ea6107b436600461140c565b610fa1565b5f6107c2610b13565b608001516107ce575f80fd5b63021d0ee760e41b5b9695505050505050565b5f6107ea610b13565b604001516107f6575f80fd5b63259982e560e01b6107d7565b61080b610fdb565b6007805460ff1916911515919091179055565b610826610fdb565b6001600160a01b03165f908152600560205260409020805460ff19169055565b5f805f610851610b13565b60c0015161085d575f80fd5b506315d7892d60e21b975f9750879650945050505050565b5f8061087f610b13565b60a0015161088b575f80fd5b633615df3f60e11b5f5b9150915097509795505050505050565b5f6108ae610b13565b602001516108ba575f80fd5b6108c685858585611008565b95945050505050565b6108d7610fdb565b5f6001600160a01b038216156108ed575f6108ef565b475b90505f8111801561090757506001600160a01b038216155b156109d6575f61091f6001546001600160a01b031690565b6001600160a01b0316826040515f6040518083038185875af1925050503d805f8114610966576040519150601f19603f3d011682016040523d82523d5f602084013e61096b565b606091505b50509050806109d45760405162461bcd60e51b815260206004820152602f60248201527f43726561746f7252657761726473486f6f6b3a20456d657267656e637920776960448201526e1d1a191c985dd85b0819985a5b1959608a1b6064820152608401610240565b505b5050565b6109e2610fdb565b6109eb5f61108a565b565b5f806109f7610b13565b60600151610a03575f80fd5b6327c18fbf60e21b5f610895565b610a19610fdb565b6064811115610a7a5760405162461bcd60e51b815260206004820152602760248201527f43726561746f7252657761726473486f6f6b3a2050657263656e7461676520746044820152660dede40d0d2ced60cb1b6064820152608401610240565b60068190556040518181527fa517688a5cc06ffb7e2ebccbfe64825a30f815fe3d3f53d103f11726b4b48ce99060200160405180910390a150565b5f80610abf610b13565b60e00151610acb575f80fd5b610ad98888888888886110db565b915091505b965096945050505050565b5f610af2610b13565b6101000151610aff575f80fd5b635b54587d60e11b5b979650505050505050565b604080516101c0810182525f80825260208201819052918101829052606081018290526080810182905260a0810182905260c0810182905260e08101829052610100810182905261012081018290526101408101829052610160810182905261018081018290526101a081019190915250604080516101c0810182525f808252600160208301819052928201819052606082018190526080820181905260a0820181905260c0820181905260e0820192909252610100810182905261012081018290526101408101829052610160810182905261018081018290526101a081019190915290565b610c02610fdb565b6001600160a01b03165f908152600560205260409020805460ff19166001179055565b5f610c2e610b13565b51610c37575f80fd5b636e4c1aa760e11b949350505050565b610c4f6112b8565b5f5b81811015610d8d575f838383818110610c6c57610c6c611886565b9050602002016020810190610c81919061140c565b335f9081526003602090815260408083206001600160a01b03851684529091529020549091508015610d8357335f9081526003602090815260408083206001600160a01b0386168085529252822091909155610d3e576040515f90339083908381818185875af1925050503d805f8114610d16576040519150601f19603f3d011682016040523d82523d5f602084013e610d1b565b606091505b5050905080610d3c5760405162461bcd60e51b81526004016102409061189a565b505b604080516001600160a01b03841681526020810183905233917f0aa4d283470c904c551d18bb894d37e17674920f3261a7f854be501e25f421b7910160405180910390a25b5050600101610c51565b506109d660015f55565b5f610da0610b13565b6101200151610dad575f80fd5b63e1b4af6960e01b610b08565b610dc26112b8565b335f9081526003602090815260408083206001600160a01b038516845290915290205480610e425760405162461bcd60e51b815260206004820152602760248201527f43726561746f7252657761726473486f6f6b3a204e6f207265776172647320746044820152666f20636c61696d60c81b6064820152608401610240565b335f9081526003602090815260408083206001600160a01b0386168085529252822091909155610ed7576040515f90339083908381818185875af1925050503d805f8114610eab576040519150601f19603f3d011682016040523d82523d5f602084013e610eb0565b606091505b5050905080610ed15760405162461bcd60e51b81526004016102409061189a565b50610f50565b60405162461bcd60e51b815260206004820152604260248201527f43726561746f7252657761726473486f6f6b3a20455243323020636c61696d6960448201527f6e67206e6f7420696d706c656d656e74656420696e207468697320766572736960648201526137b760f11b608482015260a401610240565b604080516001600160a01b03841681526020810183905233917f0aa4d283470c904c551d18bb894d37e17674920f3261a7f854be501e25f421b7910160405180910390a250610f9e60015f55565b50565b610fa9610fdb565b6001600160a01b038116610fd257604051631e4fbdf760e01b81525f6004820152602401610240565b610f9e8161108a565b6001546001600160a01b031633146109eb5760405163118cdaa760e01b8152336004820152602401610240565b5f8061102361101c368790038701876118f3565b60a0902090565b5f8181526002602052604080822080546001600160a01b0319166001600160a01b038b1690811790915590519293509183917f35083ce18d4bba2d19a9cd46e375a293a328743160f26c6f5ab6986ed40dea9391a350636fe7e6eb60e01b95945050505050565b600180546001600160a01b038381166001600160a01b0319831681179093556040519116919082907f8be0079c531659141344cd1fd0a4f28419497f9722a3daafe3b4186f6b6457e0905f90a35050565b5f80806110f061101c368a90038a018a6118f3565b5f818152600260205260409020549091506001600160a01b031680158061113c575060075460ff16801561113c57506001600160a01b0381165f9081526005602052604090205460ff16155b15611156575063b47b2fb160e01b92505f9150610ade9050565b5f61116460208a018a6113e6565b61117d5761117860408b0160208c0161140c565b61118a565b61118a60208b018b61140c565b90505f61119a60208b018b6113e6565b6111b0576111a889600f0b90565b600f0b6111be565b6111ba8960801d90565b600f0b5b90505f8112156111d4576111d1816119a1565b90505b5f612710600654836111e691906119bb565b6111f091906119d8565b9050801561129d576001600160a01b038085165f9081526003602090815260408083209387168352929052908120805483929061122e9084906119f7565b90915550505f85815260046020526040812080548392906112509084906119f7565b9091555050604080518281526001600160a01b03858116602083015286169187917f3d5943545002a730e11b488c2e168f496b7ce865c69d2b9f38d5b3c0525d25c6910160405180910390a35b5063b47b2fb160e01b9c5f9c509a5050505050505050505050565b60025f54036112da57604051633ee5aeb560e01b815260040160405180910390fd5b60025f55565b6001600160a01b0381168114610f9e575f80fd5b80356112ff816112e0565b919050565b5f60a08284031215611314575f80fd5b50919050565b5f60808284031215611314575f80fd5b5f8083601f84011261133a575f80fd5b50813567ffffffffffffffff811115611351575f80fd5b602083019150836020828501011115611368575f80fd5b9250929050565b5f805f805f6101608688031215611384575f80fd5b853561138f816112e0565b945061139e8760208801611304565b93506113ad8760c0880161131a565b925061014086013567ffffffffffffffff8111156113c9575f80fd5b6113d58882890161132a565b969995985093965092949392505050565b5f602082840312156113f6575f80fd5b81358015158114611405575f80fd5b9392505050565b5f6020828403121561141c575f80fd5b8135611405816112e0565b5f60208284031215611437575f80fd5b5035919050565b5f60608284031215611314575f80fd5b5f805f805f6101408688031215611463575f80fd5b853561146e816112e0565b945061147d8760208801611304565b935061148c8760c0880161143e565b925061012086013567ffffffffffffffff8111156113c9575f80fd5b5f805f805f805f6101a0888a0312156114bf575f80fd5b87356114ca816112e0565b96506114d98960208a01611304565b95506114e88960c08a0161131a565b94506101408801359350610160880135925061018088013567ffffffffffffffff811115611514575f80fd5b6115208a828b0161132a565b989b979a50959850939692959293505050565b8035600281900b81146112ff575f80fd5b5f805f806101008587031215611558575f80fd5b8435611563816112e0565b93506115728660208701611304565b925060c0850135611582816112e0565b915061159060e08601611533565b905092959194509250565b5f80604083850312156115ac575f80fd5b82356115b7816112e0565b915060208301356115c7816112e0565b809150509250929050565b5f805f805f8061016087890312156115e8575f80fd5b86356115f3816112e0565b95506116028860208901611304565b94506116118860c0890161143e565b9350610120870135925061014087013567ffffffffffffffff811115611635575f80fd5b61164189828a0161132a565b979a9699509497509295939492505050565b5f805f805f806101208789031215611669575f80fd5b8635611674816112e0565b95506116838860208901611304565b945060c0870135935060e0870135925061010087013567ffffffffffffffff811115611635575f80fd5b8151151581526101c0810160208301516116cb602084018215159052565b5060408301516116df604084018215159052565b5060608301516116f3606084018215159052565b506080830151611707608084018215159052565b5060a083015161171b60a084018215159052565b5060c083015161172f60c084018215159052565b5060e083015161174360e084018215159052565b5061010083015161175961010084018215159052565b5061012083015161176f61012084018215159052565b5061014083015161178561014084018215159052565b5061016083015161179b61016084018215159052565b506101808301516117b161018084018215159052565b506101a08301516117c76101a084018215159052565b5092915050565b5f805f60e084860312156117e0575f80fd5b83356117eb816112e0565b92506117fa8560208601611304565b915060c084013561180a816112e0565b809150509250925092565b5f8060208385031215611826575f80fd5b823567ffffffffffffffff81111561183c575f80fd5b8301601f8101851361184c575f80fd5b803567ffffffffffffffff811115611862575f80fd5b8560208260051b8401011115611876575f80fd5b6020919091019590945092505050565b634e487b7160e01b5f52603260045260245ffd5b60208082526027908201527f43726561746f7252657761726473486f6f6b3a20455448207472616e736665726040820152660819985a5b195960ca1b606082015260800190565b803562ffffff811681146112ff575f80fd5b5f60a0828403128015611904575f80fd5b5060405160a0810167ffffffffffffffff8111828210171561193457634e487b7160e01b5f52604160045260245ffd5b604052611940836112f4565b815261194e602084016112f4565b602082015261195f604084016118e1565b604082015261197060608401611533565b6060820152611981608084016112f4565b60808201529392505050565b634e487b7160e01b5f52601160045260245ffd5b5f600160ff1b82016119b5576119b561198d565b505f0390565b80820281158282048414176119d2576119d261198d565b92915050565b5f826119f257634e487b7160e01b5f52601260045260245ffd5b500490565b808201808211156119d2576119d261198d56fea2646970667358221220d3beeefca73e7281687c16cb3b741fe6a3a93c103b0126c53d4616bdf287138764736f6c634300081a0033","linkReferences":{}},"methodIdentifiers":{"BPS_DENOMINATOR()":"e1a45218","MAX_REWARD_PERCENTAGE()":"2de1edd5","afterAddLiquidity(address,(address,address,uint24,int24,address),(int24,int24,int256,bytes32),int256,int256,bytes)":"9f063efc","afterDonate(address,(address,address,uint24,int24,address),uint256,uint256,bytes)":"e1b4af69","afterInitialize(address,(address,address,uint24,int24,address),uint160,int24)":"6fe7e6eb","afterRemoveLiquidity(address,(address,address,uint24,int24,address),(int24,int24,int256,bytes32),int256,int256,bytes)":"6c2bbe7e","afterSwap(address,(address,address,uint24,int24,address),(bool,int256,uint160),int256,bytes)":"b47b2fb1","authorizeCreator(address)":"d8625b07","authorizedCreators(address)":"c695502a","beforeAddLiquidity(address,(address,address,uint24,int24,address),(int24,int24,int256,bytes32),bytes)":"259982e5","beforeDonate(address,(address,address,uint24,int24,address),uint256,uint256,bytes)":"b6a8b0fa","beforeInitialize(address,(address,address,uint24,int24,address),uint160)":"dc98354e","beforeRemoveLiquidity(address,(address,address,uint24,int24,address),(int24,int24,int256,bytes32),bytes)":"21d0ee70","beforeSwap(address,(address,address,uint24,int24,address),(bool,int256,uint160),bytes)":"575e24b4","claimAllRewards(address[])":"e1136e2d","claimRewards(address)":"ef5cfb8c","creatorWhitelistEnabled()":"cb5b64e8","deauthorizeCreator(address)":"4aec7b6a","emergencyWithdraw(address)":"6ff1c9bc","getCreatorStats(address)":"9f82d472","getHookPermissions()":"c4e833ce","getPoolStats(bytes32)":"71b6aaac","owner()":"8da5cb5b","pendingRewards(address,address)":"80ac8228","poolCreators(bytes32)":"522066ca","poolManager()":"dc4c90d3","renounceOwnership()":"715018a6","rewardPercentage()":"52d472eb","setCreatorWhitelistEnabled(bool)":"307e954e","totalRewardsDistributed(bytes32)":"9b707d8d","transferOwnership(address)":"f2fde38b","updateRewardPercentage(uint256)":"a4f209b0"},"id":84}