{"abi":[{"type":"constructor","inputs":[],"stateMutability":"nonpayable"},{"type":"receive","stateMutability":"payable"},{"type":"function","name":"MAX_PLATFORM_FEE","inputs":[],"outputs":[{"name":"","type":"uint256","internalType":"uint256"}],"stateMutability":"view"},{"type":"function","name":"claimTips","inputs":[],"outputs":[],"stateMutability":"nonpayable"},{"type":"function","name":"emergencyWithdraw","inputs":[],"outputs":[],"stateMutability":"nonpayable"},{"type":"function","name":"getContractBalance","inputs":[],"outputs":[{"name":"","type":"uint256","internalType":"uint256"}],"stateMutability":"view"},{"type":"function","name":"getCreatorStats","inputs":[{"name":"creator","type":"address","internalType":"address"}],"outputs":[{"name":"pendingAmount","type":"uint256","internalType":"uint256"},{"name":"totalReceived","type":"uint256","internalType":"uint256"}],"stateMutability":"view"},{"type":"function","name":"getPendingTips","inputs":[{"name":"creator","type":"address","internalType":"address"}],"outputs":[{"name":"","type":"uint256","internalType":"uint256"}],"stateMutability":"view"},{"type":"function","name":"getPlatformStats","inputs":[],"outputs":[{"name":"volume","type":"uint256","internalType":"uint256"},{"name":"transactions","type":"uint256","internalType":"uint256"},{"name":"fees","type":"uint256","internalType":"uint256"}],"stateMutability":"view"},{"type":"function","name":"getTipperStats","inputs":[{"name":"tipper","type":"address","internalType":"address"}],"outputs":[{"name":"totalSent","type":"uint256","internalType":"uint256"}],"stateMutability":"view"},{"type":"function","name":"owner","inputs":[],"outputs":[{"name":"","type":"address","internalType":"address"}],"stateMutability":"view"},{"type":"function","name":"pendingTips","inputs":[{"name":"","type":"address","internalType":"address"}],"outputs":[{"name":"","type":"uint256","internalType":"uint256"}],"stateMutability":"view"},{"type":"function","name":"platformFeePercentage","inputs":[],"outputs":[{"name":"","type":"uint256","internalType":"uint256"}],"stateMutability":"view"},{"type":"function","name":"renounceOwnership","inputs":[],"outputs":[],"stateMutability":"nonpayable"},{"type":"function","name":"tip","inputs":[{"name":"creator","type":"address","internalType":"address"}],"outputs":[],"stateMutability":"payable"},{"type":"function","name":"totalPlatformFees","inputs":[],"outputs":[{"name":"","type":"uint256","internalType":"uint256"}],"stateMutability":"view"},{"type":"function","name":"totalTipsReceived","inputs":[{"name":"","type":"address","internalType":"address"}],"outputs":[{"name":"","type":"uint256","internalType":"uint256"}],"stateMutability":"view"},{"type":"function","name":"totalTipsSent","inputs":[{"name":"","type":"address","internalType":"address"}],"outputs":[{"name":"","type":"uint256","internalType":"uint256"}],"stateMutability":"view"},{"type":"function","name":"totalTipsVolume","inputs":[],"outputs":[{"name":"","type":"uint256","internalType":"uint256"}],"stateMutability":"view"},{"type":"function","name":"totalTransactions","inputs":[],"outputs":[{"name":"","type":"uint256","internalType":"uint256"}],"stateMutability":"view"},{"type":"function","name":"transferOwnership","inputs":[{"name":"newOwner","type":"address","internalType":"address"}],"outputs":[],"stateMutability":"nonpayable"},{"type":"function","name":"updatePlatformFee","inputs":[{"name":"newFeePercentage","type":"uint256","internalType":"uint256"}],"outputs":[],"stateMutability":"nonpayable"},{"type":"function","name":"withdrawPlatformFees","inputs":[],"outputs":[],"stateMutability":"nonpayable"},{"type":"event","name":"OwnershipTransferred","inputs":[{"name":"previousOwner","type":"address","indexed":true,"internalType":"address"},{"name":"newOwner","type":"address","indexed":true,"internalType":"address"}],"anonymous":false},{"type":"event","name":"PlatformFeeUpdated","inputs":[{"name":"newFee","type":"uint256","indexed":false,"internalType":"uint256"}],"anonymous":false},{"type":"event","name":"TipSent","inputs":[{"name":"tipper","type":"address","indexed":true,"internalType":"address"},{"name":"creator","type":"address","indexed":true,"internalType":"address"},{"name":"amount","type":"uint256","indexed":false,"internalType":"uint256"},{"name":"timestamp","type":"uint256","indexed":false,"internalType":"uint256"}],"anonymous":false},{"type":"event","name":"TipsClaimed","inputs":[{"name":"creator","type":"address","indexed":true,"internalType":"address"},{"name":"amount","type":"uint256","indexed":false,"internalType":"uint256"},{"name":"timestamp","type":"uint256","indexed":false,"internalType":"uint256"}],"anonymous":false},{"type":"error","name":"OwnableInvalidOwner","inputs":[{"name":"owner","type":"address","internalType":"address"}]},{"type":"error","name":"OwnableUnauthorizedAccount","inputs":[{"name":"account","type":"address","internalType":"address"}]},{"type":"error","name":"ReentrancyGuardReentrantCall","inputs":[]}],"bytecode":{"object":"0x608060405260fa6005553480156013575f80fd5b5060015f553380603c57604051631e4fbdf760e01b81525f600482015260240160405180910390fd5b6043816048565b506099565b600180546001600160a01b038381166001600160a01b0319831681179093556040519116919082907f8be0079c531659141344cd1fd0a4f28419497f9722a3daafe3b4186f6b6457e0905f90a35050565b610cd6806100a65f395ff3fe608060405260043610610129575f3560e01c8063aa39978e116100a8578063cdd78cfc1161006d578063cdd78cfc146103c7578063ceb5ad55146103dc578063d0b7830b14610410578063d3631fa514610424578063db2e21bc14610439578063f2fde38b1461044d575f80fd5b8063aa39978e1461032b578063ac40786b1461035f578063ac733ef714610374578063b9a6003814610387578063cd34d1e91461039c575f80fd5b80637f84606e116100ee5780637f84606e146102395780638acf90dd146102645780638da5cb5b1461028f5780639f82d472146102b6578063aa0b59881461030c575f80fd5b806306af3dfd146101a5578063136d8883146101bb5780633998a681146101f05780636f9fb98a14610213578063715018a614610225575f80fd5b366101a15760405162461bcd60e51b815260206004820152603b60248201527f53686172645469703a20446972656374207472616e7366657273206e6f74206160448201527f6c6c6f7765642e205573652074697028292066756e6374696f6e2e000000000060648201526084015b60405180910390fd5b5f80fd5b3480156101b0575f80fd5b506101b961046c565b005b3480156101c6575f80fd5b50600754600854600654604080519384526020840192909252908201526060015b60405180910390f35b3480156101fb575f80fd5b506102056101f481565b6040519081526020016101e7565b34801561021e575f80fd5b5047610205565b348015610230575f80fd5b506101b96105bb565b348015610244575f80fd5b50610205610253366004610bce565b60026020525f908152604090205481565b34801561026f575f80fd5b5061020561027e366004610bce565b60046020525f908152604090205481565b34801561029a575f80fd5b506001546040516001600160a01b0390911681526020016101e7565b3480156102c1575f80fd5b506102f76102d0366004610bce565b6001600160a01b03165f908152600260209081526040808320546003909252909120549091565b604080519283526020830191909152016101e7565b348015610317575f80fd5b506101b9610326366004610bfb565b6105cc565b348015610336575f80fd5b50610205610345366004610bce565b6001600160a01b03165f9081526004602052604090205490565b34801561036a575f80fd5b5061020560075481565b6101b9610382366004610bce565b61065a565b348015610392575f80fd5b5061020560085481565b3480156103a7575f80fd5b506102056103b6366004610bce565b60036020525f908152604090205481565b3480156103d2575f80fd5b5061020560055481565b3480156103e7575f80fd5b506102056103f6366004610bce565b6001600160a01b03165f9081526002602052604090205490565b34801561041b575f80fd5b506101b96108c1565b34801561042f575f80fd5b5061020560065481565b348015610444575f80fd5b506101b96109d2565b348015610458575f80fd5b506101b9610467366004610bce565b610aee565b610474610b28565b335f90815260026020526040902054806104d05760405162461bcd60e51b815260206004820152601a60248201527f53686172645469703a204e6f207469707320746f20636c61696d0000000000006044820152606401610198565b335f818152600260205260408082208290555190919083908381818185875af1925050503d805f811461051e576040519150601f19603f3d011682016040523d82523d5f602084013e610523565b606091505b50509050806105745760405162461bcd60e51b815260206004820152601960248201527f53686172645469703a205472616e73666572206661696c6564000000000000006044820152606401610198565b6040805183815242602082015233917f8a2a3821b1fbdcaaa34df8b884fb0067a1acba069b9ef8c8455357daa47284d4910160405180910390a250506105b960015f55565b565b6105c3610b50565b6105b95f610b7d565b6105d4610b50565b6101f481111561061f5760405162461bcd60e51b81526020600482015260166024820152750a6d0c2e4c8a8d2e074408ccaca40e8dede40d0d2ced60531b6044820152606401610198565b60058190556040518181527f45610d581145924dd7090a5017e5f2b1d6f42213bb2e95707ff86846bbfcb1ca9060200160405180910390a150565b610662610b28565b6001600160a01b0381166106c25760405162461bcd60e51b815260206004820152602160248201527f53686172645469703a20496e76616c69642063726561746f72206164647265736044820152607360f81b6064820152608401610198565b5f34116107255760405162461bcd60e51b815260206004820152602b60248201527f53686172645469703a2054697020616d6f756e74206d7573742062652067726560448201526a061746572207468616e20360ac1b6064820152608401610198565b336001600160a01b0382160361077d5760405162461bcd60e51b815260206004820152601d60248201527f53686172645469703a2043616e6e6f742074697020796f757273656c660000006044820152606401610198565b60055434905f90612710906107929084610c26565b61079c9190610c43565b90505f6107a98284610c62565b6001600160a01b0385165f908152600260205260408120805492935083929091906107d5908490610c75565b90915550506001600160a01b0384165f9081526003602052604081208054839290610801908490610c75565b9091555050335f9081526004602052604081208054859290610824908490610c75565b925050819055508160065f82825461083c9190610c75565b925050819055508260075f8282546108549190610c75565b909155505060088054905f61086883610c88565b9091555050604080518481524260208201526001600160a01b0386169133917f46caa0ebed33f94f22a64c88eb5e4283c4c91eb15dea2eda91009729f309e9ec910160405180910390a35050506108be60015f55565b50565b6108c9610b50565b6108d1610b28565b600654806109215760405162461bcd60e51b815260206004820152601d60248201527f53686172645469703a204e6f206665657320746f2077697468647261770000006044820152606401610198565b5f60068190556001546040516001600160a01b039091169083908381818185875af1925050503d805f8114610971576040519150601f19603f3d011682016040523d82523d5f602084013e610976565b606091505b50509050806109c75760405162461bcd60e51b815260206004820152601b60248201527f53686172645469703a205769746864726177616c206661696c656400000000006044820152606401610198565b50506105b960015f55565b6109da610b50565b6109e2610b28565b4780610a305760405162461bcd60e51b815260206004820181905260248201527f53686172645469703a204e6f2062616c616e636520746f2077697468647261776044820152606401610198565b5f610a436001546001600160a01b031690565b6001600160a01b0316826040515f6040518083038185875af1925050503d805f8114610a8a576040519150601f19603f3d011682016040523d82523d5f602084013e610a8f565b606091505b50509050806109c75760405162461bcd60e51b815260206004820152602560248201527f53686172645469703a20456d657267656e6379207769746864726177616c2066604482015264185a5b195960da1b6064820152608401610198565b610af6610b50565b6001600160a01b038116610b1f57604051631e4fbdf760e01b81525f6004820152602401610198565b6108be81610b7d565b60025f5403610b4a57604051633ee5aeb560e01b815260040160405180910390fd5b60025f55565b6001546001600160a01b031633146105b95760405163118cdaa760e01b8152336004820152602401610198565b600180546001600160a01b038381166001600160a01b0319831681179093556040519116919082907f8be0079c531659141344cd1fd0a4f28419497f9722a3daafe3b4186f6b6457e0905f90a35050565b5f60208284031215610bde575f80fd5b81356001600160a01b0381168114610bf4575f80fd5b9392505050565b5f60208284031215610c0b575f80fd5b5035919050565b634e487b7160e01b5f52601160045260245ffd5b8082028115828204841417610c3d57610c3d610c12565b92915050565b5f82610c5d57634e487b7160e01b5f52601260045260245ffd5b500490565b81810381811115610c3d57610c3d610c12565b80820180821115610c3d57610c3d610c12565b5f60018201610c9957610c99610c12565b506001019056fea26469706673582212205c9c94c19ea8e797bac4413949432dd7452ab303be0fc9ee9476464a07ac3c3964736f6c634300081a0033","linkReferences":{}},"methodIdentifiers":{"MAX_PLATFORM_FEE()":"3998a681","claimTips()":"06af3dfd","emergencyWithdraw()":"db2e21bc","getContractBalance()":"6f9fb98a","getCreatorStats(address)":"9f82d472","getPendingTips(address)":"ceb5ad55","getPlatformStats()":"136d8883","getTipperStats(address)":"aa39978e","owner()":"8da5cb5b","pendingTips(address)":"7f84606e","platformFeePercentage()":"cdd78cfc","renounceOwnership()":"715018a6","tip(address)":"ac733ef7","totalPlatformFees()":"d3631fa5","totalTipsReceived(address)":"cd34d1e9","totalTipsSent(address)":"8acf90dd","totalTipsVolume()":"ac40786b","totalTransactions()":"b9a60038","transferOwnership(address)":"f2fde38b","updatePlatformFee(uint256)":"aa0b5988","withdrawPlatformFees()":"d0b7830b"},"id":85}