{"abi":[{"type":"constructor","inputs":[],"stateMutability":"nonpayable"},{"type":"receive","stateMutability":"payable"},{"type":"function","name":"MAX_PLATFORM_FEE","inputs":[],"outputs":[{"name":"","type":"uint256","internalType":"uint256"}],"stateMutability":"view"},{"type":"function","name":"MIN_TIP_AMOUNT","inputs":[],"outputs":[{"name":"","type":"uint256","internalType":"uint256"}],"stateMutability":"view"},{"type":"function","name":"NATIVE_TOKEN","inputs":[],"outputs":[{"name":"","type":"address","internalType":"address"}],"stateMutability":"view"},{"type":"function","name":"addSupportedToken","inputs":[{"name":"token","type":"address","internalType":"address"}],"outputs":[],"stateMutability":"nonpayable"},{"type":"function","name":"batchTipToken","inputs":[{"name":"creators","type":"address[]","internalType":"address[]"},{"name":"token","type":"address","internalType":"address"},{"name":"amounts","type":"uint256[]","internalType":"uint256[]"}],"outputs":[],"stateMutability":"payable"},{"type":"function","name":"claimAllTokenRewards","inputs":[{"name":"tokens","type":"address[]","internalType":"address[]"}],"outputs":[],"stateMutability":"nonpayable"},{"type":"function","name":"claimTokenRewards","inputs":[{"name":"token","type":"address","internalType":"address"}],"outputs":[],"stateMutability":"nonpayable"},{"type":"function","name":"emergencyWithdraw","inputs":[{"name":"token","type":"address","internalType":"address"}],"outputs":[],"stateMutability":"nonpayable"},{"type":"function","name":"getCreatorTokenBalance","inputs":[{"name":"creator","type":"address","internalType":"address"},{"name":"token","type":"address","internalType":"address"}],"outputs":[{"name":"","type":"uint256","internalType":"uint256"}],"stateMutability":"view"},{"type":"function","name":"getCreatorTotalBalances","inputs":[{"name":"creator","type":"address","internalType":"address"},{"name":"tokens","type":"address[]","internalType":"address[]"}],"outputs":[{"name":"","type":"uint256[]","internalType":"uint256[]"}],"stateMutability":"view"},{"type":"function","name":"getPlatformStats","inputs":[],"outputs":[{"name":"totalVolume","type":"uint256","internalType":"uint256"},{"name":"totalRewards","type":"uint256","internalType":"uint256"},{"name":"platformFees","type":"uint256","internalType":"uint256"},{"name":"supportedTokensCount","type":"uint256","internalType":"uint256"}],"stateMutability":"view"},{"type":"function","name":"getSupportedTokens","inputs":[],"outputs":[{"name":"","type":"address[]","internalType":"address[]"}],"stateMutability":"view"},{"type":"function","name":"getTokenRewards","inputs":[{"name":"token","type":"address","internalType":"address"}],"outputs":[{"name":"","type":"uint256","internalType":"uint256"}],"stateMutability":"view"},{"type":"function","name":"getTokenVolume","inputs":[{"name":"token","type":"address","internalType":"address"}],"outputs":[{"name":"","type":"uint256","internalType":"uint256"}],"stateMutability":"view"},{"type":"function","name":"isTokenSupported","inputs":[{"name":"token","type":"address","internalType":"address"}],"outputs":[{"name":"","type":"bool","internalType":"bool"}],"stateMutability":"view"},{"type":"function","name":"owner","inputs":[],"outputs":[{"name":"","type":"address","internalType":"address"}],"stateMutability":"view"},{"type":"function","name":"platformFeePercentage","inputs":[],"outputs":[{"name":"","type":"uint256","internalType":"uint256"}],"stateMutability":"view"},{"type":"function","name":"removeSupportedToken","inputs":[{"name":"token","type":"address","internalType":"address"}],"outputs":[],"stateMutability":"nonpayable"},{"type":"function","name":"renounceOwnership","inputs":[],"outputs":[],"stateMutability":"nonpayable"},{"type":"function","name":"supportedTokens","inputs":[{"name":"","type":"address","internalType":"address"}],"outputs":[{"name":"","type":"bool","internalType":"bool"}],"stateMutability":"view"},{"type":"function","name":"tipToken","inputs":[{"name":"creator","type":"address","internalType":"address"},{"name":"token","type":"address","internalType":"address"},{"name":"amount","type":"uint256","internalType":"uint256"}],"outputs":[],"stateMutability":"payable"},{"type":"function","name":"tokenBalances","inputs":[{"name":"","type":"address","internalType":"address"},{"name":"","type":"address","internalType":"address"}],"outputs":[{"name":"","type":"uint256","internalType":"uint256"}],"stateMutability":"view"},{"type":"function","name":"totalTokenRewards","inputs":[{"name":"","type":"address","internalType":"address"}],"outputs":[{"name":"","type":"uint256","internalType":"uint256"}],"stateMutability":"view"},{"type":"function","name":"totalTokenVolume","inputs":[{"name":"","type":"address","internalType":"address"}],"outputs":[{"name":"","type":"uint256","internalType":"uint256"}],"stateMutability":"view"},{"type":"function","name":"transferOwnership","inputs":[{"name":"newOwner","type":"address","internalType":"address"}],"outputs":[],"stateMutability":"nonpayable"},{"type":"function","name":"updatePlatformFeePercentage","inputs":[{"name":"newFeePercentage","type":"uint256","internalType":"uint256"}],"outputs":[],"stateMutability":"nonpayable"},{"type":"function","name":"withdrawPlatformFees","inputs":[{"name":"token","type":"address","internalType":"address"}],"outputs":[],"stateMutability":"nonpayable"},{"type":"event","name":"OwnershipTransferred","inputs":[{"name":"previousOwner","type":"address","indexed":true,"internalType":"address"},{"name":"newOwner","type":"address","indexed":true,"internalType":"address"}],"anonymous":false},{"type":"event","name":"TokenRewardsClaimed","inputs":[{"name":"creator","type":"address","indexed":true,"internalType":"address"},{"name":"token","type":"address","indexed":true,"internalType":"address"},{"name":"amount","type":"uint256","indexed":false,"internalType":"uint256"}],"anonymous":false},{"type":"event","name":"TokenRewardsDistributed","inputs":[{"name":"creator","type":"address","indexed":true,"internalType":"address"},{"name":"token","type":"address","indexed":true,"internalType":"address"},{"name":"amount","type":"uint256","indexed":false,"internalType":"uint256"}],"anonymous":false},{"type":"event","name":"TokenSupported","inputs":[{"name":"token","type":"address","indexed":true,"internalType":"address"},{"name":"supported","type":"bool","indexed":false,"internalType":"bool"}],"anonymous":false},{"type":"event","name":"TokenTipped","inputs":[{"name":"from","type":"address","indexed":true,"internalType":"address"},{"name":"to","type":"address","indexed":true,"internalType":"address"},{"name":"token","type":"address","indexed":true,"internalType":"address"},{"name":"amount","type":"uint256","indexed":false,"internalType":"uint256"}],"anonymous":false},{"type":"error","name":"AddressEmptyCode","inputs":[{"name":"target","type":"address","internalType":"address"}]},{"type":"error","name":"AddressInsufficientBalance","inputs":[{"name":"account","type":"address","internalType":"address"}]},{"type":"error","name":"FailedInnerCall","inputs":[]},{"type":"error","name":"OwnableInvalidOwner","inputs":[{"name":"owner","type":"address","internalType":"address"}]},{"type":"error","name":"OwnableUnauthorizedAccount","inputs":[{"name":"account","type":"address","internalType":"address"}]},{"type":"error","name":"ReentrancyGuardReentrantCall","inputs":[]},{"type":"error","name":"SafeERC20FailedOperation","inputs":[{"name":"token","type":"address","internalType":"address"}]}],"bytecode":{"object":"0x608060405260fa6006553480156013575f80fd5b5060015f553380603c57604051631e4fbdf760e01b81525f600482015260240160405180910390fd5b604381607c565b505f805260026020527fac33ff75c19e70fe83507db0d683fd3465c996598dc972688b7ace676c89077b805460ff1916600117905560cd565b600180546001600160a01b038381166001600160a01b0319831681179093556040519116919082907f8be0079c531659141344cd1fd0a4f28419497f9722a3daafe3b4186f6b6457e0905f90a35050565b611ca1806100da5f395ff3fe608060405260043610610198575f3560e01c806375151b63116100e7578063cdd78cfc11610087578063ec3889b511610062578063ec3889b5146104ed578063f2fde38b1461050c578063f55167ac1461052b578063f57892d51461054a575f80fd5b8063cdd78cfc14610495578063d3c7c2c7146104aa578063e4830153146104ce575f80fd5b80638da5cb5b116100c25780638da5cb5b1461040e578063a8f861891461042b578063c38694a51461043e578063c50f530814610469575f80fd5b806375151b631461038457806376319190146103bb57806378c1b85a146103da575f80fd5b8063429895ac1161015257806368c4ac261161012d57806368c4ac26146102f45780636d69fcaf146103325780636ff1c9bc14610351578063715018a614610370575f80fd5b8063429895ac146102915780634dbf6c5a146102ab57806358ea31e3146102e1575f80fd5b806306aa52f9146101a3578063136d8883146101c457806331f7d964146101f957806336bcebb1146102245780633998a6811461025d5780633f6a327c14610272575f80fd5b3661019f57005b5f80fd5b3480156101ae575f80fd5b506101c26101bd366004611840565b61057e565b005b3480156101cf575f80fd5b505f8080806040805194855260208501939093529183015260608201526080015b60405180910390f35b348015610204575f80fd5b5061020c5f81565b6040516001600160a01b0390911681526020016101f0565b34801561022f575f80fd5b5061024f61023e366004611840565b60056020525f908152604090205481565b6040519081526020016101f0565b348015610268575f80fd5b5061024f6103e881565b34801561027d575f80fd5b5061024f61028c366004611859565b61059c565b34801561029c575f80fd5b5061024f66038d7ea4c6800081565b3480156102b6575f80fd5b5061024f6102c5366004611859565b600360209081525f928352604080842090915290825290205481565b6101c26102ef3660046118d2565b6105c8565b3480156102ff575f80fd5b5061032261030e366004611840565b60026020525f908152604090205460ff1681565b60405190151581526020016101f0565b34801561033d575f80fd5b506101c261034c366004611840565b610a84565b34801561035c575f80fd5b506101c261036b366004611840565b610b50565b34801561037b575f80fd5b506101c2610c9a565b34801561038f575f80fd5b5061032261039e366004611840565b6001600160a01b03165f9081526002602052604090205460ff1690565b3480156103c6575f80fd5b506101c26103d5366004611840565b610cad565b3480156103e5575f80fd5b5061024f6103f4366004611840565b6001600160a01b03165f9081526005602052604090205490565b348015610419575f80fd5b506001546001600160a01b031661020c565b6101c2610439366004611953565b610d6f565b348015610449575f80fd5b5061024f610458366004611840565b60046020525f908152604090205481565b348015610474575f80fd5b5061048861048336600461198d565b611127565b6040516101f091906119dc565b3480156104a0575f80fd5b5061024f60065481565b3480156104b5575f80fd5b50604080515f815260208101918290526101f091611a1e565b3480156104d9575f80fd5b506101c26104e8366004611a5e565b611208565b3480156104f8575f80fd5b506101c2610507366004611840565b611267565b348015610517575f80fd5b506101c2610526366004611840565b611368565b348015610536575f80fd5b506101c2610545366004611a75565b6113a2565b348015610555575f80fd5b5061024f610564366004611840565b6001600160a01b03165f9081526004602052604090205490565b6105866113f6565b610590338261141e565b61059960015f55565b50565b6001600160a01b038083165f908152600360209081526040808320938516835292905220545b92915050565b6105d06113f6565b8381146106355760405162461bcd60e51b815260206004820152602860248201527f4d756c7469546f6b656e537570706f72743a204172726179206c656e677468206044820152670dad2e6dac2e8c6d60c31b60648201526084015b60405180910390fd5b6001600160a01b0383165f9081526002602052604090205460ff1661066c5760405162461bcd60e51b815260040161062c90611ab4565b5f805b828110156106a55783838281811061068957610689611afa565b905060200201358261069b9190611b22565b915060010161066f565b506001600160a01b0384166106d8578034146106d35760405162461bcd60e51b815260040161062c90611b35565b6106ed565b6106ed6001600160a01b0385163330846115a6565b5f5b858110156109e9575f84848381811061070a5761070a611afa565b9050602002013511156109e1575f61271060065486868581811061073057610730611afa565b905060200201356107419190611b7c565b61074b9190611b93565b90505f8186868581811061076157610761611afa565b905060200201356107729190611bb2565b90506001600160a01b03871661081d575f89898581811061079557610795611afa565b90506020020160208101906107aa9190611840565b6001600160a01b0316826040515f6040518083038185875af1925050503d805f81146107f1576040519150601f19603f3d011682016040523d82523d5f602084013e6107f6565b606091505b50509050806108175760405162461bcd60e51b815260040161062c90611bc5565b50610858565b61085889898581811061083257610832611afa565b90506020020160208101906108479190611840565b6001600160a01b0389169083611613565b8060035f8b8b8781811061086e5761086e611afa565b90506020020160208101906108839190611840565b6001600160a01b03166001600160a01b031681526020019081526020015f205f896001600160a01b03166001600160a01b031681526020019081526020015f205f8282546108d19190611b22565b9091555086905085848181106108e9576108e9611afa565b9050602002013560045f896001600160a01b03166001600160a01b031681526020019081526020015f205f8282546109219190611b22565b90915550506001600160a01b0387165f908152600560205260408120805483929061094d908490611b22565b90915550506001600160a01b03871689898581811061096e5761096e611afa565b90506020020160208101906109839190611840565b6001600160a01b0316337ff45029032609eb755617274b06d1bd6dd6f37bd22f44d7f0d63fb9f914283d878989888181106109c0576109c0611afa565b905060200201356040516109d691815260200190565b60405180910390a450505b6001016106ef565b505f612710600654836109fc9190611b7c565b610a069190611b93565b90508060035f610a1e6001546001600160a01b031690565b6001600160a01b03166001600160a01b031681526020019081526020015f205f876001600160a01b03166001600160a01b031681526020019081526020015f205f828254610a6c9190611b22565b909155505060015f5550610a7d9050565b5050505050565b610a8c611644565b6001600160a01b038116610af35760405162461bcd60e51b815260206004820152602860248201527f4d756c7469546f6b656e537570706f72743a20496e76616c696420746f6b656e604482015267206164647265737360c01b606482015260840161062c565b6001600160a01b0381165f81815260026020908152604091829020805460ff1916600190811790915591519182527fd86c88b4a367d9b81a6e00c9d3f7d01657bffef358fa8968c91c045ae99f0d5291015b60405180910390a250565b610b58611644565b5f6001600160a01b03821615610bd3576040516370a0823160e01b81523060048201526001600160a01b038316906370a0823190602401602060405180830381865afa158015610baa573d5f803e3d5ffd5b505050506040513d601f19601f82011682018060405250810190610bce9190611c0b565b610bd5565b475b90508015610c96576001600160a01b038216610c70575f610bfe6001546001600160a01b031690565b6001600160a01b0316826040515f6040518083038185875af1925050503d805f8114610c45576040519150601f19603f3d011682016040523d82523d5f602084013e610c4a565b606091505b5050905080610c6b5760405162461bcd60e51b815260040161062c90611bc5565b505050565b610c96610c856001546001600160a01b031690565b6001600160a01b0384169083611613565b5050565b610ca2611644565b610cab5f611671565b565b610cb5611644565b6001600160a01b038116610d215760405162461bcd60e51b815260206004820152602d60248201527f4d756c7469546f6b656e537570706f72743a2043616e6e6f742072656d6f766560448201526c103730ba34bb32903a37b5b2b760991b606482015260840161062c565b6001600160a01b0381165f818152600260209081526040808320805460ff19169055519182527fd86c88b4a367d9b81a6e00c9d3f7d01657bffef358fa8968c91c045ae99f0d529101610b45565b610d776113f6565b6001600160a01b0382165f9081526002602052604090205460ff16610dae5760405162461bcd60e51b815260040161062c90611ab4565b66038d7ea4c68000811015610e115760405162461bcd60e51b815260206004820152602360248201527f4d756c7469546f6b656e537570706f72743a20416d6f756e7420746f6f20736d604482015262185b1b60ea1b606482015260840161062c565b6001600160a01b038316610e7a5760405162461bcd60e51b815260206004820152602a60248201527f4d756c7469546f6b656e537570706f72743a20496e76616c69642063726561746044820152696f72206164647265737360b01b606482015260840161062c565b5f61271060065483610e8c9190611b7c565b610e969190611b93565b90505f610ea38284611bb2565b90506001600160a01b038416610fb157823414610ed25760405162461bcd60e51b815260040161062c90611b35565b5f856001600160a01b0316826040515f6040518083038185875af1925050503d805f8114610f1b576040519150601f19603f3d011682016040523d82523d5f602084013e610f20565b606091505b5050905080610f415760405162461bcd60e51b815260040161062c90611bc5565b8260035f610f576001546001600160a01b031690565b6001600160a01b03166001600160a01b031681526020019081526020015f205f876001600160a01b03166001600160a01b031681526020019081526020015f205f828254610fa59190611b22565b90915550611044915050565b610fc66001600160a01b0385163330866115a6565b610fda6001600160a01b0385168683611613565b8160035f610ff06001546001600160a01b031690565b6001600160a01b03166001600160a01b031681526020019081526020015f205f866001600160a01b03166001600160a01b031681526020019081526020015f205f82825461103e9190611b22565b90915550505b6001600160a01b038086165f9081526003602090815260408083209388168352929052908120805483929061107a908490611b22565b90915550506001600160a01b0384165f90815260046020526040812080548592906110a6908490611b22565b90915550506001600160a01b0384165f90815260056020526040812080548392906110d2908490611b22565b90915550506040518381526001600160a01b03808616919087169033907ff45029032609eb755617274b06d1bd6dd6f37bd22f44d7f0d63fb9f914283d879060200160405180910390a45050610c6b60015f55565b60605f8267ffffffffffffffff81111561114357611143611c22565b60405190808252806020026020018201604052801561116c578160200160208202803683370190505b5090505f5b838110156111fd576001600160a01b0386165f908152600360205260408120908686848181106111a3576111a3611afa565b90506020020160208101906111b89190611840565b6001600160a01b03166001600160a01b031681526020019081526020015f20548282815181106111ea576111ea611afa565b6020908102919091010152600101611171565b5090505b9392505050565b611210611644565b6103e88111156112625760405162461bcd60e51b815260206004820152601f60248201527f4d756c7469546f6b656e537570706f72743a2046656520746f6f206869676800604482015260640161062c565b600655565b61126f611644565b5f60035f6112856001546001600160a01b031690565b6001600160a01b03908116825260208083019390935260409182015f9081209186168152925290205490508061130c5760405162461bcd60e51b815260206004820152602660248201527f4d756c7469546f6b656e537570706f72743a204e6f206665657320746f20776960448201526574686472617760d01b606482015260840161062c565b5f60035f6113226001546001600160a01b031690565b6001600160a01b03908116825260208083019390935260409182015f90812091871680825291909352912091909155610c70575f610bfe6001546001600160a01b031690565b611370611644565b6001600160a01b03811661139957604051631e4fbdf760e01b81525f600482015260240161062c565b61059981611671565b6113aa6113f6565b5f5b818110156113ec576113e4338484848181106113ca576113ca611afa565b90506020020160208101906113df9190611840565b61141e565b6001016113ac565b50610c9660015f55565b60025f540361141857604051633ee5aeb560e01b815260040160405180910390fd5b60025f55565b6001600160a01b038083165f908152600360209081526040808320938516835292905220548061149f5760405162461bcd60e51b815260206004820152602660248201527f4d756c7469546f6b656e537570706f72743a204e6f207265776172647320746f60448201526520636c61696d60d01b606482015260840161062c565b6001600160a01b038084165f90815260036020908152604080832093861680845293909152812055611540575f836001600160a01b0316826040515f6040518083038185875af1925050503d805f8114611514576040519150601f19603f3d011682016040523d82523d5f602084013e611519565b606091505b505090508061153a5760405162461bcd60e51b815260040161062c90611bc5565b50611554565b6115546001600160a01b0383168483611613565b816001600160a01b0316836001600160a01b03167f2ecbbad36dfb8af92a78e491dd8a3a195a314c9e3d7262dd303ae70bf6378e268360405161159991815260200190565b60405180910390a3505050565b6040516001600160a01b03848116602483015283811660448301526064820183905261160d9186918216906323b872dd906084015b604051602081830303815290604052915060e01b6020820180516001600160e01b0383818316178352505050506116c2565b50505050565b6040516001600160a01b03838116602483015260448201839052610c6b91859182169063a9059cbb906064016115db565b6001546001600160a01b03163314610cab5760405163118cdaa760e01b815233600482015260240161062c565b600180546001600160a01b038381166001600160a01b0319831681179093556040519116919082907f8be0079c531659141344cd1fd0a4f28419497f9722a3daafe3b4186f6b6457e0905f90a35050565b5f6116d66001600160a01b03841683611723565b905080515f141580156116fa5750808060200190518101906116f89190611c36565b155b15610c6b57604051635274afe760e01b81526001600160a01b038416600482015260240161062c565b606061120183835f845f80856001600160a01b031684866040516117479190611c55565b5f6040518083038185875af1925050503d805f8114611781576040519150601f19603f3d011682016040523d82523d5f602084013e611786565b606091505b50915091506117968683836117a0565b9695505050505050565b6060826117b5576117b0826117fc565b611201565b81511580156117cc57506001600160a01b0384163b155b156117f557604051639996b31560e01b81526001600160a01b038516600482015260240161062c565b5080611201565b80511561180c5780518082602001fd5b604051630a12f52160e11b815260040160405180910390fd5b80356001600160a01b038116811461183b575f80fd5b919050565b5f60208284031215611850575f80fd5b61120182611825565b5f806040838503121561186a575f80fd5b61187383611825565b915061188160208401611825565b90509250929050565b5f8083601f84011261189a575f80fd5b50813567ffffffffffffffff8111156118b1575f80fd5b6020830191508360208260051b85010111156118cb575f80fd5b9250929050565b5f805f805f606086880312156118e6575f80fd5b853567ffffffffffffffff8111156118fc575f80fd5b6119088882890161188a565b909650945061191b905060208701611825565b9250604086013567ffffffffffffffff811115611936575f80fd5b6119428882890161188a565b969995985093965092949392505050565b5f805f60608486031215611965575f80fd5b61196e84611825565b925061197c60208501611825565b929592945050506040919091013590565b5f805f6040848603121561199f575f80fd5b6119a884611825565b9250602084013567ffffffffffffffff8111156119c3575f80fd5b6119cf8682870161188a565b9497909650939450505050565b602080825282518282018190525f918401906040840190835b81811015611a135783518352602093840193909201916001016119f5565b509095945050505050565b602080825282518282018190525f918401906040840190835b81811015611a135783516001600160a01b0316835260209384019390920191600101611a37565b5f60208284031215611a6e575f80fd5b5035919050565b5f8060208385031215611a86575f80fd5b823567ffffffffffffffff811115611a9c575f80fd5b611aa88582860161188a565b90969095509350505050565b60208082526026908201527f4d756c7469546f6b656e537570706f72743a20546f6b656e206e6f74207375706040820152651c1bdc9d195960d21b606082015260800190565b634e487b7160e01b5f52603260045260245ffd5b634e487b7160e01b5f52601160045260245ffd5b808201808211156105c2576105c2611b0e565b60208082526027908201527f4d756c7469546f6b656e537570706f72743a20496e636f72726563742045544860408201526608185b5bdd5b9d60ca1b606082015260800190565b80820281158282048414176105c2576105c2611b0e565b5f82611bad57634e487b7160e01b5f52601260045260245ffd5b500490565b818103818111156105c2576105c2611b0e565b60208082526026908201527f4d756c7469546f6b656e537570706f72743a20455448207472616e736665722060408201526519985a5b195960d21b606082015260800190565b5f60208284031215611c1b575f80fd5b5051919050565b634e487b7160e01b5f52604160045260245ffd5b5f60208284031215611c46575f80fd5b81518015158114611201575f80fd5b5f82518060208501845e5f92019182525091905056fea264697066735822122058e08a33982159c0b159364f9428635eba2dab13e5b8f00f139e10e2e5c1dc0364736f6c634300081a0033","linkReferences":{}},"methodIdentifiers":{"MAX_PLATFORM_FEE()":"3998a681","MIN_TIP_AMOUNT()":"429895ac","NATIVE_TOKEN()":"31f7d964","addSupportedToken(address)":"6d69fcaf","batchTipToken(address[],address,uint256[])":"58ea31e3","claimAllTokenRewards(address[])":"f55167ac","claimTokenRewards(address)":"06aa52f9","emergencyWithdraw(address)":"6ff1c9bc","getCreatorTokenBalance(address,address)":"3f6a327c","getCreatorTotalBalances(address,address[])":"c50f5308","getPlatformStats()":"136d8883","getSupportedTokens()":"d3c7c2c7","getTokenRewards(address)":"78c1b85a","getTokenVolume(address)":"f57892d5","isTokenSupported(address)":"75151b63","owner()":"8da5cb5b","platformFeePercentage()":"cdd78cfc","removeSupportedToken(address)":"76319190","renounceOwnership()":"715018a6","supportedTokens(address)":"68c4ac26","tipToken(address,address,uint256)":"a8f86189","tokenBalances(address,address)":"4dbf6c5a","totalTokenRewards(address)":"36bcebb1","totalTokenVolume(address)":"c38694a5","transferOwnership(address)":"f2fde38b","updatePlatformFeePercentage(uint256)":"e4830153","withdrawPlatformFees(address)":"ec3889b5"},"id":48}